{
  "contractName": "Microgrid",
  "abi": [
    {
      "anonymous": false,
      "inputs": [
        {
          "indexed": true,
          "internalType": "address",
          "name": "from",
          "type": "address"
        },
        {
          "indexed": true,
          "internalType": "address",
          "name": "to",
          "type": "address"
        },
        {
          "indexed": false,
          "internalType": "uint256",
          "name": "transferAmount",
          "type": "uint256"
        }
      ],
      "name": "EnergyTransferred",
      "type": "event"
    },
    {
      "anonymous": false,
      "inputs": [
        {
          "indexed": true,
          "internalType": "address",
          "name": "from",
          "type": "address"
        },
        {
          "indexed": true,
          "internalType": "address",
          "name": "to",
          "type": "address"
        },
        {
          "indexed": false,
          "internalType": "uint256",
          "name": "amount",
          "type": "uint256"
        },
        {
          "indexed": false,
          "internalType": "uint256",
          "name": "timestamp",
          "type": "uint256"
        }
      ],
      "name": "TransactionAdded",
      "type": "event"
    },
    {
      "anonymous": false,
      "inputs": [
        {
          "indexed": false,
          "internalType": "uint256",
          "name": "microGridUniqueId",
          "type": "uint256"
        },
        {
          "indexed": false,
          "internalType": "uint256",
          "name": "batteryIndex",
          "type": "uint256"
        },
        {
          "indexed": false,
          "internalType": "uint256",
          "name": "minCapacity",
          "type": "uint256"
        },
        {
          "indexed": false,
          "internalType": "uint256",
          "name": "maxCapacity",
          "type": "uint256"
        },
        {
          "indexed": false,
          "internalType": "uint256",
          "name": "Charge",
          "type": "uint256"
        },
        {
          "indexed": false,
          "internalType": "uint16",
          "name": "maxEfficiency",
          "type": "uint16"
        },
        {
          "indexed": false,
          "internalType": "uint16",
          "name": "initSoc",
          "type": "uint16"
        }
      ],
      "name": "addBatteryData",
      "type": "event"
    },
    {
      "anonymous": false,
      "inputs": [
        {
          "indexed": false,
          "internalType": "uint256",
          "name": "microGridUniqueId",
          "type": "uint256"
        },
        {
          "indexed": false,
          "internalType": "uint256",
          "name": "GEId",
          "type": "uint256"
        },
        {
          "indexed": false,
          "internalType": "uint256",
          "name": "charge",
          "type": "uint256"
        },
        {
          "indexed": false,
          "internalType": "uint256",
          "name": "energyProduction",
          "type": "uint256"
        }
      ],
      "name": "addGreenEnergyData",
      "type": "event"
    },
    {
      "anonymous": false,
      "inputs": [
        {
          "indexed": false,
          "internalType": "uint256",
          "name": "microGridUniqueId",
          "type": "uint256"
        },
        {
          "indexed": false,
          "internalType": "uint256",
          "name": "gridIndex",
          "type": "uint256"
        },
        {
          "indexed": false,
          "internalType": "uint256",
          "name": "charge",
          "type": "uint256"
        },
        {
          "indexed": false,
          "internalType": "uint256",
          "name": "maxImport",
          "type": "uint256"
        },
        {
          "indexed": false,
          "internalType": "uint256",
          "name": "maxExport",
          "type": "uint256"
        }
      ],
      "name": "addGridData",
      "type": "event"
    },
    {
      "anonymous": false,
      "inputs": [
        {
          "indexed": false,
          "internalType": "uint256",
          "name": "microGridUniqueId",
          "type": "uint256"
        },
        {
          "indexed": false,
          "internalType": "uint256",
          "name": "loadId",
          "type": "uint256"
        },
        {
          "indexed": false,
          "internalType": "uint256",
          "name": "energyRequired",
          "type": "uint256"
        }
      ],
      "name": "addLoadData",
      "type": "event"
    },
    {
      "anonymous": false,
      "inputs": [
        {
          "indexed": false,
          "internalType": "uint256",
          "name": "uniqueId",
          "type": "uint256"
        }
      ],
      "name": "microGridAdded",
      "type": "event"
    },
    {
      "anonymous": false,
      "inputs": [
        {
          "indexed": false,
          "internalType": "string",
          "name": "name",
          "type": "string"
        },
        {
          "components": [
            {
              "internalType": "uint256",
              "name": "uniqueID",
              "type": "uint256"
            },
            {
              "internalType": "uint256",
              "name": "minCapacity",
              "type": "uint256"
            },
            {
              "internalType": "uint256",
              "name": "maxCapacity",
              "type": "uint256"
            },
            {
              "internalType": "uint256",
              "name": "Charge",
              "type": "uint256"
            },
            {
              "internalType": "uint16",
              "name": "maxEfficiency",
              "type": "uint16"
            },
            {
              "internalType": "uint16",
              "name": "initSoc",
              "type": "uint16"
            }
          ],
          "indexed": false,
          "internalType": "struct Microgrid.Battery[]",
          "name": "batteryUsing",
          "type": "tuple[]"
        },
        {
          "components": [
            {
              "internalType": "uint256",
              "name": "loadId",
              "type": "uint256"
            },
            {
              "internalType": "address",
              "name": "userAddress",
              "type": "address"
            },
            {
              "internalType": "uint256",
              "name": "energyRequired",
              "type": "uint256"
            }
          ],
          "indexed": false,
          "internalType": "struct Microgrid.Load[]",
          "name": "loads",
          "type": "tuple[]"
        },
        {
          "components": [
            {
              "internalType": "uint256",
              "name": "uniqueID",
              "type": "uint256"
            },
            {
              "internalType": "uint256",
              "name": "charge",
              "type": "uint256"
            },
            {
              "internalType": "uint256",
              "name": "energyProduction",
              "type": "uint256"
            }
          ],
          "indexed": false,
          "internalType": "struct Microgrid.GreenEnergy[]",
          "name": "greenEnergies",
          "type": "tuple[]"
        },
        {
          "components": [
            {
              "internalType": "uint256",
              "name": "uniqueID",
              "type": "uint256"
            },
            {
              "internalType": "uint256",
              "name": "charge",
              "type": "uint256"
            },
            {
              "internalType": "uint256",
              "name": "maxImport",
              "type": "uint256"
            },
            {
              "internalType": "uint256",
              "name": "maxExport",
              "type": "uint256"
            }
          ],
          "indexed": false,
          "internalType": "struct Microgrid.Grid[]",
          "name": "powerGrid",
          "type": "tuple[]"
        }
      ],
      "name": "microgridDetails",
      "type": "event"
    },
    {
      "inputs": [
        {
          "internalType": "address",
          "name": "",
          "type": "address"
        }
      ],
      "name": "address_Consumer",
      "outputs": [
        {
          "internalType": "string",
          "name": "name",
          "type": "string"
        },
        {
          "internalType": "string",
          "name": "micrometerid",
          "type": "string"
        },
        {
          "internalType": "uint256",
          "name": "energyBalance",
          "type": "uint256"
        },
        {
          "internalType": "uint256",
          "name": "wallet",
          "type": "uint256"
        }
      ],
      "stateMutability": "view",
      "type": "function",
      "constant": true
    },
    {
      "inputs": [
        {
          "internalType": "address",
          "name": "",
          "type": "address"
        }
      ],
      "name": "address_Producer",
      "outputs": [
        {
          "internalType": "string",
          "name": "name",
          "type": "string"
        },
        {
          "internalType": "uint256",
          "name": "uniqueID",
          "type": "uint256"
        },
        {
          "internalType": "bool",
          "name": "isProducer",
          "type": "bool"
        }
      ],
      "stateMutability": "view",
      "type": "function",
      "constant": true
    },
    {
      "inputs": [
        {
          "internalType": "address",
          "name": "",
          "type": "address"
        }
      ],
      "name": "address_Prosumer",
      "outputs": [
        {
          "internalType": "string",
          "name": "name",
          "type": "string"
        },
        {
          "internalType": "uint256",
          "name": "uinqueID",
          "type": "uint256"
        },
        {
          "internalType": "bool",
          "name": "isProsumer",
          "type": "bool"
        }
      ],
      "stateMutability": "view",
      "type": "function",
      "constant": true
    },
    {
      "inputs": [],
      "name": "microGridId",
      "outputs": [
        {
          "internalType": "uint256",
          "name": "",
          "type": "uint256"
        }
      ],
      "stateMutability": "view",
      "type": "function",
      "constant": true
    },
    {
      "inputs": [
        {
          "internalType": "uint256",
          "name": "",
          "type": "uint256"
        }
      ],
      "name": "microGrids",
      "outputs": [
        {
          "internalType": "string",
          "name": "microGridName",
          "type": "string"
        },
        {
          "internalType": "uint256",
          "name": "uniqueId",
          "type": "uint256"
        }
      ],
      "stateMutability": "view",
      "type": "function",
      "constant": true
    },
    {
      "inputs": [],
      "name": "perUnit",
      "outputs": [
        {
          "internalType": "uint256",
          "name": "",
          "type": "uint256"
        }
      ],
      "stateMutability": "view",
      "type": "function",
      "constant": true
    },
    {
      "inputs": [
        {
          "internalType": "uint256",
          "name": "",
          "type": "uint256"
        }
      ],
      "name": "transactions",
      "outputs": [
        {
          "internalType": "address",
          "name": "from",
          "type": "address"
        },
        {
          "internalType": "address",
          "name": "to",
          "type": "address"
        },
        {
          "internalType": "uint256",
          "name": "amount",
          "type": "uint256"
        },
        {
          "internalType": "uint256",
          "name": "timestamp",
          "type": "uint256"
        }
      ],
      "stateMutability": "view",
      "type": "function",
      "constant": true
    },
    {
      "inputs": [
        {
          "internalType": "string",
          "name": "name",
          "type": "string"
        }
      ],
      "name": "createMicroGrid",
      "outputs": [],
      "stateMutability": "nonpayable",
      "type": "function"
    },
    {
      "inputs": [
        {
          "internalType": "uint256",
          "name": "id",
          "type": "uint256"
        }
      ],
      "name": "viewMicrogridDetails",
      "outputs": [],
      "stateMutability": "nonpayable",
      "type": "function"
    },
    {
      "inputs": [
        {
          "internalType": "uint256",
          "name": "uniqueId",
          "type": "uint256"
        },
        {
          "internalType": "uint256",
          "name": "minCapacity",
          "type": "uint256"
        },
        {
          "internalType": "uint256",
          "name": "maxCapacity",
          "type": "uint256"
        },
        {
          "internalType": "uint256",
          "name": "Charge",
          "type": "uint256"
        },
        {
          "internalType": "uint16",
          "name": "maxEfficiency",
          "type": "uint16"
        },
        {
          "internalType": "uint16",
          "name": "initSoc",
          "type": "uint16"
        }
      ],
      "name": "addBattery",
      "outputs": [],
      "stateMutability": "nonpayable",
      "type": "function"
    },
    {
      "inputs": [
        {
          "internalType": "address",
          "name": "userAddress",
          "type": "address"
        },
        {
          "internalType": "uint256",
          "name": "energyRequired",
          "type": "uint256"
        },
        {
          "internalType": "uint256",
          "name": "uniqueId",
          "type": "uint256"
        }
      ],
      "name": "addLoad",
      "outputs": [],
      "stateMutability": "nonpayable",
      "type": "function"
    },
    {
      "inputs": [
        {
          "internalType": "uint256",
          "name": "uniqueId",
          "type": "uint256"
        },
        {
          "internalType": "uint256",
          "name": "charge",
          "type": "uint256"
        },
        {
          "internalType": "uint256",
          "name": "energyProduction",
          "type": "uint256"
        }
      ],
      "name": "addGreenEnergy",
      "outputs": [],
      "stateMutability": "nonpayable",
      "type": "function"
    },
    {
      "inputs": [
        {
          "internalType": "uint256",
          "name": "uniqueId",
          "type": "uint256"
        },
        {
          "internalType": "uint256",
          "name": "charge",
          "type": "uint256"
        },
        {
          "internalType": "uint256",
          "name": "maxImport",
          "type": "uint256"
        },
        {
          "internalType": "uint256",
          "name": "maxExport",
          "type": "uint256"
        }
      ],
      "name": "addPowerGrid",
      "outputs": [],
      "stateMutability": "nonpayable",
      "type": "function"
    },
    {
      "inputs": [
        {
          "internalType": "string",
          "name": "name",
          "type": "string"
        },
        {
          "internalType": "uint256",
          "name": "uniqueID",
          "type": "uint256"
        }
      ],
      "name": "addProducer",
      "outputs": [],
      "stateMutability": "nonpayable",
      "type": "function"
    },
    {
      "inputs": [
        {
          "internalType": "string",
          "name": "name",
          "type": "string"
        },
        {
          "internalType": "uint256",
          "name": "uniqueID",
          "type": "uint256"
        }
      ],
      "name": "addProsumer",
      "outputs": [],
      "stateMutability": "nonpayable",
      "type": "function"
    },
    {
      "inputs": [
        {
          "internalType": "uint256",
          "name": "uniqueId",
          "type": "uint256"
        },
        {
          "internalType": "address",
          "name": "producer",
          "type": "address"
        }
      ],
      "name": "addProducerToMicroGrid",
      "outputs": [],
      "stateMutability": "nonpayable",
      "type": "function"
    },
    {
      "inputs": [
        {
          "internalType": "uint256",
          "name": "uniqueId",
          "type": "uint256"
        },
        {
          "internalType": "address",
          "name": "producer",
          "type": "address"
        }
      ],
      "name": "addConsumerToMicroGrid",
      "outputs": [],
      "stateMutability": "nonpayable",
      "type": "function"
    },
    {
      "inputs": [
        {
          "internalType": "uint256",
          "name": "uniqueId",
          "type": "uint256"
        },
        {
          "internalType": "address",
          "name": "prosumer",
          "type": "address"
        }
      ],
      "name": "addProsumerToMicroGrid",
      "outputs": [],
      "stateMutability": "nonpayable",
      "type": "function"
    },
    {
      "inputs": [
        {
          "internalType": "uint256",
          "name": "uniqueId",
          "type": "uint256"
        }
      ],
      "name": "showAllProducers",
      "outputs": [
        {
          "internalType": "address[]",
          "name": "",
          "type": "address[]"
        }
      ],
      "stateMutability": "view",
      "type": "function",
      "constant": true
    },
    {
      "inputs": [
        {
          "internalType": "uint256",
          "name": "uniqueId",
          "type": "uint256"
        }
      ],
      "name": "showAllProsumer",
      "outputs": [
        {
          "internalType": "address[]",
          "name": "",
          "type": "address[]"
        }
      ],
      "stateMutability": "view",
      "type": "function",
      "constant": true
    },
    {
      "inputs": [
        {
          "internalType": "string",
          "name": "name",
          "type": "string"
        },
        {
          "internalType": "string",
          "name": "micrometerid",
          "type": "string"
        },
        {
          "internalType": "uint256",
          "name": "energyBalance",
          "type": "uint256"
        }
      ],
      "name": "addConsumer",
      "outputs": [],
      "stateMutability": "nonpayable",
      "type": "function"
    },
    {
      "inputs": [
        {
          "internalType": "address payable",
          "name": "producer",
          "type": "address"
        }
      ],
      "name": "purchaseEnergy_to_Producer",
      "outputs": [],
      "stateMutability": "payable",
      "type": "function",
      "payable": true
    },
    {
      "inputs": [
        {
          "internalType": "address payable",
          "name": "prosumerAddress",
          "type": "address"
        },
        {
          "internalType": "address payable",
          "name": "producerAddress",
          "type": "address"
        }
      ],
      "name": "purchaseEnergy_to_Prosumer",
      "outputs": [],
      "stateMutability": "payable",
      "type": "function",
      "payable": true
    },
    {
      "inputs": [
        {
          "internalType": "address",
          "name": "_from",
          "type": "address"
        },
        {
          "internalType": "address",
          "name": "_to",
          "type": "address"
        },
        {
          "internalType": "uint256",
          "name": "_amount",
          "type": "uint256"
        }
      ],
      "name": "addTransaction",
      "outputs": [],
      "stateMutability": "nonpayable",
      "type": "function"
    },
    {
      "inputs": [],
      "name": "getTransactionCount",
      "outputs": [
        {
          "internalType": "uint256",
          "name": "",
          "type": "uint256"
        }
      ],
      "stateMutability": "view",
      "type": "function",
      "constant": true
    },
    {
      "inputs": [
        {
          "internalType": "uint256",
          "name": "index",
          "type": "uint256"
        }
      ],
      "name": "getTransaction",
      "outputs": [
        {
          "internalType": "address",
          "name": "from",
          "type": "address"
        },
        {
          "internalType": "address",
          "name": "to",
          "type": "address"
        },
        {
          "internalType": "uint256",
          "name": "amount",
          "type": "uint256"
        },
        {
          "internalType": "uint256",
          "name": "timestamp",
          "type": "uint256"
        }
      ],
      "stateMutability": "view",
      "type": "function",
      "constant": true
    },
    {
      "inputs": [],
      "name": "consumerData",
      "outputs": [
        {
          "internalType": "string",
          "name": "",
          "type": "string"
        }
      ],
      "stateMutability": "view",
      "type": "function",
      "constant": true
    },
    {
      "inputs": [],
      "name": "showMicroGridId",
      "outputs": [
        {
          "internalType": "uint256",
          "name": "",
          "type": "uint256"
        }
      ],
      "stateMutability": "view",
      "type": "function",
      "constant": true
    }
  ],
  "bytecode": "0x6080604052660f66538f515400600055600060015534801561002057600080fd5b50613a05806100306000396000f3fe6080604052600436106101b65760003560e01c80635b5fcf40116100ec578063c86695441161008a578063db0dcf9911610064578063db0dcf991461062f578063e1cf9a2714610658578063e7054bcd14610681578063fe73b27f146106ac576101b6565b8063c86695441461059b578063cabb6078146105db578063d5f348b014610604576101b6565b80638d662daf116100c65780638d662daf146104e0578063929b67f5146105095780639ace38c214610532578063c0eef43a14610572576101b6565b80635b5fcf401461044f5780637e3504e014610478578063865d3ed0146104b7576101b6565b80632e41c1c21161015957806333ea3dc81161013357806333ea3dc81461037e5780634eb40676146103be5780634f9ccc0c146103e75780635b07ee1b14610426576101b6565b80632e41c1c2146102eb5780632e7700f01461031657806331d9c4cc14610341576101b6565b8063173017fb11610195578063173017fb1461022957806319f336421461025457806320d7596c1461029257806324e10595146102cf576101b6565b806297ae3d146101bb57806303ffcbaa146101d757806307e9eb6c14610200575b600080fd5b6101d560048036038101906101d09190612320565b6106d5565b005b3480156101e357600080fd5b506101fe60048036038101906101f99190612396565b610949565b005b34801561020c57600080fd5b506102276004803603810190610222919061243b565b610ac1565b005b34801561023557600080fd5b5061023e610bcb565b60405161024b919061248a565b60405180910390f35b34801561026057600080fd5b5061027b600480360381019061027691906124a5565b610bd1565b60405161028992919061256b565b60405180910390f35b34801561029e57600080fd5b506102b960048036038101906102b491906124a5565b610c7d565b6040516102c69190612659565b60405180910390f35b6102e960048036038101906102e4919061267b565b610d21565b005b3480156102f757600080fd5b50610300610f24565b60405161030d919061248a565b60405180910390f35b34801561032257600080fd5b5061032b610f2e565b604051610338919061248a565b60405180910390f35b34801561034d57600080fd5b50610368600480360381019061036391906124a5565b610f3b565b6040516103759190612659565b60405180910390f35b34801561038a57600080fd5b506103a560048036038101906103a091906124a5565b610fdf565b6040516103b594939291906126b7565b60405180910390f35b3480156103ca57600080fd5b506103e560048036038101906103e09190612831565b6110b6565b005b3480156103f357600080fd5b5061040e6004803603810190610409919061288d565b611167565b60405161041d939291906128d5565b60405180910390f35b34801561043257600080fd5b5061044d600480360381019061044891906124a5565b611226565b005b34801561045b57600080fd5b506104766004803603810190610471919061243b565b611325565b005b34801561048457600080fd5b5061049f600480360381019061049a919061288d565b61142f565b6040516104ae939291906128d5565b60405180910390f35b3480156104c357600080fd5b506104de60048036038101906104d99190612913565b6114ee565b005b3480156104ec57600080fd5b5061050760048036038101906105029190612966565b611653565b005b34801561051557600080fd5b50610530600480360381019061052b9190612a2b565b61173f565b005b34801561053e57600080fd5b50610559600480360381019061055491906124a5565b611917565b60405161056994939291906126b7565b60405180910390f35b34801561057e57600080fd5b506105996004803603810190610594919061243b565b611997565b005b3480156105a757600080fd5b506105c260048036038101906105bd919061288d565b611a12565b6040516105d29493929190612ab8565b60405180910390f35b3480156105e757600080fd5b5061060260048036038101906105fd9190612831565b611b52565b005b34801561061057600080fd5b50610619611c03565b604051610626919061248a565b60405180910390f35b34801561063b57600080fd5b5061065660048036038101906106519190612b0b565b611c09565b005b34801561066457600080fd5b5061067f600480360381019061067a9190612b5e565b611dc5565b005b34801561068d57600080fd5b50610696611ef0565b6040516106a39190612ba7565b60405180910390f35b3480156106b857600080fd5b506106d360048036038101906106ce9190612bc9565b612083565b005b600360008373ffffffffffffffffffffffffffffffffffffffff1673ffffffffffffffffffffffffffffffffffffffff16815260200190815260200160002060020160009054906101000a900460ff16610764576040517f08c379a000000000000000000000000000000000000000000000000000000000815260040161075b90612c68565b60405180910390fd5b3373ffffffffffffffffffffffffffffffffffffffff16313411156107be576040517f08c379a00000000000000000000000000000000000000000000000000000000081526004016107b590612cd4565b60405180910390fd5b60008054346107cd9190612d52565b905060006064600a346107e09190612d83565b6107ea9190612d52565b90508373ffffffffffffffffffffffffffffffffffffffff166108fc82346108129190612ddd565b9081150290604051600060405180830381858888f1935050505015801561083d573d6000803e3d6000fd5b508273ffffffffffffffffffffffffffffffffffffffff166108fc829081150290604051600060405180830381858888f19350505050158015610884573d6000803e3d6000fd5b5081600460003373ffffffffffffffffffffffffffffffffffffffff1673ffffffffffffffffffffffffffffffffffffffff16815260200190815260200160002060020160008282546108d79190612e11565b925050819055508373ffffffffffffffffffffffffffffffffffffffff163373ffffffffffffffffffffffffffffffffffffffff167f314d9d54f4824ae491ddf2a96075427b4aa537d03004255d1ebaf12ffd29f3d88460405161093b919061248a565b60405180910390a350505050565b60011515600560003373ffffffffffffffffffffffffffffffffffffffff1673ffffffffffffffffffffffffffffffffffffffff16815260200190815260200160002060020160009054906101000a900460ff161515146109df576040517f08c379a00000000000000000000000000000000000000000000000000000000081526004016109d690612ed9565b60405180910390fd5b60006002600086815260200190815260200160002090506000816005018054905090508160050160405180608001604052808381526020018781526020018681526020018581525090806001815401808255809150506001900390600052602060002090600402016000909190919091506000820151816000015560208201518160010155604082015181600201556060820151816003015550507fd69cb5512dc5fe64ac91c72683f3cc6a8e185659af6317f1efddaa6952cc8e2a8682878787604051610ab1959493929190612ef9565b60405180910390a1505050505050565b600360008273ffffffffffffffffffffffffffffffffffffffff1673ffffffffffffffffffffffffffffffffffffffff16815260200190815260200160002060020160009054906101000a900460ff16610b50576040517f08c379a0000000000000000000000000000000000000000000000000000000008152600401610b4790612f98565b60405180910390fd5b60026000838152602001908152602001600020600601819080600181540180825580915050600190039060005260206000200160009091909190916101000a81548173ffffffffffffffffffffffffffffffffffffffff021916908373ffffffffffffffffffffffffffffffffffffffff1602179055505050565b60005481565b6002602052806000526040600020600091509050806000018054610bf490612fe7565b80601f0160208091040260200160405190810160405280929190818152602001828054610c2090612fe7565b8015610c6d5780601f10610c4257610100808354040283529160200191610c6d565b820191906000526020600020905b815481529060010190602001808311610c5057829003601f168201915b5050505050908060010154905082565b606060026000838152602001908152602001600020600601805480602002602001604051908101604052809291908181526020018280548015610d1557602002820191906000526020600020905b8160009054906101000a900473ffffffffffffffffffffffffffffffffffffffff1673ffffffffffffffffffffffffffffffffffffffff1681526020019060010190808311610ccb575b50505050509050919050565b600560008273ffffffffffffffffffffffffffffffffffffffff1673ffffffffffffffffffffffffffffffffffffffff16815260200190815260200160002060020160009054906101000a900460ff16610db0576040517f08c379a0000000000000000000000000000000000000000000000000000000008152600401610da790613065565b60405180910390fd5b3373ffffffffffffffffffffffffffffffffffffffff1631341115610e0a576040517f08c379a0000000000000000000000000000000000000000000000000000000008152600401610e01906130d1565b60405180910390fd5b6000805434610e199190612d52565b90508173ffffffffffffffffffffffffffffffffffffffff166108fc349081150290604051600060405180830381858888f19350505050158015610e61573d6000803e3d6000fd5b5080600460003373ffffffffffffffffffffffffffffffffffffffff1673ffffffffffffffffffffffffffffffffffffffff1681526020019081526020016000206002016000828254610eb49190612e11565b925050819055508173ffffffffffffffffffffffffffffffffffffffff163373ffffffffffffffffffffffffffffffffffffffff167f314d9d54f4824ae491ddf2a96075427b4aa537d03004255d1ebaf12ffd29f3d883604051610f18919061248a565b60405180910390a35050565b6000600154905090565b6000600680549050905090565b606060026000838152602001908152602001600020600801805480602002602001604051908101604052809291908181526020018280548015610fd357602002820191906000526020600020905b8160009054906101000a900473ffffffffffffffffffffffffffffffffffffffff1673ffffffffffffffffffffffffffffffffffffffff1681526020019060010190808311610f89575b50505050509050919050565b600080600080600680549050851061102c576040517f08c379a00000000000000000000000000000000000000000000000000000000081526004016110239061313d565b60405180910390fd5b6000600686815481106110425761104161315d565b5b906000526020600020906004020190508060000160009054906101000a900473ffffffffffffffffffffffffffffffffffffffff168160010160009054906101000a900473ffffffffffffffffffffffffffffffffffffffff16826002015483600301549450945094509450509193509193565b6000604051806060016040528084815260200183815260200160011515815250905080600560003373ffffffffffffffffffffffffffffffffffffffff1673ffffffffffffffffffffffffffffffffffffffff168152602001908152602001600020600082015181600001908051906020019061113492919061220b565b506020820151816001015560408201518160020160006101000a81548160ff021916908315150217905550905050505050565b600360205280600052604060002060009150905080600001805461118a90612fe7565b80601f01602080910402602001604051908101604052809291908181526020018280546111b690612fe7565b80156112035780601f106111d857610100808354040283529160200191611203565b820191906000526020600020905b8154815290600101906020018083116111e657829003601f168201915b5050505050908060010154908060020160009054906101000a900460ff16905083565b60011515600560003373ffffffffffffffffffffffffffffffffffffffff1673ffffffffffffffffffffffffffffffffffffffff16815260200190815260200160002060020160009054906101000a900460ff161515146112bc576040517f08c379a00000000000000000000000000000000000000000000000000000000081526004016112b390612ed9565b60405180910390fd5b60006002600083815260200190815260200160002090507fae63e8166b83be443c3e56e05113576ee313afdbe440d1512f7358530513621081600001826002018360030184600401856005016040516113199594939291906137ca565b60405180910390a15050565b600560008273ffffffffffffffffffffffffffffffffffffffff1673ffffffffffffffffffffffffffffffffffffffff16815260200190815260200160002060020160009054906101000a900460ff166113b4576040517f08c379a00000000000000000000000000000000000000000000000000000000081526004016113ab9061388c565b60405180910390fd5b60026000838152602001908152602001600020600801819080600181540180825580915050600190039060005260206000200160009091909190916101000a81548173ffffffffffffffffffffffffffffffffffffffff021916908373ffffffffffffffffffffffffffffffffffffffff1602179055505050565b600560205280600052604060002060009150905080600001805461145290612fe7565b80601f016020809104026020016040519081016040528092919081815260200182805461147e90612fe7565b80156114cb5780601f106114a0576101008083540402835291602001916114cb565b820191906000526020600020905b8154815290600101906020018083116114ae57829003601f168201915b5050505050908060010154908060020160009054906101000a900460ff16905083565b60011515600560003373ffffffffffffffffffffffffffffffffffffffff1673ffffffffffffffffffffffffffffffffffffffff16815260200190815260200160002060020160009054906101000a900460ff16151514611584576040517f08c379a000000000000000000000000000000000000000000000000000000000815260040161157b90612ed9565b60405180910390fd5b600060026000858152602001908152602001600020905060008160040180549050905081600401604051806060016040528083815260200186815260200185815250908060018154018082558091505060019003906000526020600020906003020160009091909190915060008201518160000155602082015181600101556040820151816002015550507f96f0b5d12777e770770aa7f046001ea09c3ec76a27e6332239c3540b568ef7708582868660405161164494939291906138ac565b60405180910390a15050505050565b6000670de0b6b3a76400003373ffffffffffffffffffffffffffffffffffffffff16316116809190612d52565b90506000604051806080016040528086815260200185815260200184815260200183815250905080600460003373ffffffffffffffffffffffffffffffffffffffff1673ffffffffffffffffffffffffffffffffffffffff168152602001908152602001600020600082015181600001908051906020019061170392919061220b565b50602082015181600101908051906020019061172092919061220b565b5060408201518160020155606082015181600301559050505050505050565b60011515600560003373ffffffffffffffffffffffffffffffffffffffff1673ffffffffffffffffffffffffffffffffffffffff16815260200190815260200160002060020160009054906101000a900460ff161515146117d5576040517f08c379a00000000000000000000000000000000000000000000000000000000081526004016117cc90612ed9565b60405180910390fd5b6000600260008881526020019081526020016000209050600081600201805490509050816002016040518060c001604052808381526020018981526020018881526020018781526020018661ffff1681526020018561ffff1681525090806001815401808255809150506001900390600052602060002090600502016000909190919091506000820151816000015560208201518160010155604082015181600201556060820151816003015560808201518160040160006101000a81548161ffff021916908361ffff16021790555060a08201518160040160026101000a81548161ffff021916908361ffff16021790555050507f7a996c70a429d049c375510397afdd445f2d8df80e1275624b60232bfda9590a888289898989896040516119059796959493929190613900565b60405180910390a15050505050505050565b6006818154811061192757600080fd5b90600052602060002090600402016000915090508060000160009054906101000a900473ffffffffffffffffffffffffffffffffffffffff16908060010160009054906101000a900473ffffffffffffffffffffffffffffffffffffffff16908060020154908060030154905084565b60026000838152602001908152602001600020600701819080600181540180825580915050600190039060005260206000200160009091909190916101000a81548173ffffffffffffffffffffffffffffffffffffffff021916908373ffffffffffffffffffffffffffffffffffffffff1602179055505050565b6004602052806000526040600020600091509050806000018054611a3590612fe7565b80601f0160208091040260200160405190810160405280929190818152602001828054611a6190612fe7565b8015611aae5780601f10611a8357610100808354040283529160200191611aae565b820191906000526020600020905b815481529060010190602001808311611a9157829003601f168201915b505050505090806001018054611ac390612fe7565b80601f0160208091040260200160405190810160405280929190818152602001828054611aef90612fe7565b8015611b3c5780601f10611b1157610100808354040283529160200191611b3c565b820191906000526020600020905b815481529060010190602001808311611b1f57829003601f168201915b5050505050908060020154908060030154905084565b6000604051806060016040528084815260200183815260200160011515815250905080600360003373ffffffffffffffffffffffffffffffffffffffff1673ffffffffffffffffffffffffffffffffffffffff1681526020019081526020016000206000820151816000019080519060200190611bd092919061220b565b506020820151816001015560408201518160020160006101000a81548160ff021916908315150217905550905050505050565b60015481565b60011515600560003373ffffffffffffffffffffffffffffffffffffffff1673ffffffffffffffffffffffffffffffffffffffff16815260200190815260200160002060020160009054906101000a900460ff16151514611c9f576040517f08c379a0000000000000000000000000000000000000000000000000000000008152600401611c9690612ed9565b60405180910390fd5b6000600260008381526020019081526020016000209050600081600301805490509050600060405180606001604052808381526020018773ffffffffffffffffffffffffffffffffffffffff168152602001868152509050826003018190806001815401808255809150506001900390600052602060002090600302016000909190919091506000820151816000015560208201518160010160006101000a81548173ffffffffffffffffffffffffffffffffffffffff021916908373ffffffffffffffffffffffffffffffffffffffff1602179055506040820151816002015550507fefed7b98763026eeab78219b0816974fb4f56818ab8546317f0a2473fe850e27848387604051611db59392919061396f565b60405180910390a1505050505050565b60011515600560003373ffffffffffffffffffffffffffffffffffffffff1673ffffffffffffffffffffffffffffffffffffffff16815260200190815260200160002060020160009054906101000a900460ff16151514611e5b576040517f08c379a0000000000000000000000000000000000000000000000000000000008152600401611e5290612ed9565b60405180910390fd5b6000600260006001548152602001908152602001600020905081816000019080519060200190611e8c92919061220b565b5060015481600101819055506001806000828254611eaa9190612e11565b925050819055507f8a0a41db407a6cb0066cbae19d90b07c19f10e171e35200eb9aff273654effab8160010154604051611ee4919061248a565b60405180910390a15050565b60606000600460003373ffffffffffffffffffffffffffffffffffffffff1673ffffffffffffffffffffffffffffffffffffffff168152602001908152602001600020604051806080016040529081600082018054611f4e90612fe7565b80601f0160208091040260200160405190810160405280929190818152602001828054611f7a90612fe7565b8015611fc75780601f10611f9c57610100808354040283529160200191611fc7565b820191906000526020600020905b815481529060010190602001808311611faa57829003601f168201915b50505050508152602001600182018054611fe090612fe7565b80601f016020809104026020016040519081016040528092919081815260200182805461200c90612fe7565b80156120595780601f1061202e57610100808354040283529160200191612059565b820191906000526020600020905b81548152906001019060200180831161203c57829003601f168201915b50505050508152602001600282015481526020016003820154815250509050806000015191505090565b600660405180608001604052808573ffffffffffffffffffffffffffffffffffffffff1681526020018473ffffffffffffffffffffffffffffffffffffffff16815260200183815260200142815250908060018154018082558091505060019003906000526020600020906004020160009091909190915060008201518160000160006101000a81548173ffffffffffffffffffffffffffffffffffffffff021916908373ffffffffffffffffffffffffffffffffffffffff16021790555060208201518160010160006101000a81548173ffffffffffffffffffffffffffffffffffffffff021916908373ffffffffffffffffffffffffffffffffffffffff160217905550604082015181600201556060820151816003015550508173ffffffffffffffffffffffffffffffffffffffff168373ffffffffffffffffffffffffffffffffffffffff167fccfcbe7d87150baa95519e68f762fa01b73a0b0f1f1f2c649cea60f79053115f83426040516121fe9291906139a6565b60405180910390a3505050565b82805461221790612fe7565b90600052602060002090601f0160209004810192826122395760008555612280565b82601f1061225257805160ff1916838001178555612280565b82800160010185558215612280579182015b8281111561227f578251825591602001919060010190612264565b5b50905061228d9190612291565b5090565b5b808211156122aa576000816000905550600101612292565b5090565b6000604051905090565b600080fd5b600080fd5b600073ffffffffffffffffffffffffffffffffffffffff82169050919050565b60006122ed826122c2565b9050919050565b6122fd816122e2565b811461230857600080fd5b50565b60008135905061231a816122f4565b92915050565b60008060408385031215612337576123366122b8565b5b60006123458582860161230b565b92505060206123568582860161230b565b9150509250929050565b6000819050919050565b61237381612360565b811461237e57600080fd5b50565b6000813590506123908161236a565b92915050565b600080600080608085870312156123b0576123af6122b8565b5b60006123be87828801612381565b94505060206123cf87828801612381565b93505060406123e087828801612381565b92505060606123f187828801612381565b91505092959194509250565b6000612408826122c2565b9050919050565b612418816123fd565b811461242357600080fd5b50565b6000813590506124358161240f565b92915050565b60008060408385031215612452576124516122b8565b5b600061246085828601612381565b925050602061247185828601612426565b9150509250929050565b61248481612360565b82525050565b600060208201905061249f600083018461247b565b92915050565b6000602082840312156124bb576124ba6122b8565b5b60006124c984828501612381565b91505092915050565b600081519050919050565b600082825260208201905092915050565b60005b8381101561250c5780820151818401526020810190506124f1565b8381111561251b576000848401525b50505050565b6000601f19601f8301169050919050565b600061253d826124d2565b61254781856124dd565b93506125578185602086016124ee565b61256081612521565b840191505092915050565b600060408201905081810360008301526125858185612532565b9050612594602083018461247b565b9392505050565b600081519050919050565b600082825260208201905092915050565b6000819050602082019050919050565b6125d0816123fd565b82525050565b60006125e283836125c7565b60208301905092915050565b6000602082019050919050565b60006126068261259b565b61261081856125a6565b935061261b836125b7565b8060005b8381101561264c57815161263388826125d6565b975061263e836125ee565b92505060018101905061261f565b5085935050505092915050565b6000602082019050818103600083015261267381846125fb565b905092915050565b600060208284031215612691576126906122b8565b5b600061269f8482850161230b565b91505092915050565b6126b1816123fd565b82525050565b60006080820190506126cc60008301876126a8565b6126d960208301866126a8565b6126e6604083018561247b565b6126f3606083018461247b565b95945050505050565b600080fd5b600080fd5b7f4e487b7100000000000000000000000000000000000000000000000000000000600052604160045260246000fd5b61273e82612521565b810181811067ffffffffffffffff8211171561275d5761275c612706565b5b80604052505050565b60006127706122ae565b905061277c8282612735565b919050565b600067ffffffffffffffff82111561279c5761279b612706565b5b6127a582612521565b9050602081019050919050565b82818337600083830152505050565b60006127d46127cf84612781565b612766565b9050828152602081018484840111156127f0576127ef612701565b5b6127fb8482856127b2565b509392505050565b600082601f830112612818576128176126fc565b5b81356128288482602086016127c1565b91505092915050565b60008060408385031215612848576128476122b8565b5b600083013567ffffffffffffffff811115612866576128656122bd565b5b61287285828601612803565b925050602061288385828601612381565b9150509250929050565b6000602082840312156128a3576128a26122b8565b5b60006128b184828501612426565b91505092915050565b60008115159050919050565b6128cf816128ba565b82525050565b600060608201905081810360008301526128ef8186612532565b90506128fe602083018561247b565b61290b60408301846128c6565b949350505050565b60008060006060848603121561292c5761292b6122b8565b5b600061293a86828701612381565b935050602061294b86828701612381565b925050604061295c86828701612381565b9150509250925092565b60008060006060848603121561297f5761297e6122b8565b5b600084013567ffffffffffffffff81111561299d5761299c6122bd565b5b6129a986828701612803565b935050602084013567ffffffffffffffff8111156129ca576129c96122bd565b5b6129d686828701612803565b92505060406129e786828701612381565b9150509250925092565b600061ffff82169050919050565b612a08816129f1565b8114612a1357600080fd5b50565b600081359050612a25816129ff565b92915050565b60008060008060008060c08789031215612a4857612a476122b8565b5b6000612a5689828a01612381565b9650506020612a6789828a01612381565b9550506040612a7889828a01612381565b9450506060612a8989828a01612381565b9350506080612a9a89828a01612a16565b92505060a0612aab89828a01612a16565b9150509295509295509295565b60006080820190508181036000830152612ad28187612532565b90508181036020830152612ae68186612532565b9050612af5604083018561247b565b612b02606083018461247b565b95945050505050565b600080600060608486031215612b2457612b236122b8565b5b6000612b3286828701612426565b9350506020612b4386828701612381565b9250506040612b5486828701612381565b9150509250925092565b600060208284031215612b7457612b736122b8565b5b600082013567ffffffffffffffff811115612b9257612b916122bd565b5b612b9e84828501612803565b91505092915050565b60006020820190508181036000830152612bc18184612532565b905092915050565b600080600060608486031215612be257612be16122b8565b5b6000612bf086828701612426565b9350506020612c0186828701612426565b9250506040612c1286828701612381565b9150509250925092565b7f496e76616c69642070726f73756d657220616464726573730000000000000000600082015250565b6000612c526018836124dd565b9150612c5d82612c1c565b602082019050919050565b60006020820190508181036000830152612c8181612c45565b9050919050565b7f496e636f72726563742045746865722076616c756520703638726f7669646564600082015250565b6000612cbe6020836124dd565b9150612cc982612c88565b602082019050919050565b60006020820190508181036000830152612ced81612cb1565b9050919050565b7f4e487b7100000000000000000000000000000000000000000000000000000000600052601260045260246000fd5b7f4e487b7100000000000000000000000000000000000000000000000000000000600052601160045260246000fd5b6000612d5d82612360565b9150612d6883612360565b925082612d7857612d77612cf4565b5b828204905092915050565b6000612d8e82612360565b9150612d9983612360565b9250817fffffffffffffffffffffffffffffffffffffffffffffffffffffffffffffffff0483118215151615612dd257612dd1612d23565b5b828202905092915050565b6000612de882612360565b9150612df383612360565b925082821015612e0657612e05612d23565b5b828203905092915050565b6000612e1c82612360565b9150612e2783612360565b9250827fffffffffffffffffffffffffffffffffffffffffffffffffffffffffffffffff03821115612e5c57612e5b612d23565b5b828201905092915050565b7f4f6e6c792050726f6475636572732063616e206163636573732074686973206660008201527f6561747572652e00000000000000000000000000000000000000000000000000602082015250565b6000612ec36027836124dd565b9150612ece82612e67565b604082019050919050565b60006020820190508181036000830152612ef281612eb6565b9050919050565b600060a082019050612f0e600083018861247b565b612f1b602083018761247b565b612f28604083018661247b565b612f35606083018561247b565b612f42608083018461247b565b9695505050505050565b7f796f7520617265206e6f7420612070726f73756d657200000000000000000000600082015250565b6000612f826016836124dd565b9150612f8d82612f4c565b602082019050919050565b60006020820190508181036000830152612fb181612f75565b9050919050565b7f4e487b7100000000000000000000000000000000000000000000000000000000600052602260045260246000fd5b60006002820490506001821680612fff57607f821691505b6020821081141561301357613012612fb8565b5b50919050565b7f496e76616c69642070726f647563657220616464726573730000000000000000600082015250565b600061304f6018836124dd565b915061305a82613019565b602082019050919050565b6000602082019050818103600083015261307e81613042565b9050919050565b7f496e636f72726563742045746865722076616c75652070726f76696465640000600082015250565b60006130bb601e836124dd565b91506130c682613085565b602082019050919050565b600060208201905081810360008301526130ea816130ae565b9050919050565b7f5472616e73616374696f6e20696e646578206f7574206f6620626f756e647300600082015250565b6000613127601f836124dd565b9150613132826130f1565b602082019050919050565b600060208201905081810360008301526131568161311a565b9050919050565b7f4e487b7100000000000000000000000000000000000000000000000000000000600052603260045260246000fd5b60008190508160005260206000209050919050565b600081546131ae81612fe7565b6131b881866124dd565b945060018216600081146131d357600181146131e557613218565b60ff1983168652602086019350613218565b6131ee8561318c565b60005b83811015613210578154818901526001820191506020810190506131f1565b808801955050505b50505092915050565b600081549050919050565b600082825260208201905092915050565b60008190508160005260206000209050919050565b60008160001c9050919050565b6000819050919050565b600061327c61327783613252565b61325f565b9050919050565b61328c81612360565b82525050565b600061ffff82169050919050565b60006132b36132ae83613252565b613292565b9050919050565b6132c3816129f1565b82525050565b60008160101c9050919050565b60006132e96132e4836132c9565b613292565b9050919050565b60c08201600080830154905061330581613269565b6133126000860182613283565b506001830154905061332381613269565b6133306020860182613283565b506002830154905061334181613269565b61334e6040860182613283565b506003830154905061335f81613269565b61336c6060860182613283565b506004830154905061337d816132a0565b61338a60808601826132ba565b50613394816132d6565b6133a160a08601826132ba565b5050505050565b60006133b483836132f0565b60c08301905092915050565b6000600582019050919050565b60006133d882613221565b6133e2818561322c565b93506133ed8361323d565b8060005b8381101561341d578161340488826133a8565b975061340f836133c0565b9250506001810190506133f1565b5085935050505092915050565b600081549050919050565b600082825260208201905092915050565b60008190508160005260206000209050919050565b600073ffffffffffffffffffffffffffffffffffffffff82169050919050565b600061348e61348983613252565b61345b565b9050919050565b6060820160008083015490506134aa81613269565b6134b76000860182613283565b50600183015490506134c88161347b565b6134d560208601826125c7565b50600283015490506134e681613269565b6134f36040860182613283565b5050505050565b60006135068383613495565b60608301905092915050565b6000600382019050919050565b600061352a8261342a565b6135348185613435565b935061353f83613446565b8060005b8381101561356f578161355688826134fa565b975061356183613512565b925050600181019050613543565b5085935050505092915050565b600081549050919050565b600082825260208201905092915050565b60008190508160005260206000209050919050565b6060820160008083015490506135c281613269565b6135cf6000860182613283565b50600183015490506135e081613269565b6135ed6020860182613283565b50600283015490506135fe81613269565b61360b6040860182613283565b5050505050565b600061361e83836135ad565b60608301905092915050565b6000600382019050919050565b60006136428261357c565b61364c8185613587565b935061365783613598565b8060005b83811015613687578161366e8882613612565b97506136798361362a565b92505060018101905061365b565b5085935050505092915050565b600081549050919050565b600082825260208201905092915050565b60008190508160005260206000209050919050565b6080820160008083015490506136da81613269565b6136e76000860182613283565b50600183015490506136f881613269565b6137056020860182613283565b506002830154905061371681613269565b6137236040860182613283565b506003830154905061373481613269565b6137416060860182613283565b5050505050565b600061375483836136c5565b60808301905092915050565b6000600482019050919050565b600061377882613694565b613782818561369f565b935061378d836136b0565b8060005b838110156137bd57816137a48882613748565b97506137af83613760565b925050600181019050613791565b5085935050505092915050565b600060a08201905081810360008301526137e481886131a1565b905081810360208301526137f881876133cd565b9050818103604083015261380c818661351f565b905081810360608301526138208185613637565b90508181036080830152613834818461376d565b90509695505050505050565b7f796f7520617265206e6f7420612070726f647563657200000000000000000000600082015250565b60006138766016836124dd565b915061388182613840565b602082019050919050565b600060208201905081810360008301526138a581613869565b9050919050565b60006080820190506138c1600083018761247b565b6138ce602083018661247b565b6138db604083018561247b565b6138e8606083018461247b565b95945050505050565b6138fa816129f1565b82525050565b600060e082019050613915600083018a61247b565b613922602083018961247b565b61392f604083018861247b565b61393c606083018761247b565b613949608083018661247b565b61395660a08301856138f1565b61396360c08301846138f1565b98975050505050505050565b6000606082019050613984600083018661247b565b613991602083018561247b565b61399e604083018461247b565b949350505050565b60006040820190506139bb600083018561247b565b6139c8602083018461247b565b939250505056fea2646970667358221220461748134c0abd721a6b81a39900becb59a5101296a9d6cb6e5a480abeedb78764736f6c634300080b0033",
  "immutableReferences": {},
  "source": "// SPDX-License-Identifier: MIT\r\npragma solidity ^0.8.0;\r\n\r\ncontract Microgrid {\r\n    uint256 public perUnit = 4334633723450368;\r\n    uint public microGridId = 0;\r\n\r\n    struct Prosumer {\r\n        string name;\r\n        // uint wallet1;\r\n        // uint energyBalance;\r\n        uint uinqueID;\r\n        bool isProsumer;\r\n        \r\n    }\r\n\r\n    struct Consumer{\r\n        string name;\r\n        string micrometerid;\r\n        uint energyBalance;\r\n        uint wallet;\r\n\r\n    }\r\n\r\n    struct Producer{\r\n        string name;\r\n        uint uniqueID;\r\n        bool isProducer;\r\n    }\r\n\r\n    struct Battery {\r\n        uint uniqueID;\r\n        uint minCapacity;\r\n        uint maxCapacity;\r\n        uint Charge;\r\n        uint16 maxEfficiency;\r\n        uint16 initSoc;\r\n    }\r\n\r\n    struct Load {\r\n        uint loadId;\r\n        address userAddress;\r\n        uint energyRequired;\r\n    }\r\n\r\n    struct GreenEnergy {\r\n        uint uniqueID;\r\n        uint charge;\r\n        uint energyProduction;\r\n    }\r\n\r\n    struct Grid {\r\n        uint uniqueID;\r\n        uint charge;\r\n        uint maxImport;\r\n        uint maxExport;\r\n    }\r\n    struct Transaction {\r\n        address from;\r\n        address to;\r\n        uint256 amount;\r\n        uint256 timestamp;\r\n    }\r\n\r\n\r\n    struct MicroGrid {\r\n        string microGridName;\r\n        uint uniqueId;\r\n        Battery[] batteryUsing;\r\n        Load[] loads;\r\n        GreenEnergy[] greenEnergies;\r\n        Grid[] powerGrid;\r\n        address[] Prosumers;\r\n        address[] Consumers;\r\n        address[] Producers;\r\n    }\r\n\r\n    mapping(uint => MicroGrid) public microGrids;\r\n    mapping(address => Prosumer) public address_Prosumer;\r\n    mapping(address => Consumer) public address_Consumer;\r\n    mapping(address => Producer) public address_Producer;\r\n\r\n    event microgridDetails(string name, Battery[] batteryUsing, Load[] loads, GreenEnergy[] greenEnergies, Grid[] powerGrid);\r\n    event EnergyTransferred(address indexed from, address indexed to, uint256 transferAmount);\r\n    event microGridAdded(uint uniqueId);\r\n    event addLoadData(uint microGridUniqueId,uint loadId,uint energyRequired);\r\n    event addBatteryData(uint microGridUniqueId,uint batteryIndex,uint minCapacity,uint maxCapacity,uint Charge,uint16 maxEfficiency,uint16 initSoc);\r\n    event addGreenEnergyData(uint microGridUniqueId,uint GEId,uint charge,uint energyProduction);\r\n    event addGridData(uint microGridUniqueId,uint gridIndex,uint charge,uint maxImport,uint maxExport);\r\n\r\n\r\n\r\n    function createMicroGrid(string memory name) public {\r\n        require (address_Producer[msg.sender].isProducer == true, \"Only Producers can access this feature.\");\r\n        MicroGrid storage tempMicroGrid = microGrids[microGridId];\r\n        tempMicroGrid.microGridName = name;\r\n        tempMicroGrid.uniqueId = microGridId;\r\n        microGridId += 1;\r\n        emit microGridAdded(tempMicroGrid.uniqueId);\r\n    }\r\n\r\n    function viewMicrogridDetails(uint id) public {\r\n        require (address_Producer[msg.sender].isProducer == true, \"Only Producers can access this feature.\");\r\n        MicroGrid storage temp = microGrids[id];\r\n        emit microgridDetails(temp.microGridName, temp.batteryUsing, temp.loads, temp.greenEnergies, temp.powerGrid);\r\n    }\r\n\r\n    function addBattery(\r\n        uint uniqueId,\r\n        uint minCapacity,\r\n        uint maxCapacity,\r\n        uint Charge,\r\n        uint16 maxEfficiency,\r\n        uint16 initSoc\r\n    ) public {\r\n        require (address_Producer[msg.sender].isProducer == true, \"Only Producers can access this feature.\");\r\n        MicroGrid storage tempMicroGrid = microGrids[uniqueId];\r\n        uint batteryId = tempMicroGrid.batteryUsing.length;\r\n        tempMicroGrid.batteryUsing.push(Battery(batteryId,minCapacity, maxCapacity, Charge, maxEfficiency, initSoc));\r\n        emit addBatteryData(uniqueId, batteryId, minCapacity,maxCapacity, Charge, maxEfficiency, initSoc);\r\n}\r\n\r\n    function addLoad(address userAddress, uint energyRequired, uint uniqueId) public {\r\n        require (address_Producer[msg.sender].isProducer == true, \"Only Producers can access this feature.\");\r\n        MicroGrid storage tempMicroGrid = microGrids[uniqueId];\r\n        uint loadId = tempMicroGrid.loads.length;\r\n        Load memory loadItem = Load(loadId, userAddress, energyRequired);\r\n        tempMicroGrid.loads.push(loadItem);\r\n        emit addLoadData(uniqueId,loadId,energyRequired);\r\n    }\r\n\r\n    function addGreenEnergy(uint uniqueId,uint charge,uint energyProduction) public {\r\n        require (address_Producer[msg.sender].isProducer == true, \"Only Producers can access this feature.\");\r\n        MicroGrid storage tempMicroGrid = microGrids[uniqueId];\r\n        uint greenEnergyId = tempMicroGrid.greenEnergies.length;\r\n        tempMicroGrid.greenEnergies.push(GreenEnergy(greenEnergyId,charge,energyProduction));\r\n        emit addGreenEnergyData(uniqueId,greenEnergyId,charge, energyProduction);\r\n    }\r\n\r\n    function addPowerGrid( uint uniqueId,uint charge,uint maxImport, uint maxExport) public {\r\n        require (address_Producer[msg.sender].isProducer == true, \"Only Producers can access this feature.\");\r\n        MicroGrid storage tempMicroGrid = microGrids[uniqueId];\r\n        uint gridId = tempMicroGrid.powerGrid.length;\r\n        tempMicroGrid.powerGrid.push(Grid(gridId, charge,maxImport, maxExport));\r\n        emit addGridData(uniqueId,gridId,charge,maxImport,maxExport);\r\n    }\r\n\r\n    function addProducer(string memory name, uint uniqueID) public {\r\n        Producer memory producer = Producer(name, uniqueID, true);\r\n        address_Producer[msg.sender] = producer;\r\n    }\r\n    function addProsumer(string memory name, uint uniqueID) public {\r\n        Prosumer memory prosumer = Prosumer(name,uniqueID, true);\r\n        address_Prosumer[msg.sender] = prosumer;\r\n    }\r\n    function addProducerToMicroGrid( uint uniqueId,address producer)public {\r\n        require(address_Producer[producer].isProducer,\"you are not a producer\");\r\n        microGrids[uniqueId].Producers.push(producer);\r\n    }\r\n    function addConsumerToMicroGrid( uint uniqueId,address producer)public {\r\n        // require(address_Producer[msg.sender].isProducer,\"you are not a producer\");\r\n        microGrids[uniqueId].Consumers.push(producer);\r\n    }\r\n    function addProsumerToMicroGrid(uint uniqueId,address prosumer)public {\r\n        require(address_Prosumer[prosumer].isProsumer,\"you are not a prosumer\");\r\n        microGrids[uniqueId].Prosumers.push(prosumer);\r\n    }\r\n    function showAllProducers(uint uniqueId) public view returns (address[] memory) {\r\n        return microGrids[uniqueId].Producers;\r\n    }\r\n    \r\n    function showAllProsumer(uint uniqueId) public view returns (address[] memory) {\r\n        return microGrids[uniqueId].Prosumers;\r\n    }\r\n    \r\n    function addConsumer(string memory name,string memory micrometerid, uint energyBalance) public {\r\n        uint wallet=msg.sender.balance/1 ether;\r\n        Consumer memory consumer = Consumer(name,micrometerid, energyBalance,wallet);\r\n        address_Consumer[msg.sender] = consumer;\r\n    }\r\n\r\n    // Function to purchase energy  consumer -> prosumer\r\n\r\n\r\n\r\n    function purchaseEnergy_to_Producer(address payable producer) public payable  {\r\n        require(address_Producer[producer].isProducer, \"Invalid producer address\");\r\n        require(msg.value <=msg.sender.balance, \"Incorrect Ether value provided\");\r\n\r\n        uint energyUnits = msg.value/perUnit;\r\n        producer.transfer(msg.value);\r\n        address_Consumer[msg.sender].energyBalance += energyUnits;\r\n        emit EnergyTransferred(msg.sender, producer, energyUnits);\r\n\r\n    }\r\n\r\n    function purchaseEnergy_to_Prosumer(address payable prosumerAddress, address payable producerAddress) public payable  {\r\n    require(address_Prosumer[prosumerAddress].isProsumer, \"Invalid prosumer address\");\r\n    require(msg.value <= msg.sender.balance, \"Incorrect Ether value p68rovided\");\r\n\r\n\r\n    uint energyUnits = msg.value / perUnit;\r\n    uint producerShare = (msg.value * 10) / 100;\r\n\r\n    prosumerAddress.transfer(msg.value - producerShare);\r\n    producerAddress.transfer(producerShare);\r\n\r\n    address_Consumer[msg.sender].energyBalance += energyUnits;\r\n\r\n    emit EnergyTransferred(msg.sender, prosumerAddress, energyUnits);\r\n    // emit ProducerShareTransferred(msg.sender, producerAddress, producerShare);\r\n}\r\n\r\n\r\n\r\n\r\n\r\n    // function Prosumer_to_Producer(address payable producer) public payable {\r\n    //     require(address_producer[producer].isProducer,\"Invalid producer address\");\r\n    //     require(address_Prosumer[msg.sender],\"Invalid producer address\");\r\n    //     uint256 To_be_paid =0;\r\n\r\n\r\n\r\n    // }\r\n\r\n\r\n\r\n    // // Function to sell excess energy,  prosumer -> consumer\r\n    // function sellEnergy(uint transferAmount) public {\r\n    //     require(address_Prosumer[msg.sender].energyBalance >= transferAmount, \"Insufficient energy balance\");\r\n    //     Prosumer storage prosumer = address_Prosumer[msg.sender];\r\n    //     prosumer.energyBalance -= transferAmount;\r\n    //     prosumer.wallet1 += transferAmount * perUnit;\r\n\r\n    //     // Emit an event to record the energy sale\r\n    //     emit EnergyTransferred(msg.sender, address(this), transferAmount * perUnit);\r\n    // }\r\n\r\n    // Function to transfer energy from one user to another\r\n    // function transferEnergy(address to, uint transferAmount) public {\r\n    //     require(address_Prosumer[msg.sender].energyBalance >= transferAmount, \"Not enough energy to transfer\");\r\n\r\n    //     Prosumer storage senderDetails = address_Prosumer[msg.sender];\r\n    //     Prosumer storage receiverDetails = address_Prosumer[to];\r\n\r\n    //     senderDetails.energyBalance -= transferAmount;\r\n    //     receiverDetails.energyBalance += transferAmount;\r\n\r\n    //     // Emit an event to record the energy transfer\r\n    //     emit EnergyTransferred(msg.sender, to, transferAmount);\r\n    // }\r\n\r\n \r\n    Transaction[] public transactions; \r\n\r\n    event TransactionAdded(address indexed from, address indexed to, uint256 amount, uint256 timestamp);\r\n\r\n    function addTransaction(address _from, address _to, uint256 _amount) public {\r\n        transactions.push(Transaction({\r\n            from: _from,\r\n            to: _to,\r\n            amount: _amount,\r\n            timestamp: block.timestamp\r\n        }));\r\n\r\n        emit TransactionAdded(_from, _to, _amount, block.timestamp);\r\n    }\r\n\r\n    function getTransactionCount() public view returns (uint256) {\r\n        return transactions.length;\r\n    }\r\n\r\n    function getTransaction(uint256 index) public view returns (address from, address to, uint256 amount, uint256 timestamp) {\r\n        require(index < transactions.length, \"Transaction index out of bounds\");\r\n        Transaction storage transaction = transactions[index];\r\n        return (transaction.from, transaction.to, transaction.amount, transaction.timestamp);\r\n    }\r\n\r\n// function batteryData() public view returns (uint) {\r\n//     MicroGrid storage tempMicroGrid = microGrids[0];\r\n    \r\n//     require(tempMicroGrid.batteryUsing.length > 0, \"No batteries in Microgrid 0\");\r\n//     require(tempMicroGrid.batteryUsing.length > 0, \"No battery found at index 0\");\r\n\r\n//     Battery storage battery = tempMicroGrid.batteryUsing[0];\r\n//     return battery.Charge;\r\n// }\r\nfunction consumerData()public view returns (string memory){\r\n    Consumer memory data = address_Consumer[msg.sender];\r\n    return data.name;\r\n}\r\n\r\nfunction showMicroGridId() public view returns(uint){\r\n    return microGridId ;\r\n}\r\n\r\n\r\n\r\n}",
  "sourcePath": "C:\\Users\\Sai Sharan\\OneDrive\\Desktop\\nani\\project1\\blockChain\\contracts\\Microgrid.sol",
  "compiler": {
    "name": "solc",
    "version": "0.8.11+commit.d7f03943.Emscripten.clang"
  },
  "schemaVersion": "3.4.4",
  "updatedAt": "2024-01-25T10:28:32.911Z",
  "networkType": "ethereum",
  "devdoc": {
    "kind": "dev",
    "methods": {},
    "version": 1
  },
  "userdoc": {
    "kind": "user",
    "methods": {},
    "version": 1
  }
}