{
  "contractName": "Microgrid",
  "abi": [
    {
      "anonymous": false,
      "inputs": [
        {
          "indexed": true,
          "internalType": "address",
          "name": "from",
          "type": "address"
        },
        {
          "indexed": true,
          "internalType": "address",
          "name": "to",
          "type": "address"
        },
        {
          "indexed": false,
          "internalType": "uint256",
          "name": "transferAmount",
          "type": "uint256"
        }
      ],
      "name": "EnergyTransferred",
      "type": "event"
    },
    {
      "anonymous": false,
      "inputs": [
        {
          "indexed": true,
          "internalType": "address",
          "name": "from",
          "type": "address"
        },
        {
          "indexed": true,
          "internalType": "address",
          "name": "to",
          "type": "address"
        },
        {
          "indexed": false,
          "internalType": "uint256",
          "name": "amount",
          "type": "uint256"
        },
        {
          "indexed": false,
          "internalType": "uint256",
          "name": "timestamp",
          "type": "uint256"
        }
      ],
      "name": "TransactionAdded",
      "type": "event"
    },
    {
      "anonymous": false,
      "inputs": [
        {
          "indexed": false,
          "internalType": "uint256",
          "name": "microGridUniqueId",
          "type": "uint256"
        },
        {
          "indexed": false,
          "internalType": "uint256",
          "name": "batteryIndex",
          "type": "uint256"
        },
        {
          "indexed": false,
          "internalType": "uint256",
          "name": "minCapacity",
          "type": "uint256"
        },
        {
          "indexed": false,
          "internalType": "uint256",
          "name": "maxCapacity",
          "type": "uint256"
        },
        {
          "indexed": false,
          "internalType": "uint256",
          "name": "maxCharge",
          "type": "uint256"
        },
        {
          "indexed": false,
          "internalType": "uint16",
          "name": "maxEfficiency",
          "type": "uint16"
        },
        {
          "indexed": false,
          "internalType": "uint16",
          "name": "initSoc",
          "type": "uint16"
        }
      ],
      "name": "addBatteryData",
      "type": "event"
    },
    {
      "anonymous": false,
      "inputs": [
        {
          "indexed": false,
          "internalType": "uint256",
          "name": "microGridUniqueId",
          "type": "uint256"
        },
        {
          "indexed": false,
          "internalType": "uint256",
          "name": "GEId",
          "type": "uint256"
        },
        {
          "indexed": false,
          "internalType": "uint256",
          "name": "energyProduction",
          "type": "uint256"
        }
      ],
      "name": "addGreenEnergyData",
      "type": "event"
    },
    {
      "anonymous": false,
      "inputs": [
        {
          "indexed": false,
          "internalType": "uint256",
          "name": "microGridUniqueId",
          "type": "uint256"
        },
        {
          "indexed": false,
          "internalType": "uint256",
          "name": "gridIndex",
          "type": "uint256"
        },
        {
          "indexed": false,
          "internalType": "uint256",
          "name": "maxImport",
          "type": "uint256"
        },
        {
          "indexed": false,
          "internalType": "uint256",
          "name": "maxExport",
          "type": "uint256"
        }
      ],
      "name": "addGridData",
      "type": "event"
    },
    {
      "anonymous": false,
      "inputs": [
        {
          "indexed": false,
          "internalType": "uint256",
          "name": "microGridUniqueId",
          "type": "uint256"
        },
        {
          "indexed": false,
          "internalType": "uint256",
          "name": "loadId",
          "type": "uint256"
        },
        {
          "indexed": false,
          "internalType": "uint256",
          "name": "energyRequired",
          "type": "uint256"
        }
      ],
      "name": "addLoadData",
      "type": "event"
    },
    {
      "anonymous": false,
      "inputs": [
        {
          "indexed": false,
          "internalType": "uint256",
          "name": "uniqueId",
          "type": "uint256"
        }
      ],
      "name": "microGridAdded",
      "type": "event"
    },
    {
      "anonymous": false,
      "inputs": [
        {
          "indexed": false,
          "internalType": "string",
          "name": "name",
          "type": "string"
        },
        {
          "components": [
            {
              "internalType": "uint256",
              "name": "uniqueID",
              "type": "uint256"
            },
            {
              "internalType": "uint256",
              "name": "minCapacity",
              "type": "uint256"
            },
            {
              "internalType": "uint256",
              "name": "maxCapacity",
              "type": "uint256"
            },
            {
              "internalType": "uint256",
              "name": "maxCharge",
              "type": "uint256"
            },
            {
              "internalType": "uint16",
              "name": "maxEfficiency",
              "type": "uint16"
            },
            {
              "internalType": "uint16",
              "name": "initSoc",
              "type": "uint16"
            }
          ],
          "indexed": false,
          "internalType": "struct Microgrid.Battery[]",
          "name": "batteryUsing",
          "type": "tuple[]"
        },
        {
          "components": [
            {
              "internalType": "uint256",
              "name": "loadId",
              "type": "uint256"
            },
            {
              "internalType": "address",
              "name": "userAddress",
              "type": "address"
            },
            {
              "internalType": "uint256",
              "name": "energyRequired",
              "type": "uint256"
            }
          ],
          "indexed": false,
          "internalType": "struct Microgrid.Load[]",
          "name": "loads",
          "type": "tuple[]"
        },
        {
          "components": [
            {
              "internalType": "uint256",
              "name": "uniqueID",
              "type": "uint256"
            },
            {
              "internalType": "uint256",
              "name": "energyProduction",
              "type": "uint256"
            }
          ],
          "indexed": false,
          "internalType": "struct Microgrid.GreenEnergy[]",
          "name": "greenEnergies",
          "type": "tuple[]"
        },
        {
          "components": [
            {
              "internalType": "uint256",
              "name": "uniqueID",
              "type": "uint256"
            },
            {
              "internalType": "uint256",
              "name": "maxImport",
              "type": "uint256"
            },
            {
              "internalType": "uint256",
              "name": "maxExport",
              "type": "uint256"
            }
          ],
          "indexed": false,
          "internalType": "struct Microgrid.Grid[]",
          "name": "powerGrid",
          "type": "tuple[]"
        }
      ],
      "name": "microgridDetails",
      "type": "event"
    },
    {
      "stateMutability": "payable",
      "type": "fallback",
      "payable": true
    },
    {
      "inputs": [
        {
          "internalType": "address",
          "name": "",
          "type": "address"
        }
      ],
      "name": "address_Consumer",
      "outputs": [
        {
          "internalType": "string",
          "name": "name",
          "type": "string"
        },
        {
          "internalType": "uint256",
          "name": "wallet",
          "type": "uint256"
        },
        {
          "internalType": "uint256",
          "name": "energyBalance",
          "type": "uint256"
        },
        {
          "internalType": "bool",
          "name": "isProducer",
          "type": "bool"
        }
      ],
      "stateMutability": "view",
      "type": "function",
      "constant": true
    },
    {
      "inputs": [
        {
          "internalType": "address",
          "name": "",
          "type": "address"
        }
      ],
      "name": "address_Producer",
      "outputs": [
        {
          "internalType": "string",
          "name": "name",
          "type": "string"
        },
        {
          "internalType": "uint256",
          "name": "uniqueID",
          "type": "uint256"
        },
        {
          "internalType": "bool",
          "name": "isProducer",
          "type": "bool"
        }
      ],
      "stateMutability": "view",
      "type": "function",
      "constant": true
    },
    {
      "inputs": [
        {
          "internalType": "address",
          "name": "",
          "type": "address"
        }
      ],
      "name": "address_Prosumer",
      "outputs": [
        {
          "internalType": "string",
          "name": "name",
          "type": "string"
        },
        {
          "internalType": "uint256",
          "name": "wallet",
          "type": "uint256"
        },
        {
          "internalType": "uint256",
          "name": "energyBalance",
          "type": "uint256"
        },
        {
          "internalType": "bool",
          "name": "isProducer",
          "type": "bool"
        }
      ],
      "stateMutability": "view",
      "type": "function",
      "constant": true
    },
    {
      "inputs": [],
      "name": "microGridId",
      "outputs": [
        {
          "internalType": "uint256",
          "name": "",
          "type": "uint256"
        }
      ],
      "stateMutability": "view",
      "type": "function",
      "constant": true
    },
    {
      "inputs": [
        {
          "internalType": "uint256",
          "name": "",
          "type": "uint256"
        }
      ],
      "name": "microGrids",
      "outputs": [
        {
          "internalType": "string",
          "name": "microGridName",
          "type": "string"
        },
        {
          "internalType": "uint256",
          "name": "uniqueId",
          "type": "uint256"
        }
      ],
      "stateMutability": "view",
      "type": "function",
      "constant": true
    },
    {
      "inputs": [],
      "name": "perUnit",
      "outputs": [
        {
          "internalType": "uint16",
          "name": "",
          "type": "uint16"
        }
      ],
      "stateMutability": "view",
      "type": "function",
      "constant": true
    },
    {
      "inputs": [
        {
          "internalType": "uint256",
          "name": "",
          "type": "uint256"
        }
      ],
      "name": "transactions",
      "outputs": [
        {
          "internalType": "address",
          "name": "from",
          "type": "address"
        },
        {
          "internalType": "address",
          "name": "to",
          "type": "address"
        },
        {
          "internalType": "uint256",
          "name": "amount",
          "type": "uint256"
        },
        {
          "internalType": "uint256",
          "name": "timestamp",
          "type": "uint256"
        }
      ],
      "stateMutability": "view",
      "type": "function",
      "constant": true
    },
    {
      "stateMutability": "payable",
      "type": "receive",
      "payable": true
    },
    {
      "inputs": [
        {
          "internalType": "string",
          "name": "name",
          "type": "string"
        }
      ],
      "name": "createMicroGrid",
      "outputs": [],
      "stateMutability": "nonpayable",
      "type": "function"
    },
    {
      "inputs": [
        {
          "internalType": "uint256",
          "name": "id",
          "type": "uint256"
        }
      ],
      "name": "viewMicrogridDetails",
      "outputs": [],
      "stateMutability": "nonpayable",
      "type": "function"
    },
    {
      "inputs": [
        {
          "internalType": "uint256",
          "name": "uniqueId",
          "type": "uint256"
        },
        {
          "internalType": "uint256",
          "name": "minCapacity",
          "type": "uint256"
        },
        {
          "internalType": "uint256",
          "name": "maxCapacity",
          "type": "uint256"
        },
        {
          "internalType": "uint256",
          "name": "maxCharge",
          "type": "uint256"
        },
        {
          "internalType": "uint16",
          "name": "maxEfficiency",
          "type": "uint16"
        },
        {
          "internalType": "uint16",
          "name": "initSoc",
          "type": "uint16"
        }
      ],
      "name": "addBattery",
      "outputs": [],
      "stateMutability": "nonpayable",
      "type": "function"
    },
    {
      "inputs": [
        {
          "internalType": "address",
          "name": "userAddress",
          "type": "address"
        },
        {
          "internalType": "uint256",
          "name": "energyRequired",
          "type": "uint256"
        },
        {
          "internalType": "uint256",
          "name": "uniqueId",
          "type": "uint256"
        }
      ],
      "name": "addLoad",
      "outputs": [],
      "stateMutability": "nonpayable",
      "type": "function"
    },
    {
      "inputs": [
        {
          "internalType": "uint256",
          "name": "energyProduction",
          "type": "uint256"
        },
        {
          "internalType": "uint256",
          "name": "uniqueId",
          "type": "uint256"
        }
      ],
      "name": "addGreenEnergy",
      "outputs": [],
      "stateMutability": "nonpayable",
      "type": "function"
    },
    {
      "inputs": [
        {
          "internalType": "uint256",
          "name": "maxImport",
          "type": "uint256"
        },
        {
          "internalType": "uint256",
          "name": "maxExport",
          "type": "uint256"
        },
        {
          "internalType": "uint256",
          "name": "uniqueId",
          "type": "uint256"
        }
      ],
      "name": "addPowerGrid",
      "outputs": [],
      "stateMutability": "nonpayable",
      "type": "function"
    },
    {
      "inputs": [
        {
          "internalType": "string",
          "name": "name",
          "type": "string"
        },
        {
          "internalType": "uint256",
          "name": "uniqueID",
          "type": "uint256"
        }
      ],
      "name": "addProducer",
      "outputs": [],
      "stateMutability": "nonpayable",
      "type": "function"
    },
    {
      "inputs": [
        {
          "internalType": "string",
          "name": "name",
          "type": "string"
        },
        {
          "internalType": "uint256",
          "name": "wallet",
          "type": "uint256"
        },
        {
          "internalType": "uint256",
          "name": "energyBalance",
          "type": "uint256"
        }
      ],
      "name": "addProsumer",
      "outputs": [],
      "stateMutability": "nonpayable",
      "type": "function"
    },
    {
      "inputs": [
        {
          "internalType": "string",
          "name": "name",
          "type": "string"
        },
        {
          "internalType": "uint256",
          "name": "wallet",
          "type": "uint256"
        },
        {
          "internalType": "uint256",
          "name": "energyBalance",
          "type": "uint256"
        }
      ],
      "name": "addConsumer",
      "outputs": [],
      "stateMutability": "nonpayable",
      "type": "function"
    },
    {
      "inputs": [
        {
          "internalType": "uint256",
          "name": "transferAmount",
          "type": "uint256"
        }
      ],
      "name": "purchaseEnergy",
      "outputs": [],
      "stateMutability": "nonpayable",
      "type": "function"
    },
    {
      "inputs": [
        {
          "internalType": "uint256",
          "name": "transferAmount",
          "type": "uint256"
        }
      ],
      "name": "sellEnergy",
      "outputs": [],
      "stateMutability": "nonpayable",
      "type": "function"
    },
    {
      "inputs": [
        {
          "internalType": "address",
          "name": "to",
          "type": "address"
        },
        {
          "internalType": "uint256",
          "name": "transferAmount",
          "type": "uint256"
        }
      ],
      "name": "transferEnergy",
      "outputs": [],
      "stateMutability": "nonpayable",
      "type": "function"
    },
    {
      "inputs": [
        {
          "internalType": "address",
          "name": "_from",
          "type": "address"
        },
        {
          "internalType": "address",
          "name": "_to",
          "type": "address"
        },
        {
          "internalType": "uint256",
          "name": "_amount",
          "type": "uint256"
        }
      ],
      "name": "addTransaction",
      "outputs": [],
      "stateMutability": "nonpayable",
      "type": "function"
    },
    {
      "inputs": [],
      "name": "getTransactionCount",
      "outputs": [
        {
          "internalType": "uint256",
          "name": "",
          "type": "uint256"
        }
      ],
      "stateMutability": "view",
      "type": "function",
      "constant": true
    },
    {
      "inputs": [
        {
          "internalType": "uint256",
          "name": "index",
          "type": "uint256"
        }
      ],
      "name": "getTransaction",
      "outputs": [
        {
          "internalType": "address",
          "name": "from",
          "type": "address"
        },
        {
          "internalType": "address",
          "name": "to",
          "type": "address"
        },
        {
          "internalType": "uint256",
          "name": "amount",
          "type": "uint256"
        },
        {
          "internalType": "uint256",
          "name": "timestamp",
          "type": "uint256"
        }
      ],
      "stateMutability": "view",
      "type": "function",
      "constant": true
    },
    {
      "inputs": [],
      "name": "consumerData",
      "outputs": [
        {
          "internalType": "string",
          "name": "",
          "type": "string"
        }
      ],
      "stateMutability": "view",
      "type": "function",
      "constant": true
    },
    {
      "inputs": [],
      "name": "showMicroGridId",
      "outputs": [
        {
          "internalType": "uint256",
          "name": "",
          "type": "uint256"
        }
      ],
      "stateMutability": "view",
      "type": "function",
      "constant": true
    },
    {
      "inputs": [],
      "name": "getBalance",
      "outputs": [
        {
          "internalType": "uint256",
          "name": "",
          "type": "uint256"
        }
      ],
      "stateMutability": "view",
      "type": "function",
      "constant": true
    },
    {
      "inputs": [
        {
          "internalType": "address payable",
          "name": "_to",
          "type": "address"
        }
      ],
      "name": "sendViaSend",
      "outputs": [],
      "stateMutability": "payable",
      "type": "function",
      "payable": true
    }
  ],
  "bytecode": "0x608060405260146000806101000a81548161ffff021916908361ffff160217905550600060015534801561003257600080fd5b50613346806100426000396000f3fe6080604052600436106101855760003560e01c80637e3504e0116100d1578063c86695441161008a578063e1cf9a2711610064578063e1cf9a2714610598578063e7054bcd146105c1578063e8e52bb2146105ec578063fe73b27f146106155761018c565b8063c866954414610504578063d5f348b014610544578063db0dcf991461056f5761018c565b80637e3504e0146103e1578063929b67f5146104205780639ace38c214610449578063a0a0db3d14610489578063a9905939146104b2578063bb4e9418146104db5761018c565b806333ea3dc81161013e5780634f9ccc0c116101185780634f9ccc0c146103335780635b07ee1b146103735780636afe25201461039c57806374be4806146103c55761018c565b806333ea3dc8146102a15780634326ee36146102e15780634eb406761461030a5761018c565b806312065fe01461018e578063173017fb146101b957806319f33642146101e45780631a8e71b3146102225780632e41c1c21461024b5780632e7700f0146102765761018c565b3661018c57005b005b34801561019a57600080fd5b506101a361063e565b6040516101b09190611eaf565b60405180910390f35b3480156101c557600080fd5b506101ce610646565b6040516101db9190611ee7565b60405180910390f35b3480156101f057600080fd5b5061020b60048036038101906102069190611f42565b610658565b604051610219929190612008565b60405180910390f35b34801561022e57600080fd5b5061024960048036038101906102449190612038565b610704565b005b34801561025757600080fd5b50610260610869565b60405161026d9190611eaf565b60405180910390f35b34801561028257600080fd5b5061028b610873565b6040516102989190611eaf565b60405180910390f35b3480156102ad57600080fd5b506102c860048036038101906102c39190611f42565b610880565b6040516102d894939291906120cc565b60405180910390f35b3480156102ed57600080fd5b5061030860048036038101906103039190611f42565b610957565b005b34801561031657600080fd5b50610331600480360381019061032c9190612246565b610af8565b005b34801561033f57600080fd5b5061035a600480360381019061035591906122ce565b610ba9565b60405161036a9493929190612316565b60405180910390f35b34801561037f57600080fd5b5061039a60048036038101906103959190611f42565b610c6e565b005b3480156103a857600080fd5b506103c360048036038101906103be9190611f42565b610d6d565b005b6103df60048036038101906103da91906123a0565b610ef1565b005b3480156103ed57600080fd5b50610408600480360381019061040391906122ce565b610f6e565b604051610417939291906123cd565b60405180910390f35b34801561042c57600080fd5b5061044760048036038101906104429190612437565b61102d565b005b34801561045557600080fd5b50610470600480360381019061046b9190611f42565b611205565b60405161048094939291906120cc565b60405180910390f35b34801561049557600080fd5b506104b060048036038101906104ab91906124c4565b611285565b005b3480156104be57600080fd5b506104d960048036038101906104d49190612533565b611347565b005b3480156104e757600080fd5b5061050260048036038101906104fd9190612573565b6114f3565b005b34801561051057600080fd5b5061052b600480360381019061052691906122ce565b611645565b60405161053b9493929190612316565b60405180910390f35b34801561055057600080fd5b5061055961170a565b6040516105669190611eaf565b60405180910390f35b34801561057b57600080fd5b50610596600480360381019061059191906125b3565b611710565b005b3480156105a457600080fd5b506105bf60048036038101906105ba9190612606565b6118cc565b005b3480156105cd57600080fd5b506105d66119f7565b6040516105e3919061264f565b60405180910390f35b3480156105f857600080fd5b50610613600480360381019061060e91906124c4565b611b13565b005b34801561062157600080fd5b5061063c60048036038101906106379190612671565b611c6b565b005b600047905090565b60008054906101000a900461ffff1681565b600260205280600052604060002060009150905080600001805461067b906126f3565b80601f01602080910402602001604051908101604052809291908181526020018280546106a7906126f3565b80156106f45780601f106106c9576101008083540402835291602001916106f4565b820191906000526020600020905b8154815290600101906020018083116106d757829003601f168201915b5050505050908060010154905082565b60011515600560003373ffffffffffffffffffffffffffffffffffffffff1673ffffffffffffffffffffffffffffffffffffffff16815260200190815260200160002060020160009054906101000a900460ff1615151461079a576040517f08c379a000000000000000000000000000000000000000000000000000000000815260040161079190612797565b60405180910390fd5b600060026000838152602001908152602001600020905060008160050180549050905081600501604051806060016040528083815260200187815260200186815250908060018154018082558091505060019003906000526020600020906003020160009091909190915060008201518160000155602082015181600101556040820151816002015550507f9e63addff2a268980d5d4134d018aa9a803eb5cf055d616dfcafb706574d80808382878760405161085a94939291906127b7565b60405180910390a15050505050565b6000600154905090565b6000600680549050905090565b60008060008060068054905085106108cd576040517f08c379a00000000000000000000000000000000000000000000000000000000081526004016108c490612848565b60405180910390fd5b6000600686815481106108e3576108e2612868565b5b906000526020600020906004020190508060000160009054906101000a900473ffffffffffffffffffffffffffffffffffffffff168160010160009054906101000a900473ffffffffffffffffffffffffffffffffffffffff16826002015483600301549450945094509450509193509193565b80600360003373ffffffffffffffffffffffffffffffffffffffff1673ffffffffffffffffffffffffffffffffffffffff1681526020019081526020016000206002015410156109dc576040517f08c379a00000000000000000000000000000000000000000000000000000000081526004016109d3906128e3565b60405180910390fd5b6000600360003373ffffffffffffffffffffffffffffffffffffffff1673ffffffffffffffffffffffffffffffffffffffff168152602001908152602001600020905081816002016000828254610a339190612932565b9250508190555060008054906101000a900461ffff1661ffff1682610a589190612966565b816001016000828254610a6b91906129c0565b925050819055503073ffffffffffffffffffffffffffffffffffffffff163373ffffffffffffffffffffffffffffffffffffffff167f314d9d54f4824ae491ddf2a96075427b4aa537d03004255d1ebaf12ffd29f3d860008054906101000a900461ffff1661ffff1685610adf9190612966565b604051610aec9190611eaf565b60405180910390a35050565b6000604051806060016040528084815260200183815260200160011515815250905080600560003373ffffffffffffffffffffffffffffffffffffffff1673ffffffffffffffffffffffffffffffffffffffff1681526020019081526020016000206000820151816000019080519060200190610b76929190611df3565b506020820151816001015560408201518160020160006101000a81548160ff021916908315150217905550905050505050565b6003602052806000526040600020600091509050806000018054610bcc906126f3565b80601f0160208091040260200160405190810160405280929190818152602001828054610bf8906126f3565b8015610c455780601f10610c1a57610100808354040283529160200191610c45565b820191906000526020600020905b815481529060010190602001808311610c2857829003601f168201915b5050505050908060010154908060020154908060030160009054906101000a900460ff16905084565b60011515600560003373ffffffffffffffffffffffffffffffffffffffff1673ffffffffffffffffffffffffffffffffffffffff16815260200190815260200160002060020160009054906101000a900460ff16151514610d04576040517f08c379a0000000000000000000000000000000000000000000000000000000008152600401610cfb90612797565b60405180910390fd5b60006002600083815260200190815260200160002090507f1cb9d8b6a781473b870341334bc2050bc9018554b70c0b80c9dad51110e67c958160000182600201836003018460040185600501604051610d61959493929190613027565b60405180910390a15050565b80600460003373ffffffffffffffffffffffffffffffffffffffff1673ffffffffffffffffffffffffffffffffffffffff168152602001908152602001600020600101541015610df2576040517f08c379a0000000000000000000000000000000000000000000000000000000008152600401610de9906130e9565b60405180910390fd5b6000600460003373ffffffffffffffffffffffffffffffffffffffff1673ffffffffffffffffffffffffffffffffffffffff168152602001908152602001600020905081816001016000828254610e499190612932565b9250508190555060008054906101000a900461ffff1661ffff1682610e6e9190613138565b816002016000828254610e8191906129c0565b925050819055503073ffffffffffffffffffffffffffffffffffffffff163373ffffffffffffffffffffffffffffffffffffffff167f314d9d54f4824ae491ddf2a96075427b4aa537d03004255d1ebaf12ffd29f3d884604051610ee59190611eaf565b60405180910390a35050565b60008173ffffffffffffffffffffffffffffffffffffffff166108fc349081150290604051600060405180830381858888f19350505050905080610f6a576040517f08c379a0000000000000000000000000000000000000000000000000000000008152600401610f61906131b5565b60405180910390fd5b5050565b6005602052806000526040600020600091509050806000018054610f91906126f3565b80601f0160208091040260200160405190810160405280929190818152602001828054610fbd906126f3565b801561100a5780601f10610fdf5761010080835404028352916020019161100a565b820191906000526020600020905b815481529060010190602001808311610fed57829003601f168201915b5050505050908060010154908060020160009054906101000a900460ff16905083565b60011515600560003373ffffffffffffffffffffffffffffffffffffffff1673ffffffffffffffffffffffffffffffffffffffff16815260200190815260200160002060020160009054906101000a900460ff161515146110c3576040517f08c379a00000000000000000000000000000000000000000000000000000000081526004016110ba90612797565b60405180910390fd5b6000600260008881526020019081526020016000209050600081600201805490509050816002016040518060c001604052808381526020018981526020018881526020018781526020018661ffff1681526020018561ffff1681525090806001815401808255809150506001900390600052602060002090600502016000909190919091506000820151816000015560208201518160010155604082015181600201556060820151816003015560808201518160040160006101000a81548161ffff021916908361ffff16021790555060a08201518160040160026101000a81548161ffff021916908361ffff16021790555050507f7a996c70a429d049c375510397afdd445f2d8df80e1275624b60232bfda9590a888289898989896040516111f397969594939291906131d5565b60405180910390a15050505050505050565b6006818154811061121557600080fd5b90600052602060002090600402016000915090508060000160009054906101000a900473ffffffffffffffffffffffffffffffffffffffff16908060010160009054906101000a900473ffffffffffffffffffffffffffffffffffffffff16908060020154908060030154905084565b6000604051806080016040528085815260200184815260200183815260200160001515815250905080600460003373ffffffffffffffffffffffffffffffffffffffff1673ffffffffffffffffffffffffffffffffffffffff1681526020019081526020016000206000820151816000019080519060200190611309929190611df3565b50602082015181600101556040820151816002015560608201518160030160006101000a81548160ff02191690831515021790555090505050505050565b80600360003373ffffffffffffffffffffffffffffffffffffffff1673ffffffffffffffffffffffffffffffffffffffff1681526020019081526020016000206002015410156113cc576040517f08c379a00000000000000000000000000000000000000000000000000000000081526004016113c390613290565b60405180910390fd5b6000600360003373ffffffffffffffffffffffffffffffffffffffff1673ffffffffffffffffffffffffffffffffffffffff16815260200190815260200160002090506000600360008573ffffffffffffffffffffffffffffffffffffffff1673ffffffffffffffffffffffffffffffffffffffff1681526020019081526020016000209050828260020160008282546114669190612932565b925050819055508281600201600082825461148191906129c0565b925050819055508373ffffffffffffffffffffffffffffffffffffffff163373ffffffffffffffffffffffffffffffffffffffff167f314d9d54f4824ae491ddf2a96075427b4aa537d03004255d1ebaf12ffd29f3d8856040516114e59190611eaf565b60405180910390a350505050565b60011515600560003373ffffffffffffffffffffffffffffffffffffffff1673ffffffffffffffffffffffffffffffffffffffff16815260200190815260200160002060020160009054906101000a900460ff16151514611589576040517f08c379a000000000000000000000000000000000000000000000000000000000815260040161158090612797565b60405180910390fd5b6000600260008381526020019081526020016000209050600081600401805490509050816004016040518060400160405280838152602001868152509080600181540180825580915050600190039060005260206000209060020201600090919091909150600082015181600001556020820151816001015550507f8958c8421e726370f40732f54a916d044118d6165e5df33e006655b9da1e1d97838286604051611637939291906132b0565b60405180910390a150505050565b6004602052806000526040600020600091509050806000018054611668906126f3565b80601f0160208091040260200160405190810160405280929190818152602001828054611694906126f3565b80156116e15780601f106116b6576101008083540402835291602001916116e1565b820191906000526020600020905b8154815290600101906020018083116116c457829003601f168201915b5050505050908060010154908060020154908060030160009054906101000a900460ff16905084565b60015481565b60011515600560003373ffffffffffffffffffffffffffffffffffffffff1673ffffffffffffffffffffffffffffffffffffffff16815260200190815260200160002060020160009054906101000a900460ff161515146117a6576040517f08c379a000000000000000000000000000000000000000000000000000000000815260040161179d90612797565b60405180910390fd5b6000600260008381526020019081526020016000209050600081600301805490509050600060405180606001604052808381526020018773ffffffffffffffffffffffffffffffffffffffff168152602001868152509050826003018190806001815401808255809150506001900390600052602060002090600302016000909190919091506000820151816000015560208201518160010160006101000a81548173ffffffffffffffffffffffffffffffffffffffff021916908373ffffffffffffffffffffffffffffffffffffffff1602179055506040820151816002015550507fefed7b98763026eeab78219b0816974fb4f56818ab8546317f0a2473fe850e278483876040516118bc939291906132b0565b60405180910390a1505050505050565b60011515600560003373ffffffffffffffffffffffffffffffffffffffff1673ffffffffffffffffffffffffffffffffffffffff16815260200190815260200160002060020160009054906101000a900460ff16151514611962576040517f08c379a000000000000000000000000000000000000000000000000000000000815260040161195990612797565b60405180910390fd5b6000600260006001548152602001908152602001600020905081816000019080519060200190611993929190611df3565b50600154816001018190555060018060008282546119b191906129c0565b925050819055507f8a0a41db407a6cb0066cbae19d90b07c19f10e171e35200eb9aff273654effab81600101546040516119eb9190611eaf565b60405180910390a15050565b60606000600460003373ffffffffffffffffffffffffffffffffffffffff1673ffffffffffffffffffffffffffffffffffffffff168152602001908152602001600020604051806080016040529081600082018054611a55906126f3565b80601f0160208091040260200160405190810160405280929190818152602001828054611a81906126f3565b8015611ace5780601f10611aa357610100808354040283529160200191611ace565b820191906000526020600020905b815481529060010190602001808311611ab157829003601f168201915b5050505050815260200160018201548152602001600282015481526020016003820160009054906101000a900460ff1615151515815250509050806000015191505090565b60011515600560003373ffffffffffffffffffffffffffffffffffffffff1673ffffffffffffffffffffffffffffffffffffffff16815260200190815260200160002060020160009054906101000a900460ff16151514611ba9576040517f08c379a0000000000000000000000000000000000000000000000000000000008152600401611ba090612797565b60405180910390fd5b6000604051806080016040528085815260200184815260200183815260200160001515815250905080600360003373ffffffffffffffffffffffffffffffffffffffff1673ffffffffffffffffffffffffffffffffffffffff1681526020019081526020016000206000820151816000019080519060200190611c2d929190611df3565b50602082015181600101556040820151816002015560608201518160030160006101000a81548160ff02191690831515021790555090505050505050565b600660405180608001604052808573ffffffffffffffffffffffffffffffffffffffff1681526020018473ffffffffffffffffffffffffffffffffffffffff16815260200183815260200142815250908060018154018082558091505060019003906000526020600020906004020160009091909190915060008201518160000160006101000a81548173ffffffffffffffffffffffffffffffffffffffff021916908373ffffffffffffffffffffffffffffffffffffffff16021790555060208201518160010160006101000a81548173ffffffffffffffffffffffffffffffffffffffff021916908373ffffffffffffffffffffffffffffffffffffffff160217905550604082015181600201556060820151816003015550508173ffffffffffffffffffffffffffffffffffffffff168373ffffffffffffffffffffffffffffffffffffffff167fccfcbe7d87150baa95519e68f762fa01b73a0b0f1f1f2c649cea60f79053115f8342604051611de69291906132e7565b60405180910390a3505050565b828054611dff906126f3565b90600052602060002090601f016020900481019282611e215760008555611e68565b82601f10611e3a57805160ff1916838001178555611e68565b82800160010185558215611e68579182015b82811115611e67578251825591602001919060010190611e4c565b5b509050611e759190611e79565b5090565b5b80821115611e92576000816000905550600101611e7a565b5090565b6000819050919050565b611ea981611e96565b82525050565b6000602082019050611ec46000830184611ea0565b92915050565b600061ffff82169050919050565b611ee181611eca565b82525050565b6000602082019050611efc6000830184611ed8565b92915050565b6000604051905090565b600080fd5b600080fd5b611f1f81611e96565b8114611f2a57600080fd5b50565b600081359050611f3c81611f16565b92915050565b600060208284031215611f5857611f57611f0c565b5b6000611f6684828501611f2d565b91505092915050565b600081519050919050565b600082825260208201905092915050565b60005b83811015611fa9578082015181840152602081019050611f8e565b83811115611fb8576000848401525b50505050565b6000601f19601f8301169050919050565b6000611fda82611f6f565b611fe48185611f7a565b9350611ff4818560208601611f8b565b611ffd81611fbe565b840191505092915050565b600060408201905081810360008301526120228185611fcf565b90506120316020830184611ea0565b9392505050565b60008060006060848603121561205157612050611f0c565b5b600061205f86828701611f2d565b935050602061207086828701611f2d565b925050604061208186828701611f2d565b9150509250925092565b600073ffffffffffffffffffffffffffffffffffffffff82169050919050565b60006120b68261208b565b9050919050565b6120c6816120ab565b82525050565b60006080820190506120e160008301876120bd565b6120ee60208301866120bd565b6120fb6040830185611ea0565b6121086060830184611ea0565b95945050505050565b600080fd5b600080fd5b7f4e487b7100000000000000000000000000000000000000000000000000000000600052604160045260246000fd5b61215382611fbe565b810181811067ffffffffffffffff821117156121725761217161211b565b5b80604052505050565b6000612185611f02565b9050612191828261214a565b919050565b600067ffffffffffffffff8211156121b1576121b061211b565b5b6121ba82611fbe565b9050602081019050919050565b82818337600083830152505050565b60006121e96121e484612196565b61217b565b90508281526020810184848401111561220557612204612116565b5b6122108482856121c7565b509392505050565b600082601f83011261222d5761222c612111565b5b813561223d8482602086016121d6565b91505092915050565b6000806040838503121561225d5761225c611f0c565b5b600083013567ffffffffffffffff81111561227b5761227a611f11565b5b61228785828601612218565b925050602061229885828601611f2d565b9150509250929050565b6122ab816120ab565b81146122b657600080fd5b50565b6000813590506122c8816122a2565b92915050565b6000602082840312156122e4576122e3611f0c565b5b60006122f2848285016122b9565b91505092915050565b60008115159050919050565b612310816122fb565b82525050565b600060808201905081810360008301526123308187611fcf565b905061233f6020830186611ea0565b61234c6040830185611ea0565b6123596060830184612307565b95945050505050565b600061236d8261208b565b9050919050565b61237d81612362565b811461238857600080fd5b50565b60008135905061239a81612374565b92915050565b6000602082840312156123b6576123b5611f0c565b5b60006123c48482850161238b565b91505092915050565b600060608201905081810360008301526123e78186611fcf565b90506123f66020830185611ea0565b6124036040830184612307565b949350505050565b61241481611eca565b811461241f57600080fd5b50565b6000813590506124318161240b565b92915050565b60008060008060008060c0878903121561245457612453611f0c565b5b600061246289828a01611f2d565b965050602061247389828a01611f2d565b955050604061248489828a01611f2d565b945050606061249589828a01611f2d565b93505060806124a689828a01612422565b92505060a06124b789828a01612422565b9150509295509295509295565b6000806000606084860312156124dd576124dc611f0c565b5b600084013567ffffffffffffffff8111156124fb576124fa611f11565b5b61250786828701612218565b935050602061251886828701611f2d565b925050604061252986828701611f2d565b9150509250925092565b6000806040838503121561254a57612549611f0c565b5b6000612558858286016122b9565b925050602061256985828601611f2d565b9150509250929050565b6000806040838503121561258a57612589611f0c565b5b600061259885828601611f2d565b92505060206125a985828601611f2d565b9150509250929050565b6000806000606084860312156125cc576125cb611f0c565b5b60006125da868287016122b9565b93505060206125eb86828701611f2d565b92505060406125fc86828701611f2d565b9150509250925092565b60006020828403121561261c5761261b611f0c565b5b600082013567ffffffffffffffff81111561263a57612639611f11565b5b61264684828501612218565b91505092915050565b600060208201905081810360008301526126698184611fcf565b905092915050565b60008060006060848603121561268a57612689611f0c565b5b6000612698868287016122b9565b93505060206126a9868287016122b9565b92505060406126ba86828701611f2d565b9150509250925092565b7f4e487b7100000000000000000000000000000000000000000000000000000000600052602260045260246000fd5b6000600282049050600182168061270b57607f821691505b6020821081141561271f5761271e6126c4565b5b50919050565b7f4f6e6c792050726f6475636572732063616e206163636573732074686973206660008201527f6561747572652e00000000000000000000000000000000000000000000000000602082015250565b6000612781602783611f7a565b915061278c82612725565b604082019050919050565b600060208201905081810360008301526127b081612774565b9050919050565b60006080820190506127cc6000830187611ea0565b6127d96020830186611ea0565b6127e66040830185611ea0565b6127f36060830184611ea0565b95945050505050565b7f5472616e73616374696f6e20696e646578206f7574206f6620626f756e647300600082015250565b6000612832601f83611f7a565b915061283d826127fc565b602082019050919050565b6000602082019050818103600083015261286181612825565b9050919050565b7f4e487b7100000000000000000000000000000000000000000000000000000000600052603260045260246000fd5b7f496e73756666696369656e7420656e657267792062616c616e63650000000000600082015250565b60006128cd601b83611f7a565b91506128d882612897565b602082019050919050565b600060208201905081810360008301526128fc816128c0565b9050919050565b7f4e487b7100000000000000000000000000000000000000000000000000000000600052601160045260246000fd5b600061293d82611e96565b915061294883611e96565b92508282101561295b5761295a612903565b5b828203905092915050565b600061297182611e96565b915061297c83611e96565b9250817fffffffffffffffffffffffffffffffffffffffffffffffffffffffffffffffff04831182151516156129b5576129b4612903565b5b828202905092915050565b60006129cb82611e96565b91506129d683611e96565b9250827fffffffffffffffffffffffffffffffffffffffffffffffffffffffffffffffff03821115612a0b57612a0a612903565b5b828201905092915050565b60008190508160005260206000209050919050565b60008154612a38816126f3565b612a428186611f7a565b94506001821660008114612a5d5760018114612a6f57612aa2565b60ff1983168652602086019350612aa2565b612a7885612a16565b60005b83811015612a9a57815481890152600182019150602081019050612a7b565b808801955050505b50505092915050565b600081549050919050565b600082825260208201905092915050565b60008190508160005260206000209050919050565b60008160001c9050919050565b6000819050919050565b6000612b06612b0183612adc565b612ae9565b9050919050565b612b1681611e96565b82525050565b600061ffff82169050919050565b6000612b3d612b3883612adc565b612b1c565b9050919050565b612b4d81611eca565b82525050565b60008160101c9050919050565b6000612b73612b6e83612b53565b612b1c565b9050919050565b60c082016000808301549050612b8f81612af3565b612b9c6000860182612b0d565b5060018301549050612bad81612af3565b612bba6020860182612b0d565b5060028301549050612bcb81612af3565b612bd86040860182612b0d565b5060038301549050612be981612af3565b612bf66060860182612b0d565b5060048301549050612c0781612b2a565b612c146080860182612b44565b50612c1e81612b60565b612c2b60a0860182612b44565b5050505050565b6000612c3e8383612b7a565b60c08301905092915050565b6000600582019050919050565b6000612c6282612aab565b612c6c8185612ab6565b9350612c7783612ac7565b8060005b83811015612ca75781612c8e8882612c32565b9750612c9983612c4a565b925050600181019050612c7b565b5085935050505092915050565b600081549050919050565b600082825260208201905092915050565b60008190508160005260206000209050919050565b600073ffffffffffffffffffffffffffffffffffffffff82169050919050565b6000612d18612d1383612adc565b612ce5565b9050919050565b612d28816120ab565b82525050565b606082016000808301549050612d4381612af3565b612d506000860182612b0d565b5060018301549050612d6181612d05565b612d6e6020860182612d1f565b5060028301549050612d7f81612af3565b612d8c6040860182612b0d565b5050505050565b6000612d9f8383612d2e565b60608301905092915050565b6000600382019050919050565b6000612dc382612cb4565b612dcd8185612cbf565b9350612dd883612cd0565b8060005b83811015612e085781612def8882612d93565b9750612dfa83612dab565b925050600181019050612ddc565b5085935050505092915050565b600081549050919050565b600082825260208201905092915050565b60008190508160005260206000209050919050565b604082016000808301549050612e5b81612af3565b612e686000860182612b0d565b5060018301549050612e7981612af3565b612e866020860182612b0d565b5050505050565b6000612e998383612e46565b60408301905092915050565b6000600282019050919050565b6000612ebd82612e15565b612ec78185612e20565b9350612ed283612e31565b8060005b83811015612f025781612ee98882612e8d565b9750612ef483612ea5565b925050600181019050612ed6565b5085935050505092915050565b600081549050919050565b600082825260208201905092915050565b60008190508160005260206000209050919050565b606082016000808301549050612f5581612af3565b612f626000860182612b0d565b5060018301549050612f7381612af3565b612f806020860182612b0d565b5060028301549050612f9181612af3565b612f9e6040860182612b0d565b5050505050565b6000612fb18383612f40565b60608301905092915050565b6000600382019050919050565b6000612fd582612f0f565b612fdf8185612f1a565b9350612fea83612f2b565b8060005b8381101561301a57816130018882612fa5565b975061300c83612fbd565b925050600181019050612fee565b5085935050505092915050565b600060a08201905081810360008301526130418188612a2b565b905081810360208301526130558187612c57565b905081810360408301526130698186612db8565b9050818103606083015261307d8185612eb2565b905081810360808301526130918184612fca565b90509695505050505050565b7f496e73756666696369656e742062616c616e6365000000000000000000000000600082015250565b60006130d3601483611f7a565b91506130de8261309d565b602082019050919050565b60006020820190508181036000830152613102816130c6565b9050919050565b7f4e487b7100000000000000000000000000000000000000000000000000000000600052601260045260246000fd5b600061314382611e96565b915061314e83611e96565b92508261315e5761315d613109565b5b828204905092915050565b7f4661696c656420746f2073656e64204574686572000000000000000000000000600082015250565b600061319f601483611f7a565b91506131aa82613169565b602082019050919050565b600060208201905081810360008301526131ce81613192565b9050919050565b600060e0820190506131ea600083018a611ea0565b6131f76020830189611ea0565b6132046040830188611ea0565b6132116060830187611ea0565b61321e6080830186611ea0565b61322b60a0830185611ed8565b61323860c0830184611ed8565b98975050505050505050565b7f4e6f7420656e6f75676820656e6572677920746f207472616e73666572000000600082015250565b600061327a601d83611f7a565b915061328582613244565b602082019050919050565b600060208201905081810360008301526132a98161326d565b9050919050565b60006060820190506132c56000830186611ea0565b6132d26020830185611ea0565b6132df6040830184611ea0565b949350505050565b60006040820190506132fc6000830185611ea0565b6133096020830184611ea0565b939250505056fea2646970667358221220ed084e546dbc1af8b17b339f8658ee54d557101786fd28851443f55a853d189564736f6c634300080b0033",
  "immutableReferences": {},
  "source": "// SPDX-License-Identifier: MIT\r\npragma solidity ^0.8.0;\r\n\r\ncontract Microgrid {\r\n    uint16 public perUnit = 20;\r\n    uint public microGridId = 0;\r\n\r\n    struct Prosumer {\r\n        string name;\r\n        uint wallet;\r\n        uint energyBalance;\r\n        bool isProducer;\r\n    }\r\n\r\n    struct Consumer{\r\n        string name;\r\n        uint wallet;\r\n        uint energyBalance;\r\n        bool isProducer;\r\n    }\r\n\r\n    struct Producer{\r\n        string name;\r\n        uint uniqueID;\r\n        bool isProducer;\r\n    }\r\n\r\n    struct Battery {\r\n        uint uniqueID;\r\n        uint minCapacity;\r\n        uint maxCapacity;\r\n        uint maxCharge;\r\n        uint16 maxEfficiency;\r\n        uint16 initSoc;\r\n    }\r\n\r\n    struct Load {\r\n        uint loadId;\r\n        address userAddress;\r\n        uint energyRequired;\r\n    }\r\n\r\n    struct GreenEnergy {\r\n        uint uniqueID;\r\n        uint energyProduction;\r\n    }\r\n\r\n    struct Grid {\r\n        uint uniqueID;\r\n        uint maxImport;\r\n        uint maxExport;\r\n    }\r\n    struct Transaction {\r\n        address from;\r\n        address to;\r\n        uint256 amount;\r\n        uint256 timestamp;\r\n    }\r\n\r\n\r\n    struct MicroGrid {\r\n        string microGridName;\r\n        uint uniqueId;\r\n        Battery[] batteryUsing;\r\n        Load[] loads;\r\n        GreenEnergy[] greenEnergies;\r\n        Grid[] powerGrid;\r\n        address[] Prosumers;\r\n        address[] Consumers;\r\n        address[] Producers;\r\n    }\r\n\r\n    mapping(uint => MicroGrid) public microGrids;\r\n    mapping(address => Prosumer) public address_Prosumer;\r\n    mapping(address => Consumer) public address_Consumer;\r\n    mapping(address => Producer) public address_Producer;\r\n\r\n    event microgridDetails(string name, Battery[] batteryUsing, Load[] loads, GreenEnergy[] greenEnergies, Grid[] powerGrid);\r\n    event EnergyTransferred(address indexed from, address indexed to, uint256 transferAmount);\r\n    event microGridAdded(uint uniqueId);\r\n    event addLoadData(uint microGridUniqueId,uint loadId,uint energyRequired);\r\n    event addBatteryData(uint microGridUniqueId,uint batteryIndex,uint minCapacity,uint maxCapacity,uint maxCharge,uint16 maxEfficiency,uint16 initSoc);\r\n    event addGreenEnergyData(uint microGridUniqueId,uint GEId,uint energyProduction);\r\n    event addGridData(uint microGridUniqueId,uint gridIndex,uint maxImport,uint maxExport);\r\n\r\n\r\n\r\n    function createMicroGrid(string memory name) public {\r\n        require (address_Producer[msg.sender].isProducer == true, \"Only Producers can access this feature.\");\r\n        MicroGrid storage tempMicroGrid = microGrids[microGridId];\r\n        tempMicroGrid.microGridName = name;\r\n        tempMicroGrid.uniqueId = microGridId;\r\n        microGridId += 1;\r\n        emit microGridAdded(tempMicroGrid.uniqueId);\r\n    }\r\n\r\n    function viewMicrogridDetails(uint id) public {\r\n        require (address_Producer[msg.sender].isProducer == true, \"Only Producers can access this feature.\");\r\n        MicroGrid storage temp = microGrids[id];\r\n        emit microgridDetails(temp.microGridName, temp.batteryUsing, temp.loads, temp.greenEnergies, temp.powerGrid);\r\n    }\r\n\r\n    function addBattery(\r\n        uint uniqueId,\r\n        uint minCapacity,\r\n        uint maxCapacity,\r\n        uint maxCharge,\r\n        uint16 maxEfficiency,\r\n        uint16 initSoc\r\n    ) public {\r\n        require (address_Producer[msg.sender].isProducer == true, \"Only Producers can access this feature.\");\r\n        MicroGrid storage tempMicroGrid = microGrids[uniqueId];\r\n        uint batteryId = tempMicroGrid.batteryUsing.length;\r\n        tempMicroGrid.batteryUsing.push(Battery(batteryId,minCapacity, maxCapacity, maxCharge, maxEfficiency, initSoc));\r\n        emit addBatteryData(uniqueId, batteryId, minCapacity,maxCapacity, maxCharge, maxEfficiency, initSoc);\r\n}\r\n\r\n    function addLoad(address userAddress, uint energyRequired, uint uniqueId) public {\r\n        require (address_Producer[msg.sender].isProducer == true, \"Only Producers can access this feature.\");\r\n        MicroGrid storage tempMicroGrid = microGrids[uniqueId];\r\n        uint loadId = tempMicroGrid.loads.length;\r\n        Load memory loadItem = Load(loadId, userAddress, energyRequired);\r\n        tempMicroGrid.loads.push(loadItem);\r\n        emit addLoadData(uniqueId,loadId,energyRequired);\r\n    }\r\n\r\n    function addGreenEnergy(uint energyProduction, uint uniqueId) public {\r\n        require (address_Producer[msg.sender].isProducer == true, \"Only Producers can access this feature.\");\r\n        MicroGrid storage tempMicroGrid = microGrids[uniqueId];\r\n        uint greenEnergyId = tempMicroGrid.greenEnergies.length;\r\n        tempMicroGrid.greenEnergies.push(GreenEnergy(greenEnergyId,energyProduction));\r\n        emit addGreenEnergyData(uniqueId,greenEnergyId,energyProduction);\r\n    }\r\n\r\n    function addPowerGrid(uint maxImport, uint maxExport, uint uniqueId) public {\r\n        require (address_Producer[msg.sender].isProducer == true, \"Only Producers can access this feature.\");\r\n        MicroGrid storage tempMicroGrid = microGrids[uniqueId];\r\n        uint gridId = tempMicroGrid.powerGrid.length;\r\n        tempMicroGrid.powerGrid.push(Grid(gridId,maxImport, maxExport));\r\n        emit addGridData(uniqueId,gridId,maxImport,maxExport);\r\n    }\r\n\r\n    function addProducer(string memory name, uint uniqueID) public {\r\n        Producer memory producer = Producer(name, uniqueID, true);\r\n        address_Producer[msg.sender] = producer;\r\n    }\r\n\r\n    function addProsumer(string memory name, uint wallet, uint energyBalance) public {\r\n        require (address_Producer[msg.sender].isProducer == true, \"Only Producers can access this feature.\");\r\n        Prosumer memory prosumer = Prosumer(name, wallet, energyBalance, false);\r\n        address_Prosumer[msg.sender] = prosumer;\r\n    }\r\n\r\n    function addConsumer(string memory name, uint wallet, uint energyBalance) public {\r\n        Consumer memory consumer = Consumer(name, wallet, energyBalance, false);\r\n        address_Consumer[msg.sender] = consumer;\r\n    }\r\n\r\n    // Function to purchase energy  consumer -> prosumer\r\n    function purchaseEnergy(uint transferAmount) public {\r\n        require(address_Consumer[msg.sender].wallet >= transferAmount, \"Insufficient balance\");\r\n\r\n        Consumer storage details = address_Consumer[msg.sender];\r\n        details.wallet -= transferAmount;\r\n        details.energyBalance += transferAmount / perUnit;\r\n\r\n        // Emit an event to record the energy transfer\r\n        emit EnergyTransferred(msg.sender, address(this), transferAmount);\r\n    }\r\n\r\n    // Function to sell excess energy,  prosumer -> consumer\r\n    function sellEnergy(uint transferAmount) public {\r\n        require(address_Prosumer[msg.sender].energyBalance >= transferAmount, \"Insufficient energy balance\");\r\n        Prosumer storage prosumer = address_Prosumer[msg.sender];\r\n        prosumer.energyBalance -= transferAmount;\r\n        prosumer.wallet += transferAmount * perUnit;\r\n\r\n        // Emit an event to record the energy sale\r\n        emit EnergyTransferred(msg.sender, address(this), transferAmount * perUnit);\r\n    }\r\n\r\n    // Function to transfer energy from one user to another\r\n    function transferEnergy(address to, uint transferAmount) public {\r\n        require(address_Prosumer[msg.sender].energyBalance >= transferAmount, \"Not enough energy to transfer\");\r\n\r\n        Prosumer storage senderDetails = address_Prosumer[msg.sender];\r\n        Prosumer storage receiverDetails = address_Prosumer[to];\r\n\r\n        senderDetails.energyBalance -= transferAmount;\r\n        receiverDetails.energyBalance += transferAmount;\r\n\r\n        // Emit an event to record the energy transfer\r\n        emit EnergyTransferred(msg.sender, to, transferAmount);\r\n    }\r\n\r\n \r\n    Transaction[] public transactions;\r\n\r\n    event TransactionAdded(address indexed from, address indexed to, uint256 amount, uint256 timestamp);\r\n\r\n    function addTransaction(address _from, address _to, uint256 _amount) public {\r\n        transactions.push(Transaction({\r\n            from: _from,\r\n            to: _to,\r\n            amount: _amount,\r\n            timestamp: block.timestamp\r\n        }));\r\n\r\n        emit TransactionAdded(_from, _to, _amount, block.timestamp);\r\n    }\r\n\r\n    function getTransactionCount() public view returns (uint256) {\r\n        return transactions.length;\r\n    }\r\n\r\n    function getTransaction(uint256 index) public view returns (address from, address to, uint256 amount, uint256 timestamp) {\r\n        require(index < transactions.length, \"Transaction index out of bounds\");\r\n        Transaction storage transaction = transactions[index];\r\n        return (transaction.from, transaction.to, transaction.amount, transaction.timestamp);\r\n    }\r\n\r\n// function batteryData() public view returns (uint) {\r\n//     MicroGrid storage tempMicroGrid = microGrids[0];\r\n    \r\n//     require(tempMicroGrid.batteryUsing.length > 0, \"No batteries in Microgrid 0\");\r\n//     require(tempMicroGrid.batteryUsing.length > 0, \"No battery found at index 0\");\r\n\r\n//     Battery storage battery = tempMicroGrid.batteryUsing[0];\r\n//     return battery.maxCharge;\r\n// }\r\nfunction consumerData()public view returns (string memory){\r\n    Consumer memory data = address_Consumer[msg.sender];\r\n    return data.name;\r\n}\r\n\r\nfunction showMicroGridId() public view returns(uint){\r\n    return microGridId ;\r\n}\r\n\r\n\r\n   receive() external payable { }\r\n    fallback() external payable { }\r\n    function getBalance() public view returns (uint) {\r\n    return address(this).balance;\r\n}\r\n    // function sendViaTransfor(address payable  _to , uint amount) public  payable {\r\n    //     _to.transfer(amount);\r\n\r\n    // }\r\n    function sendViaSend(address payable _to) public payable {\r\n        bool sent = _to.send(msg.value);\r\n        require(sent, \"Failed to send Ether\");\r\n}\r\n   \r\n}",
  "sourcePath": "D:\\PS\\NethajiCLone\\project1\\blockChain\\contracts\\Microgrid.sol",
  "compiler": {
    "name": "solc",
    "version": "0.8.11+commit.d7f03943.Emscripten.clang"
  },
  "schemaVersion": "3.4.4",
  "updatedAt": "2023-12-28T09:14:51.045Z",
  "networkType": "ethereum",
  "devdoc": {
    "kind": "dev",
    "methods": {},
    "version": 1
  },
  "userdoc": {
    "kind": "user",
    "methods": {},
    "version": 1
  }
}