{
  "contractName": "Microgrid",
  "abi": [
    {
      "anonymous": false,
      "inputs": [
        {
          "indexed": true,
          "internalType": "address",
          "name": "from",
          "type": "address"
        },
        {
          "indexed": true,
          "internalType": "address",
          "name": "to",
          "type": "address"
        },
        {
          "indexed": false,
          "internalType": "uint256",
          "name": "transferAmount",
          "type": "uint256"
        }
      ],
      "name": "EnergyTransferred",
      "type": "event"
    },
    {
      "anonymous": false,
      "inputs": [
        {
          "indexed": true,
          "internalType": "address",
          "name": "from",
          "type": "address"
        },
        {
          "indexed": true,
          "internalType": "address",
          "name": "to",
          "type": "address"
        },
        {
          "indexed": false,
          "internalType": "uint256",
          "name": "amount",
          "type": "uint256"
        },
        {
          "indexed": false,
          "internalType": "uint256",
          "name": "timestamp",
          "type": "uint256"
        }
      ],
      "name": "TransactionAdded",
      "type": "event"
    },
    {
      "anonymous": false,
      "inputs": [
        {
          "indexed": false,
          "internalType": "uint256",
          "name": "microGridUniqueId",
          "type": "uint256"
        },
        {
          "indexed": false,
          "internalType": "uint256",
          "name": "batteryIndex",
          "type": "uint256"
        },
        {
          "indexed": false,
          "internalType": "uint256",
          "name": "minCapacity",
          "type": "uint256"
        },
        {
          "indexed": false,
          "internalType": "uint256",
          "name": "maxCapacity",
          "type": "uint256"
        },
        {
          "indexed": false,
          "internalType": "uint256",
          "name": "maxCharge",
          "type": "uint256"
        },
        {
          "indexed": false,
          "internalType": "uint16",
          "name": "maxEfficiency",
          "type": "uint16"
        },
        {
          "indexed": false,
          "internalType": "uint16",
          "name": "initSoc",
          "type": "uint16"
        }
      ],
      "name": "addBatteryData",
      "type": "event"
    },
    {
      "anonymous": false,
      "inputs": [
        {
          "indexed": false,
          "internalType": "uint256",
          "name": "microGridUniqueId",
          "type": "uint256"
        },
        {
          "indexed": false,
          "internalType": "uint256",
          "name": "GEId",
          "type": "uint256"
        },
        {
          "indexed": false,
          "internalType": "uint256",
          "name": "energyProduction",
          "type": "uint256"
        }
      ],
      "name": "addGreenEnergyData",
      "type": "event"
    },
    {
      "anonymous": false,
      "inputs": [
        {
          "indexed": false,
          "internalType": "uint256",
          "name": "microGridUniqueId",
          "type": "uint256"
        },
        {
          "indexed": false,
          "internalType": "uint256",
          "name": "gridIndex",
          "type": "uint256"
        },
        {
          "indexed": false,
          "internalType": "uint256",
          "name": "maxImport",
          "type": "uint256"
        },
        {
          "indexed": false,
          "internalType": "uint256",
          "name": "maxExport",
          "type": "uint256"
        }
      ],
      "name": "addGridData",
      "type": "event"
    },
    {
      "anonymous": false,
      "inputs": [
        {
          "indexed": false,
          "internalType": "uint256",
          "name": "microGridUniqueId",
          "type": "uint256"
        },
        {
          "indexed": false,
          "internalType": "uint256",
          "name": "loadId",
          "type": "uint256"
        },
        {
          "indexed": false,
          "internalType": "uint256",
          "name": "energyRequired",
          "type": "uint256"
        }
      ],
      "name": "addLoadData",
      "type": "event"
    },
    {
      "anonymous": false,
      "inputs": [
        {
          "indexed": false,
          "internalType": "uint256",
          "name": "uniqueId",
          "type": "uint256"
        }
      ],
      "name": "microGridAdded",
      "type": "event"
    },
    {
      "anonymous": false,
      "inputs": [
        {
          "indexed": false,
          "internalType": "string",
          "name": "name",
          "type": "string"
        },
        {
          "components": [
            {
              "internalType": "uint256",
              "name": "uniqueID",
              "type": "uint256"
            },
            {
              "internalType": "uint256",
              "name": "minCapacity",
              "type": "uint256"
            },
            {
              "internalType": "uint256",
              "name": "maxCapacity",
              "type": "uint256"
            },
            {
              "internalType": "uint256",
              "name": "maxCharge",
              "type": "uint256"
            },
            {
              "internalType": "uint16",
              "name": "maxEfficiency",
              "type": "uint16"
            },
            {
              "internalType": "uint16",
              "name": "initSoc",
              "type": "uint16"
            }
          ],
          "indexed": false,
          "internalType": "struct Microgrid.Battery[]",
          "name": "batteryUsing",
          "type": "tuple[]"
        },
        {
          "components": [
            {
              "internalType": "uint256",
              "name": "loadId",
              "type": "uint256"
            },
            {
              "internalType": "address",
              "name": "userAddress",
              "type": "address"
            },
            {
              "internalType": "uint256",
              "name": "energyRequired",
              "type": "uint256"
            }
          ],
          "indexed": false,
          "internalType": "struct Microgrid.Load[]",
          "name": "loads",
          "type": "tuple[]"
        },
        {
          "components": [
            {
              "internalType": "uint256",
              "name": "uniqueID",
              "type": "uint256"
            },
            {
              "internalType": "uint256",
              "name": "energyProduction",
              "type": "uint256"
            }
          ],
          "indexed": false,
          "internalType": "struct Microgrid.GreenEnergy[]",
          "name": "greenEnergies",
          "type": "tuple[]"
        },
        {
          "components": [
            {
              "internalType": "uint256",
              "name": "uniqueID",
              "type": "uint256"
            },
            {
              "internalType": "uint256",
              "name": "maxImport",
              "type": "uint256"
            },
            {
              "internalType": "uint256",
              "name": "maxExport",
              "type": "uint256"
            }
          ],
          "indexed": false,
          "internalType": "struct Microgrid.Grid[]",
          "name": "powerGrid",
          "type": "tuple[]"
        }
      ],
      "name": "microgridDetails",
      "type": "event"
    },
    {
      "inputs": [
        {
          "internalType": "address",
          "name": "",
          "type": "address"
        }
      ],
      "name": "address_Consumer",
      "outputs": [
        {
          "internalType": "string",
          "name": "name",
          "type": "string"
        },
        {
          "internalType": "uint256",
          "name": "wallet",
          "type": "uint256"
        },
        {
          "internalType": "uint256",
          "name": "energyBalance",
          "type": "uint256"
        },
        {
          "internalType": "bool",
          "name": "isProducer",
          "type": "bool"
        }
      ],
      "stateMutability": "view",
      "type": "function",
      "constant": true
    },
    {
      "inputs": [
        {
          "internalType": "address",
          "name": "",
          "type": "address"
        }
      ],
      "name": "address_Producer",
      "outputs": [
        {
          "internalType": "string",
          "name": "name",
          "type": "string"
        },
        {
          "internalType": "uint256",
          "name": "uniqueID",
          "type": "uint256"
        },
        {
          "internalType": "bool",
          "name": "isProducer",
          "type": "bool"
        }
      ],
      "stateMutability": "view",
      "type": "function",
      "constant": true
    },
    {
      "inputs": [
        {
          "internalType": "address",
          "name": "",
          "type": "address"
        }
      ],
      "name": "address_Prosumer",
      "outputs": [
        {
          "internalType": "string",
          "name": "name",
          "type": "string"
        },
        {
          "internalType": "uint256",
          "name": "wallet",
          "type": "uint256"
        },
        {
          "internalType": "uint256",
          "name": "energyBalance",
          "type": "uint256"
        },
        {
          "internalType": "bool",
          "name": "isProducer",
          "type": "bool"
        }
      ],
      "stateMutability": "view",
      "type": "function",
      "constant": true
    },
    {
      "inputs": [],
      "name": "microGridId",
      "outputs": [
        {
          "internalType": "uint256",
          "name": "",
          "type": "uint256"
        }
      ],
      "stateMutability": "view",
      "type": "function",
      "constant": true
    },
    {
      "inputs": [
        {
          "internalType": "uint256",
          "name": "",
          "type": "uint256"
        }
      ],
      "name": "microGrids",
      "outputs": [
        {
          "internalType": "string",
          "name": "microGridName",
          "type": "string"
        },
        {
          "internalType": "uint256",
          "name": "uniqueId",
          "type": "uint256"
        }
      ],
      "stateMutability": "view",
      "type": "function",
      "constant": true
    },
    {
      "inputs": [],
      "name": "perUnit",
      "outputs": [
        {
          "internalType": "uint16",
          "name": "",
          "type": "uint16"
        }
      ],
      "stateMutability": "view",
      "type": "function",
      "constant": true
    },
    {
      "inputs": [
        {
          "internalType": "uint256",
          "name": "",
          "type": "uint256"
        }
      ],
      "name": "transactions",
      "outputs": [
        {
          "internalType": "address",
          "name": "from",
          "type": "address"
        },
        {
          "internalType": "address",
          "name": "to",
          "type": "address"
        },
        {
          "internalType": "uint256",
          "name": "amount",
          "type": "uint256"
        },
        {
          "internalType": "uint256",
          "name": "timestamp",
          "type": "uint256"
        }
      ],
      "stateMutability": "view",
      "type": "function",
      "constant": true
    },
    {
      "inputs": [
        {
          "internalType": "string",
          "name": "name",
          "type": "string"
        }
      ],
      "name": "createMicroGrid",
      "outputs": [],
      "stateMutability": "nonpayable",
      "type": "function"
    },
    {
      "inputs": [
        {
          "internalType": "uint256",
          "name": "id",
          "type": "uint256"
        }
      ],
      "name": "viewMicrogridDetails",
      "outputs": [],
      "stateMutability": "nonpayable",
      "type": "function"
    },
    {
      "inputs": [
        {
          "internalType": "uint256",
          "name": "uniqueId",
          "type": "uint256"
        },
        {
          "internalType": "uint256",
          "name": "minCapacity",
          "type": "uint256"
        },
        {
          "internalType": "uint256",
          "name": "maxCapacity",
          "type": "uint256"
        },
        {
          "internalType": "uint256",
          "name": "maxCharge",
          "type": "uint256"
        },
        {
          "internalType": "uint16",
          "name": "maxEfficiency",
          "type": "uint16"
        },
        {
          "internalType": "uint16",
          "name": "initSoc",
          "type": "uint16"
        }
      ],
      "name": "addBattery",
      "outputs": [],
      "stateMutability": "nonpayable",
      "type": "function"
    },
    {
      "inputs": [
        {
          "internalType": "address",
          "name": "userAddress",
          "type": "address"
        },
        {
          "internalType": "uint256",
          "name": "energyRequired",
          "type": "uint256"
        },
        {
          "internalType": "uint256",
          "name": "uniqueId",
          "type": "uint256"
        }
      ],
      "name": "addLoad",
      "outputs": [],
      "stateMutability": "nonpayable",
      "type": "function"
    },
    {
      "inputs": [
        {
          "internalType": "uint256",
          "name": "energyProduction",
          "type": "uint256"
        },
        {
          "internalType": "uint256",
          "name": "uniqueId",
          "type": "uint256"
        }
      ],
      "name": "addGreenEnergy",
      "outputs": [],
      "stateMutability": "nonpayable",
      "type": "function"
    },
    {
      "inputs": [
        {
          "internalType": "uint256",
          "name": "maxImport",
          "type": "uint256"
        },
        {
          "internalType": "uint256",
          "name": "maxExport",
          "type": "uint256"
        },
        {
          "internalType": "uint256",
          "name": "uniqueId",
          "type": "uint256"
        }
      ],
      "name": "addPowerGrid",
      "outputs": [],
      "stateMutability": "nonpayable",
      "type": "function"
    },
    {
      "inputs": [
        {
          "internalType": "string",
          "name": "name",
          "type": "string"
        },
        {
          "internalType": "uint256",
          "name": "uniqueID",
          "type": "uint256"
        }
      ],
      "name": "addProducer",
      "outputs": [],
      "stateMutability": "nonpayable",
      "type": "function"
    },
    {
      "inputs": [
        {
          "internalType": "string",
          "name": "name",
          "type": "string"
        },
        {
          "internalType": "uint256",
          "name": "wallet",
          "type": "uint256"
        },
        {
          "internalType": "uint256",
          "name": "energyBalance",
          "type": "uint256"
        }
      ],
      "name": "addProsumer",
      "outputs": [],
      "stateMutability": "nonpayable",
      "type": "function"
    },
    {
      "inputs": [
        {
          "internalType": "string",
          "name": "name",
          "type": "string"
        },
        {
          "internalType": "uint256",
          "name": "wallet",
          "type": "uint256"
        },
        {
          "internalType": "uint256",
          "name": "energyBalance",
          "type": "uint256"
        }
      ],
      "name": "addConsumer",
      "outputs": [],
      "stateMutability": "nonpayable",
      "type": "function"
    },
    {
      "inputs": [
        {
          "internalType": "uint256",
          "name": "transferAmount",
          "type": "uint256"
        }
      ],
      "name": "purchaseEnergy",
      "outputs": [],
      "stateMutability": "nonpayable",
      "type": "function"
    },
    {
      "inputs": [
        {
          "internalType": "uint256",
          "name": "transferAmount",
          "type": "uint256"
        }
      ],
      "name": "sellEnergy",
      "outputs": [],
      "stateMutability": "nonpayable",
      "type": "function"
    },
    {
      "inputs": [
        {
          "internalType": "address",
          "name": "to",
          "type": "address"
        },
        {
          "internalType": "uint256",
          "name": "transferAmount",
          "type": "uint256"
        }
      ],
      "name": "transferEnergy",
      "outputs": [],
      "stateMutability": "nonpayable",
      "type": "function"
    },
    {
      "inputs": [
        {
          "internalType": "address",
          "name": "_from",
          "type": "address"
        },
        {
          "internalType": "address",
          "name": "_to",
          "type": "address"
        },
        {
          "internalType": "uint256",
          "name": "_amount",
          "type": "uint256"
        }
      ],
      "name": "addTransaction",
      "outputs": [],
      "stateMutability": "nonpayable",
      "type": "function"
    },
    {
      "inputs": [],
      "name": "getTransactionCount",
      "outputs": [
        {
          "internalType": "uint256",
          "name": "",
          "type": "uint256"
        }
      ],
      "stateMutability": "view",
      "type": "function",
      "constant": true
    },
    {
      "inputs": [
        {
          "internalType": "uint256",
          "name": "index",
          "type": "uint256"
        }
      ],
      "name": "getTransaction",
      "outputs": [
        {
          "internalType": "address",
          "name": "from",
          "type": "address"
        },
        {
          "internalType": "address",
          "name": "to",
          "type": "address"
        },
        {
          "internalType": "uint256",
          "name": "amount",
          "type": "uint256"
        },
        {
          "internalType": "uint256",
          "name": "timestamp",
          "type": "uint256"
        }
      ],
      "stateMutability": "view",
      "type": "function",
      "constant": true
    },
    {
      "inputs": [],
      "name": "consumerData",
      "outputs": [
        {
          "internalType": "string",
          "name": "",
          "type": "string"
        }
      ],
      "stateMutability": "view",
      "type": "function",
      "constant": true
    },
    {
      "inputs": [],
      "name": "showMicroGridId",
      "outputs": [
        {
          "internalType": "uint256",
          "name": "",
          "type": "uint256"
        }
      ],
      "stateMutability": "view",
      "type": "function",
      "constant": true
    }
  ],
  "bytecode": "0x608060405260146000806101000a81548161ffff021916908361ffff160217905550600060015534801561003257600080fd5b5061303a806100426000396000f3fe608060405234801561001057600080fd5b50600436106101585760003560e01c8063929b67f5116100c3578063d5f348b01161007c578063d5f348b0146103e2578063db0dcf9914610400578063e1cf9a271461041c578063e7054bcd14610438578063e8e52bb214610456578063fe73b27f1461047257610158565b8063929b67f51461030c5780639ace38c214610328578063a0a0db3d1461035b578063a990593914610377578063bb4e941814610393578063c8669544146103af57610158565b80634326ee36116101155780634326ee36146102375780634eb40676146102535780634f9ccc0c1461026f5780635b07ee1b146102a25780636afe2520146102be5780637e3504e0146102da57610158565b8063173017fb1461015d57806319f336421461017b5780631a8e71b3146101ac5780632e41c1c2146101c85780632e7700f0146101e657806333ea3dc814610204575b600080fd5b61016561048e565b6040516101729190611c7e565b60405180910390f35b61019560048036038101906101909190611ce3565b6104a0565b6040516101a3929190611db8565b60405180910390f35b6101c660048036038101906101c19190611de8565b61054c565b005b6101d06106b1565b6040516101dd9190611e3b565b60405180910390f35b6101ee6106bb565b6040516101fb9190611e3b565b60405180910390f35b61021e60048036038101906102199190611ce3565b6106c8565b60405161022e9493929190611e97565b60405180910390f35b610251600480360381019061024c9190611ce3565b61079f565b005b61026d60048036038101906102689190612011565b610940565b005b61028960048036038101906102849190612099565b6109f1565b60405161029994939291906120e1565b60405180910390f35b6102bc60048036038101906102b79190611ce3565b610ab6565b005b6102d860048036038101906102d39190611ce3565b610bb5565b005b6102f460048036038101906102ef9190612099565b610d39565b6040516103039392919061212d565b60405180910390f35b61032660048036038101906103219190612197565b610df8565b005b610342600480360381019061033d9190611ce3565b610fd0565b6040516103529493929190611e97565b60405180910390f35b61037560048036038101906103709190612224565b611050565b005b610391600480360381019061038c9190612293565b611112565b005b6103ad60048036038101906103a891906122d3565b6112be565b005b6103c960048036038101906103c49190612099565b611410565b6040516103d994939291906120e1565b60405180910390f35b6103ea6114d5565b6040516103f79190611e3b565b60405180910390f35b61041a60048036038101906104159190612313565b6114db565b005b61043660048036038101906104319190612366565b611697565b005b6104406117c2565b60405161044d91906123af565b60405180910390f35b610470600480360381019061046b9190612224565b6118de565b005b61048c600480360381019061048791906123d1565b611a36565b005b60008054906101000a900461ffff1681565b60026020528060005260406000206000915090508060000180546104c390612453565b80601f01602080910402602001604051908101604052809291908181526020018280546104ef90612453565b801561053c5780601f106105115761010080835404028352916020019161053c565b820191906000526020600020905b81548152906001019060200180831161051f57829003601f168201915b5050505050908060010154905082565b60011515600560003373ffffffffffffffffffffffffffffffffffffffff1673ffffffffffffffffffffffffffffffffffffffff16815260200190815260200160002060020160009054906101000a900460ff161515146105e2576040517f08c379a00000000000000000000000000000000000000000000000000000000081526004016105d9906124f7565b60405180910390fd5b600060026000838152602001908152602001600020905060008160050180549050905081600501604051806060016040528083815260200187815260200186815250908060018154018082558091505060019003906000526020600020906003020160009091909190915060008201518160000155602082015181600101556040820151816002015550507f9e63addff2a268980d5d4134d018aa9a803eb5cf055d616dfcafb706574d8080838287876040516106a29493929190612517565b60405180910390a15050505050565b6000600154905090565b6000600680549050905090565b6000806000806006805490508510610715576040517f08c379a000000000000000000000000000000000000000000000000000000000815260040161070c906125a8565b60405180910390fd5b60006006868154811061072b5761072a6125c8565b5b906000526020600020906004020190508060000160009054906101000a900473ffffffffffffffffffffffffffffffffffffffff168160010160009054906101000a900473ffffffffffffffffffffffffffffffffffffffff16826002015483600301549450945094509450509193509193565b80600360003373ffffffffffffffffffffffffffffffffffffffff1673ffffffffffffffffffffffffffffffffffffffff168152602001908152602001600020600201541015610824576040517f08c379a000000000000000000000000000000000000000000000000000000000815260040161081b90612643565b60405180910390fd5b6000600360003373ffffffffffffffffffffffffffffffffffffffff1673ffffffffffffffffffffffffffffffffffffffff16815260200190815260200160002090508181600201600082825461087b9190612692565b9250508190555060008054906101000a900461ffff1661ffff16826108a091906126c6565b8160010160008282546108b39190612720565b925050819055503073ffffffffffffffffffffffffffffffffffffffff163373ffffffffffffffffffffffffffffffffffffffff167f314d9d54f4824ae491ddf2a96075427b4aa537d03004255d1ebaf12ffd29f3d860008054906101000a900461ffff1661ffff168561092791906126c6565b6040516109349190611e3b565b60405180910390a35050565b6000604051806060016040528084815260200183815260200160011515815250905080600560003373ffffffffffffffffffffffffffffffffffffffff1673ffffffffffffffffffffffffffffffffffffffff16815260200190815260200160002060008201518160000190805190602001906109be929190611bbe565b506020820151816001015560408201518160020160006101000a81548160ff021916908315150217905550905050505050565b6003602052806000526040600020600091509050806000018054610a1490612453565b80601f0160208091040260200160405190810160405280929190818152602001828054610a4090612453565b8015610a8d5780601f10610a6257610100808354040283529160200191610a8d565b820191906000526020600020905b815481529060010190602001808311610a7057829003601f168201915b5050505050908060010154908060020154908060030160009054906101000a900460ff16905084565b60011515600560003373ffffffffffffffffffffffffffffffffffffffff1673ffffffffffffffffffffffffffffffffffffffff16815260200190815260200160002060020160009054906101000a900460ff16151514610b4c576040517f08c379a0000000000000000000000000000000000000000000000000000000008152600401610b43906124f7565b60405180910390fd5b60006002600083815260200190815260200160002090507f1cb9d8b6a781473b870341334bc2050bc9018554b70c0b80c9dad51110e67c958160000182600201836003018460040185600501604051610ba9959493929190612d87565b60405180910390a15050565b80600460003373ffffffffffffffffffffffffffffffffffffffff1673ffffffffffffffffffffffffffffffffffffffff168152602001908152602001600020600101541015610c3a576040517f08c379a0000000000000000000000000000000000000000000000000000000008152600401610c3190612e49565b60405180910390fd5b6000600460003373ffffffffffffffffffffffffffffffffffffffff1673ffffffffffffffffffffffffffffffffffffffff168152602001908152602001600020905081816001016000828254610c919190612692565b9250508190555060008054906101000a900461ffff1661ffff1682610cb69190612e98565b816002016000828254610cc99190612720565b925050819055503073ffffffffffffffffffffffffffffffffffffffff163373ffffffffffffffffffffffffffffffffffffffff167f314d9d54f4824ae491ddf2a96075427b4aa537d03004255d1ebaf12ffd29f3d884604051610d2d9190611e3b565b60405180910390a35050565b6005602052806000526040600020600091509050806000018054610d5c90612453565b80601f0160208091040260200160405190810160405280929190818152602001828054610d8890612453565b8015610dd55780601f10610daa57610100808354040283529160200191610dd5565b820191906000526020600020905b815481529060010190602001808311610db857829003601f168201915b5050505050908060010154908060020160009054906101000a900460ff16905083565b60011515600560003373ffffffffffffffffffffffffffffffffffffffff1673ffffffffffffffffffffffffffffffffffffffff16815260200190815260200160002060020160009054906101000a900460ff16151514610e8e576040517f08c379a0000000000000000000000000000000000000000000000000000000008152600401610e85906124f7565b60405180910390fd5b6000600260008881526020019081526020016000209050600081600201805490509050816002016040518060c001604052808381526020018981526020018881526020018781526020018661ffff1681526020018561ffff1681525090806001815401808255809150506001900390600052602060002090600502016000909190919091506000820151816000015560208201518160010155604082015181600201556060820151816003015560808201518160040160006101000a81548161ffff021916908361ffff16021790555060a08201518160040160026101000a81548161ffff021916908361ffff16021790555050507f7a996c70a429d049c375510397afdd445f2d8df80e1275624b60232bfda9590a88828989898989604051610fbe9796959493929190612ec9565b60405180910390a15050505050505050565b60068181548110610fe057600080fd5b90600052602060002090600402016000915090508060000160009054906101000a900473ffffffffffffffffffffffffffffffffffffffff16908060010160009054906101000a900473ffffffffffffffffffffffffffffffffffffffff16908060020154908060030154905084565b6000604051806080016040528085815260200184815260200183815260200160001515815250905080600460003373ffffffffffffffffffffffffffffffffffffffff1673ffffffffffffffffffffffffffffffffffffffff16815260200190815260200160002060008201518160000190805190602001906110d4929190611bbe565b50602082015181600101556040820151816002015560608201518160030160006101000a81548160ff02191690831515021790555090505050505050565b80600360003373ffffffffffffffffffffffffffffffffffffffff1673ffffffffffffffffffffffffffffffffffffffff168152602001908152602001600020600201541015611197576040517f08c379a000000000000000000000000000000000000000000000000000000000815260040161118e90612f84565b60405180910390fd5b6000600360003373ffffffffffffffffffffffffffffffffffffffff1673ffffffffffffffffffffffffffffffffffffffff16815260200190815260200160002090506000600360008573ffffffffffffffffffffffffffffffffffffffff1673ffffffffffffffffffffffffffffffffffffffff1681526020019081526020016000209050828260020160008282546112319190612692565b925050819055508281600201600082825461124c9190612720565b925050819055508373ffffffffffffffffffffffffffffffffffffffff163373ffffffffffffffffffffffffffffffffffffffff167f314d9d54f4824ae491ddf2a96075427b4aa537d03004255d1ebaf12ffd29f3d8856040516112b09190611e3b565b60405180910390a350505050565b60011515600560003373ffffffffffffffffffffffffffffffffffffffff1673ffffffffffffffffffffffffffffffffffffffff16815260200190815260200160002060020160009054906101000a900460ff16151514611354576040517f08c379a000000000000000000000000000000000000000000000000000000000815260040161134b906124f7565b60405180910390fd5b6000600260008381526020019081526020016000209050600081600401805490509050816004016040518060400160405280838152602001868152509080600181540180825580915050600190039060005260206000209060020201600090919091909150600082015181600001556020820151816001015550507f8958c8421e726370f40732f54a916d044118d6165e5df33e006655b9da1e1d9783828660405161140293929190612fa4565b60405180910390a150505050565b600460205280600052604060002060009150905080600001805461143390612453565b80601f016020809104026020016040519081016040528092919081815260200182805461145f90612453565b80156114ac5780601f10611481576101008083540402835291602001916114ac565b820191906000526020600020905b81548152906001019060200180831161148f57829003601f168201915b5050505050908060010154908060020154908060030160009054906101000a900460ff16905084565b60015481565b60011515600560003373ffffffffffffffffffffffffffffffffffffffff1673ffffffffffffffffffffffffffffffffffffffff16815260200190815260200160002060020160009054906101000a900460ff16151514611571576040517f08c379a0000000000000000000000000000000000000000000000000000000008152600401611568906124f7565b60405180910390fd5b6000600260008381526020019081526020016000209050600081600301805490509050600060405180606001604052808381526020018773ffffffffffffffffffffffffffffffffffffffff168152602001868152509050826003018190806001815401808255809150506001900390600052602060002090600302016000909190919091506000820151816000015560208201518160010160006101000a81548173ffffffffffffffffffffffffffffffffffffffff021916908373ffffffffffffffffffffffffffffffffffffffff1602179055506040820151816002015550507fefed7b98763026eeab78219b0816974fb4f56818ab8546317f0a2473fe850e2784838760405161168793929190612fa4565b60405180910390a1505050505050565b60011515600560003373ffffffffffffffffffffffffffffffffffffffff1673ffffffffffffffffffffffffffffffffffffffff16815260200190815260200160002060020160009054906101000a900460ff1615151461172d576040517f08c379a0000000000000000000000000000000000000000000000000000000008152600401611724906124f7565b60405180910390fd5b600060026000600154815260200190815260200160002090508181600001908051906020019061175e929190611bbe565b506001548160010181905550600180600082825461177c9190612720565b925050819055507f8a0a41db407a6cb0066cbae19d90b07c19f10e171e35200eb9aff273654effab81600101546040516117b69190611e3b565b60405180910390a15050565b60606000600460003373ffffffffffffffffffffffffffffffffffffffff1673ffffffffffffffffffffffffffffffffffffffff16815260200190815260200160002060405180608001604052908160008201805461182090612453565b80601f016020809104026020016040519081016040528092919081815260200182805461184c90612453565b80156118995780601f1061186e57610100808354040283529160200191611899565b820191906000526020600020905b81548152906001019060200180831161187c57829003601f168201915b5050505050815260200160018201548152602001600282015481526020016003820160009054906101000a900460ff1615151515815250509050806000015191505090565b60011515600560003373ffffffffffffffffffffffffffffffffffffffff1673ffffffffffffffffffffffffffffffffffffffff16815260200190815260200160002060020160009054906101000a900460ff16151514611974576040517f08c379a000000000000000000000000000000000000000000000000000000000815260040161196b906124f7565b60405180910390fd5b6000604051806080016040528085815260200184815260200183815260200160001515815250905080600360003373ffffffffffffffffffffffffffffffffffffffff1673ffffffffffffffffffffffffffffffffffffffff16815260200190815260200160002060008201518160000190805190602001906119f8929190611bbe565b50602082015181600101556040820151816002015560608201518160030160006101000a81548160ff02191690831515021790555090505050505050565b600660405180608001604052808573ffffffffffffffffffffffffffffffffffffffff1681526020018473ffffffffffffffffffffffffffffffffffffffff16815260200183815260200142815250908060018154018082558091505060019003906000526020600020906004020160009091909190915060008201518160000160006101000a81548173ffffffffffffffffffffffffffffffffffffffff021916908373ffffffffffffffffffffffffffffffffffffffff16021790555060208201518160010160006101000a81548173ffffffffffffffffffffffffffffffffffffffff021916908373ffffffffffffffffffffffffffffffffffffffff160217905550604082015181600201556060820151816003015550508173ffffffffffffffffffffffffffffffffffffffff168373ffffffffffffffffffffffffffffffffffffffff167fccfcbe7d87150baa95519e68f762fa01b73a0b0f1f1f2c649cea60f79053115f8342604051611bb1929190612fdb565b60405180910390a3505050565b828054611bca90612453565b90600052602060002090601f016020900481019282611bec5760008555611c33565b82601f10611c0557805160ff1916838001178555611c33565b82800160010185558215611c33579182015b82811115611c32578251825591602001919060010190611c17565b5b509050611c409190611c44565b5090565b5b80821115611c5d576000816000905550600101611c45565b5090565b600061ffff82169050919050565b611c7881611c61565b82525050565b6000602082019050611c936000830184611c6f565b92915050565b6000604051905090565b600080fd5b600080fd5b6000819050919050565b611cc081611cad565b8114611ccb57600080fd5b50565b600081359050611cdd81611cb7565b92915050565b600060208284031215611cf957611cf8611ca3565b5b6000611d0784828501611cce565b91505092915050565b600081519050919050565b600082825260208201905092915050565b60005b83811015611d4a578082015181840152602081019050611d2f565b83811115611d59576000848401525b50505050565b6000601f19601f8301169050919050565b6000611d7b82611d10565b611d858185611d1b565b9350611d95818560208601611d2c565b611d9e81611d5f565b840191505092915050565b611db281611cad565b82525050565b60006040820190508181036000830152611dd28185611d70565b9050611de16020830184611da9565b9392505050565b600080600060608486031215611e0157611e00611ca3565b5b6000611e0f86828701611cce565b9350506020611e2086828701611cce565b9250506040611e3186828701611cce565b9150509250925092565b6000602082019050611e506000830184611da9565b92915050565b600073ffffffffffffffffffffffffffffffffffffffff82169050919050565b6000611e8182611e56565b9050919050565b611e9181611e76565b82525050565b6000608082019050611eac6000830187611e88565b611eb96020830186611e88565b611ec66040830185611da9565b611ed36060830184611da9565b95945050505050565b600080fd5b600080fd5b7f4e487b7100000000000000000000000000000000000000000000000000000000600052604160045260246000fd5b611f1e82611d5f565b810181811067ffffffffffffffff82111715611f3d57611f3c611ee6565b5b80604052505050565b6000611f50611c99565b9050611f5c8282611f15565b919050565b600067ffffffffffffffff821115611f7c57611f7b611ee6565b5b611f8582611d5f565b9050602081019050919050565b82818337600083830152505050565b6000611fb4611faf84611f61565b611f46565b905082815260208101848484011115611fd057611fcf611ee1565b5b611fdb848285611f92565b509392505050565b600082601f830112611ff857611ff7611edc565b5b8135612008848260208601611fa1565b91505092915050565b6000806040838503121561202857612027611ca3565b5b600083013567ffffffffffffffff81111561204657612045611ca8565b5b61205285828601611fe3565b925050602061206385828601611cce565b9150509250929050565b61207681611e76565b811461208157600080fd5b50565b6000813590506120938161206d565b92915050565b6000602082840312156120af576120ae611ca3565b5b60006120bd84828501612084565b91505092915050565b60008115159050919050565b6120db816120c6565b82525050565b600060808201905081810360008301526120fb8187611d70565b905061210a6020830186611da9565b6121176040830185611da9565b61212460608301846120d2565b95945050505050565b600060608201905081810360008301526121478186611d70565b90506121566020830185611da9565b61216360408301846120d2565b949350505050565b61217481611c61565b811461217f57600080fd5b50565b6000813590506121918161216b565b92915050565b60008060008060008060c087890312156121b4576121b3611ca3565b5b60006121c289828a01611cce565b96505060206121d389828a01611cce565b95505060406121e489828a01611cce565b94505060606121f589828a01611cce565b935050608061220689828a01612182565b92505060a061221789828a01612182565b9150509295509295509295565b60008060006060848603121561223d5761223c611ca3565b5b600084013567ffffffffffffffff81111561225b5761225a611ca8565b5b61226786828701611fe3565b935050602061227886828701611cce565b925050604061228986828701611cce565b9150509250925092565b600080604083850312156122aa576122a9611ca3565b5b60006122b885828601612084565b92505060206122c985828601611cce565b9150509250929050565b600080604083850312156122ea576122e9611ca3565b5b60006122f885828601611cce565b925050602061230985828601611cce565b9150509250929050565b60008060006060848603121561232c5761232b611ca3565b5b600061233a86828701612084565b935050602061234b86828701611cce565b925050604061235c86828701611cce565b9150509250925092565b60006020828403121561237c5761237b611ca3565b5b600082013567ffffffffffffffff81111561239a57612399611ca8565b5b6123a684828501611fe3565b91505092915050565b600060208201905081810360008301526123c98184611d70565b905092915050565b6000806000606084860312156123ea576123e9611ca3565b5b60006123f886828701612084565b935050602061240986828701612084565b925050604061241a86828701611cce565b9150509250925092565b7f4e487b7100000000000000000000000000000000000000000000000000000000600052602260045260246000fd5b6000600282049050600182168061246b57607f821691505b6020821081141561247f5761247e612424565b5b50919050565b7f4f6e6c792050726f6475636572732063616e206163636573732074686973206660008201527f6561747572652e00000000000000000000000000000000000000000000000000602082015250565b60006124e1602783611d1b565b91506124ec82612485565b604082019050919050565b60006020820190508181036000830152612510816124d4565b9050919050565b600060808201905061252c6000830187611da9565b6125396020830186611da9565b6125466040830185611da9565b6125536060830184611da9565b95945050505050565b7f5472616e73616374696f6e20696e646578206f7574206f6620626f756e647300600082015250565b6000612592601f83611d1b565b915061259d8261255c565b602082019050919050565b600060208201905081810360008301526125c181612585565b9050919050565b7f4e487b7100000000000000000000000000000000000000000000000000000000600052603260045260246000fd5b7f496e73756666696369656e7420656e657267792062616c616e63650000000000600082015250565b600061262d601b83611d1b565b9150612638826125f7565b602082019050919050565b6000602082019050818103600083015261265c81612620565b9050919050565b7f4e487b7100000000000000000000000000000000000000000000000000000000600052601160045260246000fd5b600061269d82611cad565b91506126a883611cad565b9250828210156126bb576126ba612663565b5b828203905092915050565b60006126d182611cad565b91506126dc83611cad565b9250817fffffffffffffffffffffffffffffffffffffffffffffffffffffffffffffffff048311821515161561271557612714612663565b5b828202905092915050565b600061272b82611cad565b915061273683611cad565b9250827fffffffffffffffffffffffffffffffffffffffffffffffffffffffffffffffff0382111561276b5761276a612663565b5b828201905092915050565b60008190508160005260206000209050919050565b6000815461279881612453565b6127a28186611d1b565b945060018216600081146127bd57600181146127cf57612802565b60ff1983168652602086019350612802565b6127d885612776565b60005b838110156127fa578154818901526001820191506020810190506127db565b808801955050505b50505092915050565b600081549050919050565b600082825260208201905092915050565b60008190508160005260206000209050919050565b60008160001c9050919050565b6000819050919050565b60006128666128618361283c565b612849565b9050919050565b61287681611cad565b82525050565b600061ffff82169050919050565b600061289d6128988361283c565b61287c565b9050919050565b6128ad81611c61565b82525050565b60008160101c9050919050565b60006128d36128ce836128b3565b61287c565b9050919050565b60c0820160008083015490506128ef81612853565b6128fc600086018261286d565b506001830154905061290d81612853565b61291a602086018261286d565b506002830154905061292b81612853565b612938604086018261286d565b506003830154905061294981612853565b612956606086018261286d565b50600483015490506129678161288a565b61297460808601826128a4565b5061297e816128c0565b61298b60a08601826128a4565b5050505050565b600061299e83836128da565b60c08301905092915050565b6000600582019050919050565b60006129c28261280b565b6129cc8185612816565b93506129d783612827565b8060005b83811015612a0757816129ee8882612992565b97506129f9836129aa565b9250506001810190506129db565b5085935050505092915050565b600081549050919050565b600082825260208201905092915050565b60008190508160005260206000209050919050565b600073ffffffffffffffffffffffffffffffffffffffff82169050919050565b6000612a78612a738361283c565b612a45565b9050919050565b612a8881611e76565b82525050565b606082016000808301549050612aa381612853565b612ab0600086018261286d565b5060018301549050612ac181612a65565b612ace6020860182612a7f565b5060028301549050612adf81612853565b612aec604086018261286d565b5050505050565b6000612aff8383612a8e565b60608301905092915050565b6000600382019050919050565b6000612b2382612a14565b612b2d8185612a1f565b9350612b3883612a30565b8060005b83811015612b685781612b4f8882612af3565b9750612b5a83612b0b565b925050600181019050612b3c565b5085935050505092915050565b600081549050919050565b600082825260208201905092915050565b60008190508160005260206000209050919050565b604082016000808301549050612bbb81612853565b612bc8600086018261286d565b5060018301549050612bd981612853565b612be6602086018261286d565b5050505050565b6000612bf98383612ba6565b60408301905092915050565b6000600282019050919050565b6000612c1d82612b75565b612c278185612b80565b9350612c3283612b91565b8060005b83811015612c625781612c498882612bed565b9750612c5483612c05565b925050600181019050612c36565b5085935050505092915050565b600081549050919050565b600082825260208201905092915050565b60008190508160005260206000209050919050565b606082016000808301549050612cb581612853565b612cc2600086018261286d565b5060018301549050612cd381612853565b612ce0602086018261286d565b5060028301549050612cf181612853565b612cfe604086018261286d565b5050505050565b6000612d118383612ca0565b60608301905092915050565b6000600382019050919050565b6000612d3582612c6f565b612d3f8185612c7a565b9350612d4a83612c8b565b8060005b83811015612d7a5781612d618882612d05565b9750612d6c83612d1d565b925050600181019050612d4e565b5085935050505092915050565b600060a0820190508181036000830152612da1818861278b565b90508181036020830152612db581876129b7565b90508181036040830152612dc98186612b18565b90508181036060830152612ddd8185612c12565b90508181036080830152612df18184612d2a565b90509695505050505050565b7f496e73756666696369656e742062616c616e6365000000000000000000000000600082015250565b6000612e33601483611d1b565b9150612e3e82612dfd565b602082019050919050565b60006020820190508181036000830152612e6281612e26565b9050919050565b7f4e487b7100000000000000000000000000000000000000000000000000000000600052601260045260246000fd5b6000612ea382611cad565b9150612eae83611cad565b925082612ebe57612ebd612e69565b5b828204905092915050565b600060e082019050612ede600083018a611da9565b612eeb6020830189611da9565b612ef86040830188611da9565b612f056060830187611da9565b612f126080830186611da9565b612f1f60a0830185611c6f565b612f2c60c0830184611c6f565b98975050505050505050565b7f4e6f7420656e6f75676820656e6572677920746f207472616e73666572000000600082015250565b6000612f6e601d83611d1b565b9150612f7982612f38565b602082019050919050565b60006020820190508181036000830152612f9d81612f61565b9050919050565b6000606082019050612fb96000830186611da9565b612fc66020830185611da9565b612fd36040830184611da9565b949350505050565b6000604082019050612ff06000830185611da9565b612ffd6020830184611da9565b939250505056fea2646970667358221220ae3359a822cca580919d64f6f59cd2df9628ae3ab9bb567fc773b9fef0f9a48064736f6c634300080b0033",
  "immutableReferences": {},
  "source": "// SPDX-License-Identifier: MIT\r\npragma solidity ^0.8.0;\r\n\r\ncontract Microgrid {\r\n    uint16 public perUnit = 20;\r\n    uint public microGridId = 0;\r\n\r\n    struct Prosumer {\r\n        string name;\r\n        uint wallet;\r\n        uint energyBalance;\r\n        bool isProducer;\r\n    }\r\n\r\n    struct Consumer{\r\n        string name;\r\n        uint wallet;\r\n        uint energyBalance;\r\n        bool isProducer;\r\n    }\r\n\r\n    struct Producer{\r\n        string name;\r\n        uint uniqueID;\r\n        bool isProducer;\r\n    }\r\n\r\n    struct Battery {\r\n        uint uniqueID;\r\n        uint minCapacity;\r\n        uint maxCapacity;\r\n        uint maxCharge;\r\n        uint16 maxEfficiency;\r\n        uint16 initSoc;\r\n    }\r\n\r\n    struct Load {\r\n        uint loadId;\r\n        address userAddress;\r\n        uint energyRequired;\r\n    }\r\n\r\n    struct GreenEnergy {\r\n        uint uniqueID;\r\n        uint energyProduction;\r\n    }\r\n\r\n    struct Grid {\r\n        uint uniqueID;\r\n        uint maxImport;\r\n        uint maxExport;\r\n    }\r\n    struct Transaction {\r\n        address from;\r\n        address to;\r\n        uint256 amount;\r\n        uint256 timestamp;\r\n    }\r\n\r\n\r\n    struct MicroGrid {\r\n        string microGridName;\r\n        uint uniqueId;\r\n        Battery[] batteryUsing;\r\n        Load[] loads;\r\n        GreenEnergy[] greenEnergies;\r\n        Grid[] powerGrid;\r\n        address[] Prosumers;\r\n        address[] Consumers;\r\n        address[] Producers;\r\n    }\r\n\r\n    mapping(uint => MicroGrid) public microGrids;\r\n    mapping(address => Prosumer) public address_Prosumer;\r\n    mapping(address => Consumer) public address_Consumer;\r\n    mapping(address => Producer) public address_Producer;\r\n\r\n    event microgridDetails(string name, Battery[] batteryUsing, Load[] loads, GreenEnergy[] greenEnergies, Grid[] powerGrid);\r\n    event EnergyTransferred(address indexed from, address indexed to, uint256 transferAmount);\r\n    event microGridAdded(uint uniqueId);\r\n    event addLoadData(uint microGridUniqueId,uint loadId,uint energyRequired);\r\n    event addBatteryData(uint microGridUniqueId,uint batteryIndex,uint minCapacity,uint maxCapacity,uint maxCharge,uint16 maxEfficiency,uint16 initSoc);\r\n    event addGreenEnergyData(uint microGridUniqueId,uint GEId,uint energyProduction);\r\n    event addGridData(uint microGridUniqueId,uint gridIndex,uint maxImport,uint maxExport);\r\n\r\n\r\n\r\n    function createMicroGrid(string memory name) public {\r\n        require (address_Producer[msg.sender].isProducer == true, \"Only Producers can access this feature.\");\r\n        MicroGrid storage tempMicroGrid = microGrids[microGridId];\r\n        tempMicroGrid.microGridName = name;\r\n        tempMicroGrid.uniqueId = microGridId;\r\n        microGridId += 1;\r\n        emit microGridAdded(tempMicroGrid.uniqueId);\r\n    }\r\n\r\n    function viewMicrogridDetails(uint id) public {\r\n        require (address_Producer[msg.sender].isProducer == true, \"Only Producers can access this feature.\");\r\n        MicroGrid storage temp = microGrids[id];\r\n        emit microgridDetails(temp.microGridName, temp.batteryUsing, temp.loads, temp.greenEnergies, temp.powerGrid);\r\n    }\r\n\r\n    function addBattery(\r\n        uint uniqueId,\r\n        uint minCapacity,\r\n        uint maxCapacity,\r\n        uint maxCharge,\r\n        uint16 maxEfficiency,\r\n        uint16 initSoc\r\n    ) public {\r\n        require (address_Producer[msg.sender].isProducer == true, \"Only Producers can access this feature.\");\r\n        MicroGrid storage tempMicroGrid = microGrids[uniqueId];\r\n        uint batteryId = tempMicroGrid.batteryUsing.length;\r\n        tempMicroGrid.batteryUsing.push(Battery(batteryId,minCapacity, maxCapacity, maxCharge, maxEfficiency, initSoc));\r\n        emit addBatteryData(uniqueId, batteryId, minCapacity,maxCapacity, maxCharge, maxEfficiency, initSoc);\r\n}\r\n\r\n    function addLoad(address userAddress, uint energyRequired, uint uniqueId) public {\r\n        require (address_Producer[msg.sender].isProducer == true, \"Only Producers can access this feature.\");\r\n        MicroGrid storage tempMicroGrid = microGrids[uniqueId];\r\n        uint loadId = tempMicroGrid.loads.length;\r\n        Load memory loadItem = Load(loadId, userAddress, energyRequired);\r\n        tempMicroGrid.loads.push(loadItem);\r\n        emit addLoadData(uniqueId,loadId,energyRequired);\r\n    }\r\n\r\n    function addGreenEnergy(uint energyProduction, uint uniqueId) public {\r\n        require (address_Producer[msg.sender].isProducer == true, \"Only Producers can access this feature.\");\r\n        MicroGrid storage tempMicroGrid = microGrids[uniqueId];\r\n        uint greenEnergyId = tempMicroGrid.greenEnergies.length;\r\n        tempMicroGrid.greenEnergies.push(GreenEnergy(greenEnergyId,energyProduction));\r\n        emit addGreenEnergyData(uniqueId,greenEnergyId,energyProduction);\r\n    }\r\n\r\n    function addPowerGrid(uint maxImport, uint maxExport, uint uniqueId) public {\r\n        require (address_Producer[msg.sender].isProducer == true, \"Only Producers can access this feature.\");\r\n        MicroGrid storage tempMicroGrid = microGrids[uniqueId];\r\n        uint gridId = tempMicroGrid.powerGrid.length;\r\n        tempMicroGrid.powerGrid.push(Grid(gridId,maxImport, maxExport));\r\n        emit addGridData(uniqueId,gridId,maxImport,maxExport);\r\n    }\r\n\r\n    function addProducer(string memory name, uint uniqueID) public {\r\n        Producer memory producer = Producer(name, uniqueID, true);\r\n        address_Producer[msg.sender] = producer;\r\n    }\r\n\r\n    function addProsumer(string memory name, uint wallet, uint energyBalance) public {\r\n        require (address_Producer[msg.sender].isProducer == true, \"Only Producers can access this feature.\");\r\n        Prosumer memory prosumer = Prosumer(name, wallet, energyBalance, false);\r\n        address_Prosumer[msg.sender] = prosumer;\r\n    }\r\n\r\n    function addConsumer(string memory name, uint wallet, uint energyBalance) public {\r\n        Consumer memory consumer = Consumer(name, wallet, energyBalance, false);\r\n        address_Consumer[msg.sender] = consumer;\r\n    }\r\n\r\n    // Function to purchase energy  consumer -> prosumer\r\n    function purchaseEnergy(uint transferAmount) public {\r\n        require(address_Consumer[msg.sender].wallet >= transferAmount, \"Insufficient balance\");\r\n\r\n        Consumer storage details = address_Consumer[msg.sender];\r\n        details.wallet -= transferAmount;\r\n        details.energyBalance += transferAmount / perUnit;\r\n\r\n        // Emit an event to record the energy transfer\r\n        emit EnergyTransferred(msg.sender, address(this), transferAmount);\r\n    }\r\n\r\n    // Function to sell excess energy,  prosumer -> consumer\r\n    function sellEnergy(uint transferAmount) public {\r\n        require(address_Prosumer[msg.sender].energyBalance >= transferAmount, \"Insufficient energy balance\");\r\n        Prosumer storage prosumer = address_Prosumer[msg.sender];\r\n        prosumer.energyBalance -= transferAmount;\r\n        prosumer.wallet += transferAmount * perUnit;\r\n\r\n        // Emit an event to record the energy sale\r\n        emit EnergyTransferred(msg.sender, address(this), transferAmount * perUnit);\r\n    }\r\n\r\n    // Function to transfer energy from one user to another\r\n    function transferEnergy(address to, uint transferAmount) public {\r\n        require(address_Prosumer[msg.sender].energyBalance >= transferAmount, \"Not enough energy to transfer\");\r\n\r\n        Prosumer storage senderDetails = address_Prosumer[msg.sender];\r\n        Prosumer storage receiverDetails = address_Prosumer[to];\r\n\r\n        senderDetails.energyBalance -= transferAmount;\r\n        receiverDetails.energyBalance += transferAmount;\r\n\r\n        // Emit an event to record the energy transfer\r\n        emit EnergyTransferred(msg.sender, to, transferAmount);\r\n    }\r\n\r\n \r\n    Transaction[] public transactions;\r\n\r\n    event TransactionAdded(address indexed from, address indexed to, uint256 amount, uint256 timestamp);\r\n\r\n    function addTransaction(address _from, address _to, uint256 _amount) public {\r\n        transactions.push(Transaction({\r\n            from: _from,\r\n            to: _to,\r\n            amount: _amount,\r\n            timestamp: block.timestamp\r\n        }));\r\n\r\n        emit TransactionAdded(_from, _to, _amount, block.timestamp);\r\n    }\r\n\r\n    function getTransactionCount() public view returns (uint256) {\r\n        return transactions.length;\r\n    }\r\n\r\n    function getTransaction(uint256 index) public view returns (address from, address to, uint256 amount, uint256 timestamp) {\r\n        require(index < transactions.length, \"Transaction index out of bounds\");\r\n        Transaction storage transaction = transactions[index];\r\n        return (transaction.from, transaction.to, transaction.amount, transaction.timestamp);\r\n    }\r\n\r\n// function batteryData() public view returns (uint) {\r\n//     MicroGrid storage tempMicroGrid = microGrids[0];\r\n    \r\n//     require(tempMicroGrid.batteryUsing.length > 0, \"No batteries in Microgrid 0\");\r\n//     require(tempMicroGrid.batteryUsing.length > 0, \"No battery found at index 0\");\r\n\r\n//     Battery storage battery = tempMicroGrid.batteryUsing[0];\r\n//     return battery.maxCharge;\r\n// }\r\nfunction consumerData()public view returns (string memory){\r\n    Consumer memory data = address_Consumer[msg.sender];\r\n    return data.name;\r\n}\r\n\r\nfunction showMicroGridId() public view returns(uint){\r\n    return microGridId ;\r\n}\r\n\r\n}",
  "sourcePath": "C:\\Users\\netha\\OneDrive\\Desktop\\TEST\\blockChain\\contracts\\Microgrid.sol",
  "compiler": {
    "name": "solc",
    "version": "0.8.11+commit.d7f03943.Emscripten.clang"
  },
  "schemaVersion": "3.4.16",
  "updatedAt": "2023-12-27T05:49:28.516Z",
  "networkType": "ethereum",
  "devdoc": {
    "kind": "dev",
    "methods": {},
    "version": 1
  },
  "userdoc": {
    "kind": "user",
    "methods": {},
    "version": 1
  }
}