{
  "contractName": "Microgrid",
  "abi": [
    {
      "anonymous": false,
      "inputs": [
        {
          "indexed": true,
          "internalType": "address",
          "name": "from",
          "type": "address"
        },
        {
          "indexed": true,
          "internalType": "address",
          "name": "to",
          "type": "address"
        },
        {
          "indexed": false,
          "internalType": "uint256",
          "name": "transferAmount",
          "type": "uint256"
        }
      ],
      "name": "EnergyTransferred",
      "type": "event"
    },
    {
      "anonymous": false,
      "inputs": [
        {
          "indexed": true,
          "internalType": "address",
          "name": "from",
          "type": "address"
        },
        {
          "indexed": true,
          "internalType": "address",
          "name": "to",
          "type": "address"
        },
        {
          "indexed": false,
          "internalType": "uint256",
          "name": "amount",
          "type": "uint256"
        },
        {
          "indexed": false,
          "internalType": "uint256",
          "name": "timestamp",
          "type": "uint256"
        }
      ],
      "name": "TransactionAdded",
      "type": "event"
    },
    {
      "anonymous": false,
      "inputs": [
        {
          "indexed": false,
          "internalType": "uint256",
          "name": "microGridUniqueId",
          "type": "uint256"
        },
        {
          "indexed": false,
          "internalType": "uint256",
          "name": "batteryIndex",
          "type": "uint256"
        },
        {
          "indexed": false,
          "internalType": "uint256",
          "name": "minCapacity",
          "type": "uint256"
        },
        {
          "indexed": false,
          "internalType": "uint256",
          "name": "maxCapacity",
          "type": "uint256"
        },
        {
          "indexed": false,
          "internalType": "uint256",
          "name": "maxCharge",
          "type": "uint256"
        },
        {
          "indexed": false,
          "internalType": "uint16",
          "name": "maxEfficiency",
          "type": "uint16"
        },
        {
          "indexed": false,
          "internalType": "uint16",
          "name": "initSoc",
          "type": "uint16"
        }
      ],
      "name": "addBatteryData",
      "type": "event"
    },
    {
      "anonymous": false,
      "inputs": [
        {
          "indexed": false,
          "internalType": "uint256",
          "name": "microGridUniqueId",
          "type": "uint256"
        },
        {
          "indexed": false,
          "internalType": "uint256",
          "name": "GEId",
          "type": "uint256"
        },
        {
          "indexed": false,
          "internalType": "uint256",
          "name": "energyProduction",
          "type": "uint256"
        }
      ],
      "name": "addGreenEnergyData",
      "type": "event"
    },
    {
      "anonymous": false,
      "inputs": [
        {
          "indexed": false,
          "internalType": "uint256",
          "name": "microGridUniqueId",
          "type": "uint256"
        },
        {
          "indexed": false,
          "internalType": "uint256",
          "name": "gridIndex",
          "type": "uint256"
        },
        {
          "indexed": false,
          "internalType": "uint256",
          "name": "maxImport",
          "type": "uint256"
        },
        {
          "indexed": false,
          "internalType": "uint256",
          "name": "maxExport",
          "type": "uint256"
        }
      ],
      "name": "addGridData",
      "type": "event"
    },
    {
      "anonymous": false,
      "inputs": [
        {
          "indexed": false,
          "internalType": "uint256",
          "name": "microGridUniqueId",
          "type": "uint256"
        },
        {
          "indexed": false,
          "internalType": "uint256",
          "name": "loadId",
          "type": "uint256"
        },
        {
          "indexed": false,
          "internalType": "uint256",
          "name": "energyRequired",
          "type": "uint256"
        }
      ],
      "name": "addLoadData",
      "type": "event"
    },
    {
      "anonymous": false,
      "inputs": [
        {
          "indexed": false,
          "internalType": "uint256",
          "name": "uniqueId",
          "type": "uint256"
        }
      ],
      "name": "microGridAdded",
      "type": "event"
    },
    {
      "anonymous": false,
      "inputs": [
        {
          "indexed": false,
          "internalType": "string",
          "name": "name",
          "type": "string"
        },
        {
          "components": [
            {
              "internalType": "uint256",
              "name": "uniqueID",
              "type": "uint256"
            },
            {
              "internalType": "uint256",
              "name": "minCapacity",
              "type": "uint256"
            },
            {
              "internalType": "uint256",
              "name": "maxCapacity",
              "type": "uint256"
            },
            {
              "internalType": "uint256",
              "name": "maxCharge",
              "type": "uint256"
            },
            {
              "internalType": "uint16",
              "name": "maxEfficiency",
              "type": "uint16"
            },
            {
              "internalType": "uint16",
              "name": "initSoc",
              "type": "uint16"
            }
          ],
          "indexed": false,
          "internalType": "struct Microgrid.Battery[]",
          "name": "batteryUsing",
          "type": "tuple[]"
        },
        {
          "components": [
            {
              "internalType": "uint256",
              "name": "loadId",
              "type": "uint256"
            },
            {
              "internalType": "address",
              "name": "userAddress",
              "type": "address"
            },
            {
              "internalType": "uint256",
              "name": "energyRequired",
              "type": "uint256"
            }
          ],
          "indexed": false,
          "internalType": "struct Microgrid.Load[]",
          "name": "loads",
          "type": "tuple[]"
        },
        {
          "components": [
            {
              "internalType": "uint256",
              "name": "uniqueID",
              "type": "uint256"
            },
            {
              "internalType": "uint256",
              "name": "energyProduction",
              "type": "uint256"
            }
          ],
          "indexed": false,
          "internalType": "struct Microgrid.GreenEnergy[]",
          "name": "greenEnergies",
          "type": "tuple[]"
        },
        {
          "components": [
            {
              "internalType": "uint256",
              "name": "uniqueID",
              "type": "uint256"
            },
            {
              "internalType": "uint256",
              "name": "maxImport",
              "type": "uint256"
            },
            {
              "internalType": "uint256",
              "name": "maxExport",
              "type": "uint256"
            }
          ],
          "indexed": false,
          "internalType": "struct Microgrid.Grid[]",
          "name": "powerGrid",
          "type": "tuple[]"
        }
      ],
      "name": "microgridDetails",
      "type": "event"
    },
    {
      "inputs": [
        {
          "internalType": "address",
          "name": "",
          "type": "address"
        }
      ],
      "name": "address_Consumer",
      "outputs": [
        {
          "internalType": "string",
          "name": "name",
          "type": "string"
        },
        {
          "internalType": "string",
          "name": "micrometerid",
          "type": "string"
        },
        {
          "internalType": "uint256",
          "name": "energyBalance",
          "type": "uint256"
        },
        {
          "internalType": "uint256",
          "name": "wallet",
          "type": "uint256"
        }
      ],
      "stateMutability": "view",
      "type": "function",
      "constant": true
    },
    {
      "inputs": [
        {
          "internalType": "address",
          "name": "",
          "type": "address"
        }
      ],
      "name": "address_Producer",
      "outputs": [
        {
          "internalType": "string",
          "name": "name",
          "type": "string"
        },
        {
          "internalType": "uint256",
          "name": "uniqueID",
          "type": "uint256"
        },
        {
          "internalType": "bool",
          "name": "isProducer",
          "type": "bool"
        }
      ],
      "stateMutability": "view",
      "type": "function",
      "constant": true
    },
    {
      "inputs": [
        {
          "internalType": "address",
          "name": "",
          "type": "address"
        }
      ],
      "name": "address_Prosumer",
      "outputs": [
        {
          "internalType": "string",
          "name": "name",
          "type": "string"
        },
        {
          "internalType": "uint256",
          "name": "wallet1",
          "type": "uint256"
        },
        {
          "internalType": "uint256",
          "name": "energyBalance",
          "type": "uint256"
        },
        {
          "internalType": "bool",
          "name": "isProducer",
          "type": "bool"
        }
      ],
      "stateMutability": "view",
      "type": "function",
      "constant": true
    },
    {
      "inputs": [],
      "name": "microGridId",
      "outputs": [
        {
          "internalType": "uint256",
          "name": "",
          "type": "uint256"
        }
      ],
      "stateMutability": "view",
      "type": "function",
      "constant": true
    },
    {
      "inputs": [
        {
          "internalType": "uint256",
          "name": "",
          "type": "uint256"
        }
      ],
      "name": "microGrids",
      "outputs": [
        {
          "internalType": "string",
          "name": "microGridName",
          "type": "string"
        },
        {
          "internalType": "uint256",
          "name": "uniqueId",
          "type": "uint256"
        }
      ],
      "stateMutability": "view",
      "type": "function",
      "constant": true
    },
    {
      "inputs": [],
      "name": "perUnit",
      "outputs": [
        {
          "internalType": "uint16",
          "name": "",
          "type": "uint16"
        }
      ],
      "stateMutability": "view",
      "type": "function",
      "constant": true
    },
    {
      "inputs": [
        {
          "internalType": "uint256",
          "name": "",
          "type": "uint256"
        }
      ],
      "name": "transactions",
      "outputs": [
        {
          "internalType": "address",
          "name": "from",
          "type": "address"
        },
        {
          "internalType": "address",
          "name": "to",
          "type": "address"
        },
        {
          "internalType": "uint256",
          "name": "amount",
          "type": "uint256"
        },
        {
          "internalType": "uint256",
          "name": "timestamp",
          "type": "uint256"
        }
      ],
      "stateMutability": "view",
      "type": "function",
      "constant": true
    },
    {
      "inputs": [
        {
          "internalType": "string",
          "name": "name",
          "type": "string"
        }
      ],
      "name": "createMicroGrid",
      "outputs": [],
      "stateMutability": "nonpayable",
      "type": "function"
    },
    {
      "inputs": [
        {
          "internalType": "uint256",
          "name": "id",
          "type": "uint256"
        }
      ],
      "name": "viewMicrogridDetails",
      "outputs": [],
      "stateMutability": "nonpayable",
      "type": "function"
    },
    {
      "inputs": [
        {
          "internalType": "uint256",
          "name": "uniqueId",
          "type": "uint256"
        },
        {
          "internalType": "uint256",
          "name": "minCapacity",
          "type": "uint256"
        },
        {
          "internalType": "uint256",
          "name": "maxCapacity",
          "type": "uint256"
        },
        {
          "internalType": "uint256",
          "name": "maxCharge",
          "type": "uint256"
        },
        {
          "internalType": "uint16",
          "name": "maxEfficiency",
          "type": "uint16"
        },
        {
          "internalType": "uint16",
          "name": "initSoc",
          "type": "uint16"
        }
      ],
      "name": "addBattery",
      "outputs": [],
      "stateMutability": "nonpayable",
      "type": "function"
    },
    {
      "inputs": [
        {
          "internalType": "address",
          "name": "userAddress",
          "type": "address"
        },
        {
          "internalType": "uint256",
          "name": "energyRequired",
          "type": "uint256"
        },
        {
          "internalType": "uint256",
          "name": "uniqueId",
          "type": "uint256"
        }
      ],
      "name": "addLoad",
      "outputs": [],
      "stateMutability": "nonpayable",
      "type": "function"
    },
    {
      "inputs": [
        {
          "internalType": "uint256",
          "name": "energyProduction",
          "type": "uint256"
        },
        {
          "internalType": "uint256",
          "name": "uniqueId",
          "type": "uint256"
        }
      ],
      "name": "addGreenEnergy",
      "outputs": [],
      "stateMutability": "nonpayable",
      "type": "function"
    },
    {
      "inputs": [
        {
          "internalType": "uint256",
          "name": "maxImport",
          "type": "uint256"
        },
        {
          "internalType": "uint256",
          "name": "maxExport",
          "type": "uint256"
        },
        {
          "internalType": "uint256",
          "name": "uniqueId",
          "type": "uint256"
        }
      ],
      "name": "addPowerGrid",
      "outputs": [],
      "stateMutability": "nonpayable",
      "type": "function"
    },
    {
      "inputs": [
        {
          "internalType": "string",
          "name": "name",
          "type": "string"
        },
        {
          "internalType": "uint256",
          "name": "uniqueID",
          "type": "uint256"
        }
      ],
      "name": "addProducer",
      "outputs": [],
      "stateMutability": "nonpayable",
      "type": "function"
    },
    {
      "inputs": [
        {
          "internalType": "string",
          "name": "name",
          "type": "string"
        },
        {
          "internalType": "uint256",
          "name": "wallet1",
          "type": "uint256"
        },
        {
          "internalType": "uint256",
          "name": "energyBalance",
          "type": "uint256"
        }
      ],
      "name": "addProsumer",
      "outputs": [],
      "stateMutability": "nonpayable",
      "type": "function"
    },
    {
      "inputs": [
        {
          "internalType": "string",
          "name": "name",
          "type": "string"
        },
        {
          "internalType": "string",
          "name": "micrometerid",
          "type": "string"
        },
        {
          "internalType": "uint256",
          "name": "energyBalance",
          "type": "uint256"
        }
      ],
      "name": "addConsumer",
      "outputs": [],
      "stateMutability": "nonpayable",
      "type": "function"
    },
    {
      "inputs": [
        {
          "internalType": "uint256",
          "name": "transferUnits",
          "type": "uint256"
        }
      ],
      "name": "purchaseEnergy",
      "outputs": [],
      "stateMutability": "nonpayable",
      "type": "function"
    },
    {
      "inputs": [
        {
          "internalType": "uint256",
          "name": "transferAmount",
          "type": "uint256"
        }
      ],
      "name": "sellEnergy",
      "outputs": [],
      "stateMutability": "nonpayable",
      "type": "function"
    },
    {
      "inputs": [
        {
          "internalType": "address",
          "name": "to",
          "type": "address"
        },
        {
          "internalType": "uint256",
          "name": "transferAmount",
          "type": "uint256"
        }
      ],
      "name": "transferEnergy",
      "outputs": [],
      "stateMutability": "nonpayable",
      "type": "function"
    },
    {
      "inputs": [
        {
          "internalType": "address",
          "name": "_from",
          "type": "address"
        },
        {
          "internalType": "address",
          "name": "_to",
          "type": "address"
        },
        {
          "internalType": "uint256",
          "name": "_amount",
          "type": "uint256"
        }
      ],
      "name": "addTransaction",
      "outputs": [],
      "stateMutability": "nonpayable",
      "type": "function"
    },
    {
      "inputs": [],
      "name": "getTransactionCount",
      "outputs": [
        {
          "internalType": "uint256",
          "name": "",
          "type": "uint256"
        }
      ],
      "stateMutability": "view",
      "type": "function",
      "constant": true
    },
    {
      "inputs": [
        {
          "internalType": "uint256",
          "name": "index",
          "type": "uint256"
        }
      ],
      "name": "getTransaction",
      "outputs": [
        {
          "internalType": "address",
          "name": "from",
          "type": "address"
        },
        {
          "internalType": "address",
          "name": "to",
          "type": "address"
        },
        {
          "internalType": "uint256",
          "name": "amount",
          "type": "uint256"
        },
        {
          "internalType": "uint256",
          "name": "timestamp",
          "type": "uint256"
        }
      ],
      "stateMutability": "view",
      "type": "function",
      "constant": true
    },
    {
      "inputs": [],
      "name": "consumerData",
      "outputs": [
        {
          "internalType": "string",
          "name": "",
          "type": "string"
        }
      ],
      "stateMutability": "view",
      "type": "function",
      "constant": true
    },
    {
      "inputs": [],
      "name": "showMicroGridId",
      "outputs": [
        {
          "internalType": "uint256",
          "name": "",
          "type": "uint256"
        }
      ],
      "stateMutability": "view",
      "type": "function",
      "constant": true
    }
  ],
  "bytecode": "0x608060405260046000806101000a81548161ffff021916908361ffff160217905550600060015534801561003257600080fd5b506132ac806100426000396000f3fe608060405234801561001057600080fd5b50600436106101585760003560e01c80638d662daf116100c3578063d5f348b01161007c578063d5f348b0146103e2578063db0dcf9914610400578063e1cf9a271461041c578063e7054bcd14610438578063e8e52bb214610456578063fe73b27f1461047257610158565b80638d662daf1461030c578063929b67f5146103285780639ace38c214610344578063a990593914610377578063bb4e941814610393578063c8669544146103af57610158565b80634326ee36116101155780634326ee36146102375780634eb40676146102535780634f9ccc0c1461026f5780635b07ee1b146102a25780636afe2520146102be5780637e3504e0146102da57610158565b8063173017fb1461015d57806319f336421461017b5780631a8e71b3146101ac5780632e41c1c2146101c85780632e7700f0146101e657806333ea3dc814610204575b600080fd5b61016561048e565b6040516101729190611e12565b60405180910390f35b61019560048036038101906101909190611e77565b6104a0565b6040516101a3929190611f4c565b60405180910390f35b6101c660048036038101906101c19190611f7c565b61054c565b005b6101d06106b1565b6040516101dd9190611fcf565b60405180910390f35b6101ee6106bb565b6040516101fb9190611fcf565b60405180910390f35b61021e60048036038101906102199190611e77565b6106c8565b60405161022e949392919061202b565b60405180910390f35b610251600480360381019061024c9190611e77565b61079f565b005b61026d600480360381019061026891906121a5565b610940565b005b6102896004803603810190610284919061222d565b6109f1565b6040516102999493929190612275565b60405180910390f35b6102bc60048036038101906102b79190611e77565b610ab6565b005b6102d860048036038101906102d39190611e77565b610bb5565b005b6102f460048036038101906102ef919061222d565b610db1565b604051610303939291906122c1565b60405180910390f35b610326600480360381019061032191906122ff565b610e70565b005b610342600480360381019061033d91906123b6565b610f5c565b005b61035e60048036038101906103599190611e77565b611134565b60405161036e949392919061202b565b60405180910390f35b610391600480360381019061038c9190612443565b6111b4565b005b6103ad60048036038101906103a89190612483565b611360565b005b6103c960048036038101906103c4919061222d565b6114b2565b6040516103d994939291906124c3565b60405180910390f35b6103ea6115f2565b6040516103f79190611fcf565b60405180910390f35b61041a60048036038101906104159190612516565b6115f8565b005b61043660048036038101906104319190612569565b6117b4565b005b6104406118df565b60405161044d91906125b2565b60405180910390f35b610470600480360381019061046b91906125d4565b611a72565b005b61048c60048036038101906104879190612643565b611bca565b005b60008054906101000a900461ffff1681565b60026020528060005260406000206000915090508060000180546104c3906126c5565b80601f01602080910402602001604051908101604052809291908181526020018280546104ef906126c5565b801561053c5780601f106105115761010080835404028352916020019161053c565b820191906000526020600020905b81548152906001019060200180831161051f57829003601f168201915b5050505050908060010154905082565b60011515600560003373ffffffffffffffffffffffffffffffffffffffff1673ffffffffffffffffffffffffffffffffffffffff16815260200190815260200160002060020160009054906101000a900460ff161515146105e2576040517f08c379a00000000000000000000000000000000000000000000000000000000081526004016105d990612769565b60405180910390fd5b600060026000838152602001908152602001600020905060008160050180549050905081600501604051806060016040528083815260200187815260200186815250908060018154018082558091505060019003906000526020600020906003020160009091909190915060008201518160000155602082015181600101556040820151816002015550507f9e63addff2a268980d5d4134d018aa9a803eb5cf055d616dfcafb706574d8080838287876040516106a29493929190612789565b60405180910390a15050505050565b6000600154905090565b6000600680549050905090565b6000806000806006805490508510610715576040517f08c379a000000000000000000000000000000000000000000000000000000000815260040161070c9061281a565b60405180910390fd5b60006006868154811061072b5761072a61283a565b5b906000526020600020906004020190508060000160009054906101000a900473ffffffffffffffffffffffffffffffffffffffff168160010160009054906101000a900473ffffffffffffffffffffffffffffffffffffffff16826002015483600301549450945094509450509193509193565b80600360003373ffffffffffffffffffffffffffffffffffffffff1673ffffffffffffffffffffffffffffffffffffffff168152602001908152602001600020600201541015610824576040517f08c379a000000000000000000000000000000000000000000000000000000000815260040161081b906128b5565b60405180910390fd5b6000600360003373ffffffffffffffffffffffffffffffffffffffff1673ffffffffffffffffffffffffffffffffffffffff16815260200190815260200160002090508181600201600082825461087b9190612904565b9250508190555060008054906101000a900461ffff1661ffff16826108a09190612938565b8160010160008282546108b39190612992565b925050819055503073ffffffffffffffffffffffffffffffffffffffff163373ffffffffffffffffffffffffffffffffffffffff167f314d9d54f4824ae491ddf2a96075427b4aa537d03004255d1ebaf12ffd29f3d860008054906101000a900461ffff1661ffff16856109279190612938565b6040516109349190611fcf565b60405180910390a35050565b6000604051806060016040528084815260200183815260200160011515815250905080600560003373ffffffffffffffffffffffffffffffffffffffff1673ffffffffffffffffffffffffffffffffffffffff16815260200190815260200160002060008201518160000190805190602001906109be929190611d52565b506020820151816001015560408201518160020160006101000a81548160ff021916908315150217905550905050505050565b6003602052806000526040600020600091509050806000018054610a14906126c5565b80601f0160208091040260200160405190810160405280929190818152602001828054610a40906126c5565b8015610a8d5780601f10610a6257610100808354040283529160200191610a8d565b820191906000526020600020905b815481529060010190602001808311610a7057829003601f168201915b5050505050908060010154908060020154908060030160009054906101000a900460ff16905084565b60011515600560003373ffffffffffffffffffffffffffffffffffffffff1673ffffffffffffffffffffffffffffffffffffffff16815260200190815260200160002060020160009054906101000a900460ff16151514610b4c576040517f08c379a0000000000000000000000000000000000000000000000000000000008152600401610b4390612769565b60405180910390fd5b60006002600083815260200190815260200160002090507f1cb9d8b6a781473b870341334bc2050bc9018554b70c0b80c9dad51110e67c958160000182600201836003018460040185600501604051610ba9959493929190612ff9565b60405180910390a15050565b60008054906101000a900461ffff1661ffff1681610bd39190612938565b600460003373ffffffffffffffffffffffffffffffffffffffff1673ffffffffffffffffffffffffffffffffffffffff168152602001908152602001600020600301541015610c57576040517f08c379a0000000000000000000000000000000000000000000000000000000008152600401610c4e906130bb565b60405180910390fd5b6000600460003373ffffffffffffffffffffffffffffffffffffffff1673ffffffffffffffffffffffffffffffffffffffff168152602001908152602001600020905060008054906101000a900461ffff1661ffff1682610cb89190612938565b600460003373ffffffffffffffffffffffffffffffffffffffff1673ffffffffffffffffffffffffffffffffffffffff1681526020019081526020016000206003016000828254610d099190612904565b9250508190555081816002016000828254610d249190612992565b925050819055503073ffffffffffffffffffffffffffffffffffffffff163373ffffffffffffffffffffffffffffffffffffffff167f314d9d54f4824ae491ddf2a96075427b4aa537d03004255d1ebaf12ffd29f3d860008054906101000a900461ffff1661ffff1685610d989190612938565b604051610da59190611fcf565b60405180910390a35050565b6005602052806000526040600020600091509050806000018054610dd4906126c5565b80601f0160208091040260200160405190810160405280929190818152602001828054610e00906126c5565b8015610e4d5780601f10610e2257610100808354040283529160200191610e4d565b820191906000526020600020905b815481529060010190602001808311610e3057829003601f168201915b5050505050908060010154908060020160009054906101000a900460ff16905083565b6000670de0b6b3a76400003373ffffffffffffffffffffffffffffffffffffffff1631610e9d919061310a565b90506000604051806080016040528086815260200185815260200184815260200183815250905080600460003373ffffffffffffffffffffffffffffffffffffffff1673ffffffffffffffffffffffffffffffffffffffff1681526020019081526020016000206000820151816000019080519060200190610f20929190611d52565b506020820151816001019080519060200190610f3d929190611d52565b5060408201518160020155606082015181600301559050505050505050565b60011515600560003373ffffffffffffffffffffffffffffffffffffffff1673ffffffffffffffffffffffffffffffffffffffff16815260200190815260200160002060020160009054906101000a900460ff16151514610ff2576040517f08c379a0000000000000000000000000000000000000000000000000000000008152600401610fe990612769565b60405180910390fd5b6000600260008881526020019081526020016000209050600081600201805490509050816002016040518060c001604052808381526020018981526020018881526020018781526020018661ffff1681526020018561ffff1681525090806001815401808255809150506001900390600052602060002090600502016000909190919091506000820151816000015560208201518160010155604082015181600201556060820151816003015560808201518160040160006101000a81548161ffff021916908361ffff16021790555060a08201518160040160026101000a81548161ffff021916908361ffff16021790555050507f7a996c70a429d049c375510397afdd445f2d8df80e1275624b60232bfda9590a88828989898989604051611122979695949392919061313b565b60405180910390a15050505050505050565b6006818154811061114457600080fd5b90600052602060002090600402016000915090508060000160009054906101000a900473ffffffffffffffffffffffffffffffffffffffff16908060010160009054906101000a900473ffffffffffffffffffffffffffffffffffffffff16908060020154908060030154905084565b80600360003373ffffffffffffffffffffffffffffffffffffffff1673ffffffffffffffffffffffffffffffffffffffff168152602001908152602001600020600201541015611239576040517f08c379a0000000000000000000000000000000000000000000000000000000008152600401611230906131f6565b60405180910390fd5b6000600360003373ffffffffffffffffffffffffffffffffffffffff1673ffffffffffffffffffffffffffffffffffffffff16815260200190815260200160002090506000600360008573ffffffffffffffffffffffffffffffffffffffff1673ffffffffffffffffffffffffffffffffffffffff1681526020019081526020016000209050828260020160008282546112d39190612904565b92505081905550828160020160008282546112ee9190612992565b925050819055508373ffffffffffffffffffffffffffffffffffffffff163373ffffffffffffffffffffffffffffffffffffffff167f314d9d54f4824ae491ddf2a96075427b4aa537d03004255d1ebaf12ffd29f3d8856040516113529190611fcf565b60405180910390a350505050565b60011515600560003373ffffffffffffffffffffffffffffffffffffffff1673ffffffffffffffffffffffffffffffffffffffff16815260200190815260200160002060020160009054906101000a900460ff161515146113f6576040517f08c379a00000000000000000000000000000000000000000000000000000000081526004016113ed90612769565b60405180910390fd5b6000600260008381526020019081526020016000209050600081600401805490509050816004016040518060400160405280838152602001868152509080600181540180825580915050600190039060005260206000209060020201600090919091909150600082015181600001556020820151816001015550507f8958c8421e726370f40732f54a916d044118d6165e5df33e006655b9da1e1d978382866040516114a493929190613216565b60405180910390a150505050565b60046020528060005260406000206000915090508060000180546114d5906126c5565b80601f0160208091040260200160405190810160405280929190818152602001828054611501906126c5565b801561154e5780601f106115235761010080835404028352916020019161154e565b820191906000526020600020905b81548152906001019060200180831161153157829003601f168201915b505050505090806001018054611563906126c5565b80601f016020809104026020016040519081016040528092919081815260200182805461158f906126c5565b80156115dc5780601f106115b1576101008083540402835291602001916115dc565b820191906000526020600020905b8154815290600101906020018083116115bf57829003601f168201915b5050505050908060020154908060030154905084565b60015481565b60011515600560003373ffffffffffffffffffffffffffffffffffffffff1673ffffffffffffffffffffffffffffffffffffffff16815260200190815260200160002060020160009054906101000a900460ff1615151461168e576040517f08c379a000000000000000000000000000000000000000000000000000000000815260040161168590612769565b60405180910390fd5b6000600260008381526020019081526020016000209050600081600301805490509050600060405180606001604052808381526020018773ffffffffffffffffffffffffffffffffffffffff168152602001868152509050826003018190806001815401808255809150506001900390600052602060002090600302016000909190919091506000820151816000015560208201518160010160006101000a81548173ffffffffffffffffffffffffffffffffffffffff021916908373ffffffffffffffffffffffffffffffffffffffff1602179055506040820151816002015550507fefed7b98763026eeab78219b0816974fb4f56818ab8546317f0a2473fe850e278483876040516117a493929190613216565b60405180910390a1505050505050565b60011515600560003373ffffffffffffffffffffffffffffffffffffffff1673ffffffffffffffffffffffffffffffffffffffff16815260200190815260200160002060020160009054906101000a900460ff1615151461184a576040517f08c379a000000000000000000000000000000000000000000000000000000000815260040161184190612769565b60405180910390fd5b600060026000600154815260200190815260200160002090508181600001908051906020019061187b929190611d52565b50600154816001018190555060018060008282546118999190612992565b925050819055507f8a0a41db407a6cb0066cbae19d90b07c19f10e171e35200eb9aff273654effab81600101546040516118d39190611fcf565b60405180910390a15050565b60606000600460003373ffffffffffffffffffffffffffffffffffffffff1673ffffffffffffffffffffffffffffffffffffffff16815260200190815260200160002060405180608001604052908160008201805461193d906126c5565b80601f0160208091040260200160405190810160405280929190818152602001828054611969906126c5565b80156119b65780601f1061198b576101008083540402835291602001916119b6565b820191906000526020600020905b81548152906001019060200180831161199957829003601f168201915b505050505081526020016001820180546119cf906126c5565b80601f01602080910402602001604051908101604052809291908181526020018280546119fb906126c5565b8015611a485780601f10611a1d57610100808354040283529160200191611a48565b820191906000526020600020905b815481529060010190602001808311611a2b57829003601f168201915b50505050508152602001600282015481526020016003820154815250509050806000015191505090565b60011515600560003373ffffffffffffffffffffffffffffffffffffffff1673ffffffffffffffffffffffffffffffffffffffff16815260200190815260200160002060020160009054906101000a900460ff16151514611b08576040517f08c379a0000000000000000000000000000000000000000000000000000000008152600401611aff90612769565b60405180910390fd5b6000604051806080016040528085815260200184815260200183815260200160001515815250905080600360003373ffffffffffffffffffffffffffffffffffffffff1673ffffffffffffffffffffffffffffffffffffffff1681526020019081526020016000206000820151816000019080519060200190611b8c929190611d52565b50602082015181600101556040820151816002015560608201518160030160006101000a81548160ff02191690831515021790555090505050505050565b600660405180608001604052808573ffffffffffffffffffffffffffffffffffffffff1681526020018473ffffffffffffffffffffffffffffffffffffffff16815260200183815260200142815250908060018154018082558091505060019003906000526020600020906004020160009091909190915060008201518160000160006101000a81548173ffffffffffffffffffffffffffffffffffffffff021916908373ffffffffffffffffffffffffffffffffffffffff16021790555060208201518160010160006101000a81548173ffffffffffffffffffffffffffffffffffffffff021916908373ffffffffffffffffffffffffffffffffffffffff160217905550604082015181600201556060820151816003015550508173ffffffffffffffffffffffffffffffffffffffff168373ffffffffffffffffffffffffffffffffffffffff167fccfcbe7d87150baa95519e68f762fa01b73a0b0f1f1f2c649cea60f79053115f8342604051611d4592919061324d565b60405180910390a3505050565b828054611d5e906126c5565b90600052602060002090601f016020900481019282611d805760008555611dc7565b82601f10611d9957805160ff1916838001178555611dc7565b82800160010185558215611dc7579182015b82811115611dc6578251825591602001919060010190611dab565b5b509050611dd49190611dd8565b5090565b5b80821115611df1576000816000905550600101611dd9565b5090565b600061ffff82169050919050565b611e0c81611df5565b82525050565b6000602082019050611e276000830184611e03565b92915050565b6000604051905090565b600080fd5b600080fd5b6000819050919050565b611e5481611e41565b8114611e5f57600080fd5b50565b600081359050611e7181611e4b565b92915050565b600060208284031215611e8d57611e8c611e37565b5b6000611e9b84828501611e62565b91505092915050565b600081519050919050565b600082825260208201905092915050565b60005b83811015611ede578082015181840152602081019050611ec3565b83811115611eed576000848401525b50505050565b6000601f19601f8301169050919050565b6000611f0f82611ea4565b611f198185611eaf565b9350611f29818560208601611ec0565b611f3281611ef3565b840191505092915050565b611f4681611e41565b82525050565b60006040820190508181036000830152611f668185611f04565b9050611f756020830184611f3d565b9392505050565b600080600060608486031215611f9557611f94611e37565b5b6000611fa386828701611e62565b9350506020611fb486828701611e62565b9250506040611fc586828701611e62565b9150509250925092565b6000602082019050611fe46000830184611f3d565b92915050565b600073ffffffffffffffffffffffffffffffffffffffff82169050919050565b600061201582611fea565b9050919050565b6120258161200a565b82525050565b6000608082019050612040600083018761201c565b61204d602083018661201c565b61205a6040830185611f3d565b6120676060830184611f3d565b95945050505050565b600080fd5b600080fd5b7f4e487b7100000000000000000000000000000000000000000000000000000000600052604160045260246000fd5b6120b282611ef3565b810181811067ffffffffffffffff821117156120d1576120d061207a565b5b80604052505050565b60006120e4611e2d565b90506120f082826120a9565b919050565b600067ffffffffffffffff8211156121105761210f61207a565b5b61211982611ef3565b9050602081019050919050565b82818337600083830152505050565b6000612148612143846120f5565b6120da565b90508281526020810184848401111561216457612163612075565b5b61216f848285612126565b509392505050565b600082601f83011261218c5761218b612070565b5b813561219c848260208601612135565b91505092915050565b600080604083850312156121bc576121bb611e37565b5b600083013567ffffffffffffffff8111156121da576121d9611e3c565b5b6121e685828601612177565b92505060206121f785828601611e62565b9150509250929050565b61220a8161200a565b811461221557600080fd5b50565b60008135905061222781612201565b92915050565b60006020828403121561224357612242611e37565b5b600061225184828501612218565b91505092915050565b60008115159050919050565b61226f8161225a565b82525050565b6000608082019050818103600083015261228f8187611f04565b905061229e6020830186611f3d565b6122ab6040830185611f3d565b6122b86060830184612266565b95945050505050565b600060608201905081810360008301526122db8186611f04565b90506122ea6020830185611f3d565b6122f76040830184612266565b949350505050565b60008060006060848603121561231857612317611e37565b5b600084013567ffffffffffffffff81111561233657612335611e3c565b5b61234286828701612177565b935050602084013567ffffffffffffffff81111561236357612362611e3c565b5b61236f86828701612177565b925050604061238086828701611e62565b9150509250925092565b61239381611df5565b811461239e57600080fd5b50565b6000813590506123b08161238a565b92915050565b60008060008060008060c087890312156123d3576123d2611e37565b5b60006123e189828a01611e62565b96505060206123f289828a01611e62565b955050604061240389828a01611e62565b945050606061241489828a01611e62565b935050608061242589828a016123a1565b92505060a061243689828a016123a1565b9150509295509295509295565b6000806040838503121561245a57612459611e37565b5b600061246885828601612218565b925050602061247985828601611e62565b9150509250929050565b6000806040838503121561249a57612499611e37565b5b60006124a885828601611e62565b92505060206124b985828601611e62565b9150509250929050565b600060808201905081810360008301526124dd8187611f04565b905081810360208301526124f18186611f04565b90506125006040830185611f3d565b61250d6060830184611f3d565b95945050505050565b60008060006060848603121561252f5761252e611e37565b5b600061253d86828701612218565b935050602061254e86828701611e62565b925050604061255f86828701611e62565b9150509250925092565b60006020828403121561257f5761257e611e37565b5b600082013567ffffffffffffffff81111561259d5761259c611e3c565b5b6125a984828501612177565b91505092915050565b600060208201905081810360008301526125cc8184611f04565b905092915050565b6000806000606084860312156125ed576125ec611e37565b5b600084013567ffffffffffffffff81111561260b5761260a611e3c565b5b61261786828701612177565b935050602061262886828701611e62565b925050604061263986828701611e62565b9150509250925092565b60008060006060848603121561265c5761265b611e37565b5b600061266a86828701612218565b935050602061267b86828701612218565b925050604061268c86828701611e62565b9150509250925092565b7f4e487b7100000000000000000000000000000000000000000000000000000000600052602260045260246000fd5b600060028204905060018216806126dd57607f821691505b602082108114156126f1576126f0612696565b5b50919050565b7f4f6e6c792050726f6475636572732063616e206163636573732074686973206660008201527f6561747572652e00000000000000000000000000000000000000000000000000602082015250565b6000612753602783611eaf565b915061275e826126f7565b604082019050919050565b6000602082019050818103600083015261278281612746565b9050919050565b600060808201905061279e6000830187611f3d565b6127ab6020830186611f3d565b6127b86040830185611f3d565b6127c56060830184611f3d565b95945050505050565b7f5472616e73616374696f6e20696e646578206f7574206f6620626f756e647300600082015250565b6000612804601f83611eaf565b915061280f826127ce565b602082019050919050565b60006020820190508181036000830152612833816127f7565b9050919050565b7f4e487b7100000000000000000000000000000000000000000000000000000000600052603260045260246000fd5b7f496e73756666696369656e7420656e657267792062616c616e63650000000000600082015250565b600061289f601b83611eaf565b91506128aa82612869565b602082019050919050565b600060208201905081810360008301526128ce81612892565b9050919050565b7f4e487b7100000000000000000000000000000000000000000000000000000000600052601160045260246000fd5b600061290f82611e41565b915061291a83611e41565b92508282101561292d5761292c6128d5565b5b828203905092915050565b600061294382611e41565b915061294e83611e41565b9250817fffffffffffffffffffffffffffffffffffffffffffffffffffffffffffffffff0483118215151615612987576129866128d5565b5b828202905092915050565b600061299d82611e41565b91506129a883611e41565b9250827fffffffffffffffffffffffffffffffffffffffffffffffffffffffffffffffff038211156129dd576129dc6128d5565b5b828201905092915050565b60008190508160005260206000209050919050565b60008154612a0a816126c5565b612a148186611eaf565b94506001821660008114612a2f5760018114612a4157612a74565b60ff1983168652602086019350612a74565b612a4a856129e8565b60005b83811015612a6c57815481890152600182019150602081019050612a4d565b808801955050505b50505092915050565b600081549050919050565b600082825260208201905092915050565b60008190508160005260206000209050919050565b60008160001c9050919050565b6000819050919050565b6000612ad8612ad383612aae565b612abb565b9050919050565b612ae881611e41565b82525050565b600061ffff82169050919050565b6000612b0f612b0a83612aae565b612aee565b9050919050565b612b1f81611df5565b82525050565b60008160101c9050919050565b6000612b45612b4083612b25565b612aee565b9050919050565b60c082016000808301549050612b6181612ac5565b612b6e6000860182612adf565b5060018301549050612b7f81612ac5565b612b8c6020860182612adf565b5060028301549050612b9d81612ac5565b612baa6040860182612adf565b5060038301549050612bbb81612ac5565b612bc86060860182612adf565b5060048301549050612bd981612afc565b612be66080860182612b16565b50612bf081612b32565b612bfd60a0860182612b16565b5050505050565b6000612c108383612b4c565b60c08301905092915050565b6000600582019050919050565b6000612c3482612a7d565b612c3e8185612a88565b9350612c4983612a99565b8060005b83811015612c795781612c608882612c04565b9750612c6b83612c1c565b925050600181019050612c4d565b5085935050505092915050565b600081549050919050565b600082825260208201905092915050565b60008190508160005260206000209050919050565b600073ffffffffffffffffffffffffffffffffffffffff82169050919050565b6000612cea612ce583612aae565b612cb7565b9050919050565b612cfa8161200a565b82525050565b606082016000808301549050612d1581612ac5565b612d226000860182612adf565b5060018301549050612d3381612cd7565b612d406020860182612cf1565b5060028301549050612d5181612ac5565b612d5e6040860182612adf565b5050505050565b6000612d718383612d00565b60608301905092915050565b6000600382019050919050565b6000612d9582612c86565b612d9f8185612c91565b9350612daa83612ca2565b8060005b83811015612dda5781612dc18882612d65565b9750612dcc83612d7d565b925050600181019050612dae565b5085935050505092915050565b600081549050919050565b600082825260208201905092915050565b60008190508160005260206000209050919050565b604082016000808301549050612e2d81612ac5565b612e3a6000860182612adf565b5060018301549050612e4b81612ac5565b612e586020860182612adf565b5050505050565b6000612e6b8383612e18565b60408301905092915050565b6000600282019050919050565b6000612e8f82612de7565b612e998185612df2565b9350612ea483612e03565b8060005b83811015612ed45781612ebb8882612e5f565b9750612ec683612e77565b925050600181019050612ea8565b5085935050505092915050565b600081549050919050565b600082825260208201905092915050565b60008190508160005260206000209050919050565b606082016000808301549050612f2781612ac5565b612f346000860182612adf565b5060018301549050612f4581612ac5565b612f526020860182612adf565b5060028301549050612f6381612ac5565b612f706040860182612adf565b5050505050565b6000612f838383612f12565b60608301905092915050565b6000600382019050919050565b6000612fa782612ee1565b612fb18185612eec565b9350612fbc83612efd565b8060005b83811015612fec5781612fd38882612f77565b9750612fde83612f8f565b925050600181019050612fc0565b5085935050505092915050565b600060a082019050818103600083015261301381886129fd565b905081810360208301526130278187612c29565b9050818103604083015261303b8186612d8a565b9050818103606083015261304f8185612e84565b905081810360808301526130638184612f9c565b90509695505050505050565b7f496e73756666696369656e742062616c616e6365000000000000000000000000600082015250565b60006130a5601483611eaf565b91506130b08261306f565b602082019050919050565b600060208201905081810360008301526130d481613098565b9050919050565b7f4e487b7100000000000000000000000000000000000000000000000000000000600052601260045260246000fd5b600061311582611e41565b915061312083611e41565b9250826131305761312f6130db565b5b828204905092915050565b600060e082019050613150600083018a611f3d565b61315d6020830189611f3d565b61316a6040830188611f3d565b6131776060830187611f3d565b6131846080830186611f3d565b61319160a0830185611e03565b61319e60c0830184611e03565b98975050505050505050565b7f4e6f7420656e6f75676820656e6572677920746f207472616e73666572000000600082015250565b60006131e0601d83611eaf565b91506131eb826131aa565b602082019050919050565b6000602082019050818103600083015261320f816131d3565b9050919050565b600060608201905061322b6000830186611f3d565b6132386020830185611f3d565b6132456040830184611f3d565b949350505050565b60006040820190506132626000830185611f3d565b61326f6020830184611f3d565b939250505056fea264697066735822122053396543abf2164093812d50e5279e1a14e2c940b8e83eb97183162b6e4af99764736f6c634300080b0033",
  "immutableReferences": {},
  "source": "// SPDX-License-Identifier: MIT\r\npragma solidity ^0.8.0;\r\n\r\ncontract Microgrid {\r\n    uint16 public perUnit = 4;\r\n    uint public microGridId = 0;\r\n\r\n    struct Prosumer {\r\n        string name;\r\n        uint wallet1;\r\n        uint energyBalance;\r\n        bool isProducer;\r\n    }\r\n\r\n    struct Consumer{\r\n        string name;\r\n        string micrometerid;\r\n        uint energyBalance;\r\n        uint wallet;\r\n\r\n    }\r\n\r\n    struct Producer{\r\n        string name;\r\n        uint uniqueID;\r\n        bool isProducer;\r\n    }\r\n\r\n    struct Battery {\r\n        uint uniqueID;\r\n        uint minCapacity;\r\n        uint maxCapacity;\r\n        uint maxCharge;\r\n        uint16 maxEfficiency;\r\n        uint16 initSoc;\r\n    }\r\n\r\n    struct Load {\r\n        uint loadId;\r\n        address userAddress;\r\n        uint energyRequired;\r\n    }\r\n\r\n    struct GreenEnergy {\r\n        uint uniqueID;\r\n        uint energyProduction;\r\n    }\r\n\r\n    struct Grid {\r\n        uint uniqueID;\r\n        uint maxImport;\r\n        uint maxExport;\r\n    }\r\n    struct Transaction {\r\n        address from;\r\n        address to;\r\n        uint256 amount;\r\n        uint256 timestamp;\r\n    }\r\n\r\n\r\n    struct MicroGrid {\r\n        string microGridName;\r\n        uint uniqueId;\r\n        Battery[] batteryUsing;\r\n        Load[] loads;\r\n        GreenEnergy[] greenEnergies;\r\n        Grid[] powerGrid;\r\n        address[] Prosumers;\r\n        address[] Consumers;\r\n        address[] Producers;\r\n    }\r\n\r\n    mapping(uint => MicroGrid) public microGrids;\r\n    mapping(address => Prosumer) public address_Prosumer;\r\n    mapping(address => Consumer) public address_Consumer;\r\n    mapping(address => Producer) public address_Producer;\r\n\r\n    event microgridDetails(string name, Battery[] batteryUsing, Load[] loads, GreenEnergy[] greenEnergies, Grid[] powerGrid);\r\n    event EnergyTransferred(address indexed from, address indexed to, uint256 transferAmount);\r\n    event microGridAdded(uint uniqueId);\r\n    event addLoadData(uint microGridUniqueId,uint loadId,uint energyRequired);\r\n    event addBatteryData(uint microGridUniqueId,uint batteryIndex,uint minCapacity,uint maxCapacity,uint maxCharge,uint16 maxEfficiency,uint16 initSoc);\r\n    event addGreenEnergyData(uint microGridUniqueId,uint GEId,uint energyProduction);\r\n    event addGridData(uint microGridUniqueId,uint gridIndex,uint maxImport,uint maxExport);\r\n\r\n\r\n\r\n    function createMicroGrid(string memory name) public {\r\n        require (address_Producer[msg.sender].isProducer == true, \"Only Producers can access this feature.\");\r\n        MicroGrid storage tempMicroGrid = microGrids[microGridId];\r\n        tempMicroGrid.microGridName = name;\r\n        tempMicroGrid.uniqueId = microGridId;\r\n        microGridId += 1;\r\n        emit microGridAdded(tempMicroGrid.uniqueId);\r\n    }\r\n\r\n    function viewMicrogridDetails(uint id) public {\r\n        require (address_Producer[msg.sender].isProducer == true, \"Only Producers can access this feature.\");\r\n        MicroGrid storage temp = microGrids[id];\r\n        emit microgridDetails(temp.microGridName, temp.batteryUsing, temp.loads, temp.greenEnergies, temp.powerGrid);\r\n    }\r\n\r\n    function addBattery(\r\n        uint uniqueId,\r\n        uint minCapacity,\r\n        uint maxCapacity,\r\n        uint maxCharge,\r\n        uint16 maxEfficiency,\r\n        uint16 initSoc\r\n    ) public {\r\n        require (address_Producer[msg.sender].isProducer == true, \"Only Producers can access this feature.\");\r\n        MicroGrid storage tempMicroGrid = microGrids[uniqueId];\r\n        uint batteryId = tempMicroGrid.batteryUsing.length;\r\n        tempMicroGrid.batteryUsing.push(Battery(batteryId,minCapacity, maxCapacity, maxCharge, maxEfficiency, initSoc));\r\n        emit addBatteryData(uniqueId, batteryId, minCapacity,maxCapacity, maxCharge, maxEfficiency, initSoc);\r\n}\r\n\r\n    function addLoad(address userAddress, uint energyRequired, uint uniqueId) public {\r\n        require (address_Producer[msg.sender].isProducer == true, \"Only Producers can access this feature.\");\r\n        MicroGrid storage tempMicroGrid = microGrids[uniqueId];\r\n        uint loadId = tempMicroGrid.loads.length;\r\n        Load memory loadItem = Load(loadId, userAddress, energyRequired);\r\n        tempMicroGrid.loads.push(loadItem);\r\n        emit addLoadData(uniqueId,loadId,energyRequired);\r\n    }\r\n\r\n    function addGreenEnergy(uint energyProduction, uint uniqueId) public {\r\n        require (address_Producer[msg.sender].isProducer == true, \"Only Producers can access this feature.\");\r\n        MicroGrid storage tempMicroGrid = microGrids[uniqueId];\r\n        uint greenEnergyId = tempMicroGrid.greenEnergies.length;\r\n        tempMicroGrid.greenEnergies.push(GreenEnergy(greenEnergyId,energyProduction));\r\n        emit addGreenEnergyData(uniqueId,greenEnergyId,energyProduction);\r\n    }\r\n\r\n    function addPowerGrid(uint maxImport, uint maxExport, uint uniqueId) public {\r\n        require (address_Producer[msg.sender].isProducer == true, \"Only Producers can access this feature.\");\r\n        MicroGrid storage tempMicroGrid = microGrids[uniqueId];\r\n        uint gridId = tempMicroGrid.powerGrid.length;\r\n        tempMicroGrid.powerGrid.push(Grid(gridId,maxImport, maxExport));\r\n        emit addGridData(uniqueId,gridId,maxImport,maxExport);\r\n    }\r\n\r\n    function addProducer(string memory name, uint uniqueID) public {\r\n        Producer memory producer = Producer(name, uniqueID, true);\r\n        address_Producer[msg.sender] = producer;\r\n    }\r\n\r\n    function addProsumer(string memory name, uint wallet1, uint energyBalance) public {\r\n        require (address_Producer[msg.sender].isProducer == true, \"Only Producers can access this feature.\");\r\n        Prosumer memory prosumer = Prosumer(name, wallet1, energyBalance, false);\r\n        address_Prosumer[msg.sender] = prosumer;\r\n    }\r\n\r\n    function addConsumer(string memory name,string memory micrometerid, uint energyBalance) public {\r\n        uint wallet=msg.sender.balance/1 ether;\r\n        Consumer memory consumer = Consumer(name,micrometerid, energyBalance,wallet);\r\n        address_Consumer[msg.sender] = consumer;\r\n    }\r\n\r\n    // Function to purchase energy  consumer -> prosumer\r\n    function purchaseEnergy(uint transferUnits) public {\r\n        require(address_Consumer[msg.sender].wallet >= transferUnits*perUnit, \"Insufficient balance\");\r\n\r\n        Consumer storage details = address_Consumer[msg.sender];\r\n        address_Consumer[msg.sender].wallet -= transferUnits*perUnit;\r\n        details.energyBalance += transferUnits;\r\n\r\n        // Emit an event to record the energy transfer\r\n        emit EnergyTransferred(msg.sender, address(this), transferUnits*perUnit);\r\n    }\r\n\r\n    // Function to sell excess energy,  prosumer -> consumer\r\n    function sellEnergy(uint transferAmount) public {\r\n        require(address_Prosumer[msg.sender].energyBalance >= transferAmount, \"Insufficient energy balance\");\r\n        Prosumer storage prosumer = address_Prosumer[msg.sender];\r\n        prosumer.energyBalance -= transferAmount;\r\n        prosumer.wallet1 += transferAmount * perUnit;\r\n\r\n        // Emit an event to record the energy sale\r\n        emit EnergyTransferred(msg.sender, address(this), transferAmount * perUnit);\r\n    }\r\n\r\n    // Function to transfer energy from one user to another\r\n    function transferEnergy(address to, uint transferAmount) public {\r\n        require(address_Prosumer[msg.sender].energyBalance >= transferAmount, \"Not enough energy to transfer\");\r\n\r\n        Prosumer storage senderDetails = address_Prosumer[msg.sender];\r\n        Prosumer storage receiverDetails = address_Prosumer[to];\r\n\r\n        senderDetails.energyBalance -= transferAmount;\r\n        receiverDetails.energyBalance += transferAmount;\r\n\r\n        // Emit an event to record the energy transfer\r\n        emit EnergyTransferred(msg.sender, to, transferAmount);\r\n    }\r\n\r\n \r\n    Transaction[] public transactions;\r\n\r\n    event TransactionAdded(address indexed from, address indexed to, uint256 amount, uint256 timestamp);\r\n\r\n    function addTransaction(address _from, address _to, uint256 _amount) public {\r\n        transactions.push(Transaction({\r\n            from: _from,\r\n            to: _to,\r\n            amount: _amount,\r\n            timestamp: block.timestamp\r\n        }));\r\n\r\n        emit TransactionAdded(_from, _to, _amount, block.timestamp);\r\n    }\r\n\r\n    function getTransactionCount() public view returns (uint256) {\r\n        return transactions.length;\r\n    }\r\n\r\n    function getTransaction(uint256 index) public view returns (address from, address to, uint256 amount, uint256 timestamp) {\r\n        require(index < transactions.length, \"Transaction index out of bounds\");\r\n        Transaction storage transaction = transactions[index];\r\n        return (transaction.from, transaction.to, transaction.amount, transaction.timestamp);\r\n    }\r\n\r\n// function batteryData() public view returns (uint) {\r\n//     MicroGrid storage tempMicroGrid = microGrids[0];\r\n    \r\n//     require(tempMicroGrid.batteryUsing.length > 0, \"No batteries in Microgrid 0\");\r\n//     require(tempMicroGrid.batteryUsing.length > 0, \"No battery found at index 0\");\r\n\r\n//     Battery storage battery = tempMicroGrid.batteryUsing[0];\r\n//     return battery.maxCharge;\r\n// }\r\nfunction consumerData()public view returns (string memory){\r\n    Consumer memory data = address_Consumer[msg.sender];\r\n    return data.name;\r\n}\r\n\r\nfunction showMicroGridId() public view returns(uint){\r\n    return microGridId ;\r\n}\r\n\r\n\r\n\r\n}",
  "sourcePath": "C:\\Users\\netha\\OneDrive\\Desktop\\TEST\\blockChain\\contracts\\Microgrid.sol",
  "compiler": {
    "name": "solc",
    "version": "0.8.11+commit.d7f03943.Emscripten.clang"
  },
  "schemaVersion": "3.4.16",
  "updatedAt": "2023-12-29T08:48:31.858Z",
  "networkType": "ethereum",
  "devdoc": {
    "kind": "dev",
    "methods": {},
    "version": 1
  },
  "userdoc": {
    "kind": "user",
    "methods": {},
    "version": 1
  }
}