{
  "contractName": "Microgrid",
  "abi": [
    {
      "anonymous": false,
      "inputs": [
        {
          "indexed": true,
          "internalType": "address",
          "name": "from",
          "type": "address"
        },
        {
          "indexed": true,
          "internalType": "address",
          "name": "to",
          "type": "address"
        },
        {
          "indexed": false,
          "internalType": "uint256",
          "name": "transferAmount",
          "type": "uint256"
        }
      ],
      "name": "EnergyTransferred",
      "type": "event"
    },
    {
      "anonymous": false,
      "inputs": [
        {
          "indexed": true,
          "internalType": "address",
          "name": "from",
          "type": "address"
        },
        {
          "indexed": true,
          "internalType": "address",
          "name": "to",
          "type": "address"
        },
        {
          "indexed": false,
          "internalType": "uint256",
          "name": "amount",
          "type": "uint256"
        },
        {
          "indexed": false,
          "internalType": "uint256",
          "name": "timestamp",
          "type": "uint256"
        }
      ],
      "name": "TransactionAdded",
      "type": "event"
    },
    {
      "anonymous": false,
      "inputs": [
        {
          "indexed": false,
          "internalType": "uint256",
          "name": "microGridUniqueId",
          "type": "uint256"
        },
        {
          "indexed": false,
          "internalType": "uint256",
          "name": "batteryIndex",
          "type": "uint256"
        },
        {
          "indexed": false,
          "internalType": "uint256",
          "name": "minCapacity",
          "type": "uint256"
        },
        {
          "indexed": false,
          "internalType": "uint256",
          "name": "maxCapacity",
          "type": "uint256"
        },
        {
          "indexed": false,
          "internalType": "uint256",
          "name": "Charge",
          "type": "uint256"
        },
        {
          "indexed": false,
          "internalType": "uint16",
          "name": "maxEfficiency",
          "type": "uint16"
        },
        {
          "indexed": false,
          "internalType": "uint16",
          "name": "initSoc",
          "type": "uint16"
        }
      ],
      "name": "addBatteryData",
      "type": "event"
    },
    {
      "anonymous": false,
      "inputs": [
        {
          "indexed": false,
          "internalType": "uint256",
          "name": "microGridUniqueId",
          "type": "uint256"
        },
        {
          "indexed": false,
          "internalType": "uint256",
          "name": "GEId",
          "type": "uint256"
        },
        {
          "indexed": false,
          "internalType": "uint256",
          "name": "charge",
          "type": "uint256"
        },
        {
          "indexed": false,
          "internalType": "uint256",
          "name": "energyProduction",
          "type": "uint256"
        }
      ],
      "name": "addGreenEnergyData",
      "type": "event"
    },
    {
      "anonymous": false,
      "inputs": [
        {
          "indexed": false,
          "internalType": "uint256",
          "name": "microGridUniqueId",
          "type": "uint256"
        },
        {
          "indexed": false,
          "internalType": "uint256",
          "name": "gridIndex",
          "type": "uint256"
        },
        {
          "indexed": false,
          "internalType": "uint256",
          "name": "charge",
          "type": "uint256"
        },
        {
          "indexed": false,
          "internalType": "uint256",
          "name": "maxImport",
          "type": "uint256"
        },
        {
          "indexed": false,
          "internalType": "uint256",
          "name": "maxExport",
          "type": "uint256"
        }
      ],
      "name": "addGridData",
      "type": "event"
    },
    {
      "anonymous": false,
      "inputs": [
        {
          "indexed": false,
          "internalType": "uint256",
          "name": "microGridUniqueId",
          "type": "uint256"
        },
        {
          "indexed": false,
          "internalType": "uint256",
          "name": "loadId",
          "type": "uint256"
        },
        {
          "indexed": false,
          "internalType": "uint256",
          "name": "energyRequired",
          "type": "uint256"
        }
      ],
      "name": "addLoadData",
      "type": "event"
    },
    {
      "anonymous": false,
      "inputs": [
        {
          "indexed": false,
          "internalType": "uint256",
          "name": "uniqueId",
          "type": "uint256"
        }
      ],
      "name": "microGridAdded",
      "type": "event"
    },
    {
      "anonymous": false,
      "inputs": [
        {
          "indexed": false,
          "internalType": "string",
          "name": "name",
          "type": "string"
        },
        {
          "components": [
            {
              "internalType": "uint256",
              "name": "uniqueID",
              "type": "uint256"
            },
            {
              "internalType": "uint256",
              "name": "minCapacity",
              "type": "uint256"
            },
            {
              "internalType": "uint256",
              "name": "maxCapacity",
              "type": "uint256"
            },
            {
              "internalType": "uint256",
              "name": "Charge",
              "type": "uint256"
            },
            {
              "internalType": "uint16",
              "name": "maxEfficiency",
              "type": "uint16"
            },
            {
              "internalType": "uint16",
              "name": "initSoc",
              "type": "uint16"
            }
          ],
          "indexed": false,
          "internalType": "struct Microgrid.Battery[]",
          "name": "batteryUsing",
          "type": "tuple[]"
        },
        {
          "components": [
            {
              "internalType": "uint256",
              "name": "loadId",
              "type": "uint256"
            },
            {
              "internalType": "address",
              "name": "userAddress",
              "type": "address"
            },
            {
              "internalType": "uint256",
              "name": "energyRequired",
              "type": "uint256"
            }
          ],
          "indexed": false,
          "internalType": "struct Microgrid.Load[]",
          "name": "loads",
          "type": "tuple[]"
        },
        {
          "components": [
            {
              "internalType": "uint256",
              "name": "uniqueID",
              "type": "uint256"
            },
            {
              "internalType": "uint256",
              "name": "charge",
              "type": "uint256"
            },
            {
              "internalType": "uint256",
              "name": "energyProduction",
              "type": "uint256"
            }
          ],
          "indexed": false,
          "internalType": "struct Microgrid.GreenEnergy[]",
          "name": "greenEnergies",
          "type": "tuple[]"
        },
        {
          "components": [
            {
              "internalType": "uint256",
              "name": "uniqueID",
              "type": "uint256"
            },
            {
              "internalType": "uint256",
              "name": "charge",
              "type": "uint256"
            },
            {
              "internalType": "uint256",
              "name": "maxImport",
              "type": "uint256"
            },
            {
              "internalType": "uint256",
              "name": "maxExport",
              "type": "uint256"
            }
          ],
          "indexed": false,
          "internalType": "struct Microgrid.Grid[]",
          "name": "powerGrid",
          "type": "tuple[]"
        }
      ],
      "name": "microgridDetails",
      "type": "event"
    },
    {
      "inputs": [
        {
          "internalType": "address",
          "name": "",
          "type": "address"
        }
      ],
      "name": "address_Consumer",
      "outputs": [
        {
          "internalType": "string",
          "name": "name",
          "type": "string"
        },
        {
          "internalType": "string",
          "name": "micrometerid",
          "type": "string"
        },
        {
          "internalType": "uint256",
          "name": "energyBalance",
          "type": "uint256"
        },
        {
          "internalType": "uint256",
          "name": "wallet",
          "type": "uint256"
        }
      ],
      "stateMutability": "view",
      "type": "function",
      "constant": true
    },
    {
      "inputs": [
        {
          "internalType": "address",
          "name": "",
          "type": "address"
        }
      ],
      "name": "address_Producer",
      "outputs": [
        {
          "internalType": "string",
          "name": "name",
          "type": "string"
        },
        {
          "internalType": "uint256",
          "name": "uniqueID",
          "type": "uint256"
        },
        {
          "internalType": "bool",
          "name": "isProducer",
          "type": "bool"
        }
      ],
      "stateMutability": "view",
      "type": "function",
      "constant": true
    },
    {
      "inputs": [
        {
          "internalType": "address",
          "name": "",
          "type": "address"
        }
      ],
      "name": "address_Prosumer",
      "outputs": [
        {
          "internalType": "string",
          "name": "name",
          "type": "string"
        },
        {
          "internalType": "uint256",
          "name": "wallet1",
          "type": "uint256"
        },
        {
          "internalType": "uint256",
          "name": "energyBalance",
          "type": "uint256"
        },
        {
          "internalType": "bool",
          "name": "isProducer",
          "type": "bool"
        }
      ],
      "stateMutability": "view",
      "type": "function",
      "constant": true
    },
    {
      "inputs": [],
      "name": "microGridId",
      "outputs": [
        {
          "internalType": "uint256",
          "name": "",
          "type": "uint256"
        }
      ],
      "stateMutability": "view",
      "type": "function",
      "constant": true
    },
    {
      "inputs": [
        {
          "internalType": "uint256",
          "name": "",
          "type": "uint256"
        }
      ],
      "name": "microGrids",
      "outputs": [
        {
          "internalType": "string",
          "name": "microGridName",
          "type": "string"
        },
        {
          "internalType": "uint256",
          "name": "uniqueId",
          "type": "uint256"
        }
      ],
      "stateMutability": "view",
      "type": "function",
      "constant": true
    },
    {
      "inputs": [],
      "name": "perUnit",
      "outputs": [
        {
          "internalType": "uint256",
          "name": "",
          "type": "uint256"
        }
      ],
      "stateMutability": "view",
      "type": "function",
      "constant": true
    },
    {
      "inputs": [
        {
          "internalType": "uint256",
          "name": "",
          "type": "uint256"
        }
      ],
      "name": "transactions",
      "outputs": [
        {
          "internalType": "address",
          "name": "from",
          "type": "address"
        },
        {
          "internalType": "address",
          "name": "to",
          "type": "address"
        },
        {
          "internalType": "uint256",
          "name": "amount",
          "type": "uint256"
        },
        {
          "internalType": "uint256",
          "name": "timestamp",
          "type": "uint256"
        }
      ],
      "stateMutability": "view",
      "type": "function",
      "constant": true
    },
    {
      "inputs": [
        {
          "internalType": "string",
          "name": "name",
          "type": "string"
        }
      ],
      "name": "createMicroGrid",
      "outputs": [],
      "stateMutability": "nonpayable",
      "type": "function"
    },
    {
      "inputs": [
        {
          "internalType": "uint256",
          "name": "id",
          "type": "uint256"
        }
      ],
      "name": "viewMicrogridDetails",
      "outputs": [],
      "stateMutability": "nonpayable",
      "type": "function"
    },
    {
      "inputs": [
        {
          "internalType": "uint256",
          "name": "uniqueId",
          "type": "uint256"
        },
        {
          "internalType": "uint256",
          "name": "minCapacity",
          "type": "uint256"
        },
        {
          "internalType": "uint256",
          "name": "maxCapacity",
          "type": "uint256"
        },
        {
          "internalType": "uint256",
          "name": "Charge",
          "type": "uint256"
        },
        {
          "internalType": "uint16",
          "name": "maxEfficiency",
          "type": "uint16"
        },
        {
          "internalType": "uint16",
          "name": "initSoc",
          "type": "uint16"
        }
      ],
      "name": "addBattery",
      "outputs": [],
      "stateMutability": "nonpayable",
      "type": "function"
    },
    {
      "inputs": [
        {
          "internalType": "address",
          "name": "userAddress",
          "type": "address"
        },
        {
          "internalType": "uint256",
          "name": "energyRequired",
          "type": "uint256"
        },
        {
          "internalType": "uint256",
          "name": "uniqueId",
          "type": "uint256"
        }
      ],
      "name": "addLoad",
      "outputs": [],
      "stateMutability": "nonpayable",
      "type": "function"
    },
    {
      "inputs": [
        {
          "internalType": "uint256",
          "name": "uniqueId",
          "type": "uint256"
        },
        {
          "internalType": "uint256",
          "name": "charge",
          "type": "uint256"
        },
        {
          "internalType": "uint256",
          "name": "energyProduction",
          "type": "uint256"
        }
      ],
      "name": "addGreenEnergy",
      "outputs": [],
      "stateMutability": "nonpayable",
      "type": "function"
    },
    {
      "inputs": [
        {
          "internalType": "uint256",
          "name": "uniqueId",
          "type": "uint256"
        },
        {
          "internalType": "uint256",
          "name": "charge",
          "type": "uint256"
        },
        {
          "internalType": "uint256",
          "name": "maxImport",
          "type": "uint256"
        },
        {
          "internalType": "uint256",
          "name": "maxExport",
          "type": "uint256"
        }
      ],
      "name": "addPowerGrid",
      "outputs": [],
      "stateMutability": "nonpayable",
      "type": "function"
    },
    {
      "inputs": [
        {
          "internalType": "string",
          "name": "name",
          "type": "string"
        },
        {
          "internalType": "uint256",
          "name": "uniqueID",
          "type": "uint256"
        }
      ],
      "name": "addProducer",
      "outputs": [],
      "stateMutability": "nonpayable",
      "type": "function"
    },
    {
      "inputs": [
        {
          "internalType": "uint256",
          "name": "uniqueId",
          "type": "uint256"
        }
      ],
      "name": "addProducerToMicroGrid",
      "outputs": [],
      "stateMutability": "nonpayable",
      "type": "function"
    },
    {
      "inputs": [
        {
          "internalType": "uint256",
          "name": "uniqueId",
          "type": "uint256"
        }
      ],
      "name": "addConsumerToMicroGrid",
      "outputs": [],
      "stateMutability": "nonpayable",
      "type": "function"
    },
    {
      "inputs": [
        {
          "internalType": "uint256",
          "name": "uniqueId",
          "type": "uint256"
        }
      ],
      "name": "showAllProducers",
      "outputs": [
        {
          "internalType": "address[]",
          "name": "",
          "type": "address[]"
        }
      ],
      "stateMutability": "view",
      "type": "function",
      "constant": true
    },
    {
      "inputs": [
        {
          "internalType": "string",
          "name": "name",
          "type": "string"
        },
        {
          "internalType": "string",
          "name": "micrometerid",
          "type": "string"
        },
        {
          "internalType": "uint256",
          "name": "energyBalance",
          "type": "uint256"
        }
      ],
      "name": "addConsumer",
      "outputs": [],
      "stateMutability": "nonpayable",
      "type": "function"
    },
    {
      "inputs": [
        {
          "internalType": "address payable",
          "name": "producer",
          "type": "address"
        }
      ],
      "name": "purchaseEnergy",
      "outputs": [],
      "stateMutability": "payable",
      "type": "function",
      "payable": true
    },
    {
      "inputs": [
        {
          "internalType": "uint256",
          "name": "transferAmount",
          "type": "uint256"
        }
      ],
      "name": "sellEnergy",
      "outputs": [],
      "stateMutability": "nonpayable",
      "type": "function"
    },
    {
      "inputs": [
        {
          "internalType": "address",
          "name": "to",
          "type": "address"
        },
        {
          "internalType": "uint256",
          "name": "transferAmount",
          "type": "uint256"
        }
      ],
      "name": "transferEnergy",
      "outputs": [],
      "stateMutability": "nonpayable",
      "type": "function"
    },
    {
      "inputs": [
        {
          "internalType": "address",
          "name": "_from",
          "type": "address"
        },
        {
          "internalType": "address",
          "name": "_to",
          "type": "address"
        },
        {
          "internalType": "uint256",
          "name": "_amount",
          "type": "uint256"
        }
      ],
      "name": "addTransaction",
      "outputs": [],
      "stateMutability": "nonpayable",
      "type": "function"
    },
    {
      "inputs": [],
      "name": "getTransactionCount",
      "outputs": [
        {
          "internalType": "uint256",
          "name": "",
          "type": "uint256"
        }
      ],
      "stateMutability": "view",
      "type": "function",
      "constant": true
    },
    {
      "inputs": [
        {
          "internalType": "uint256",
          "name": "index",
          "type": "uint256"
        }
      ],
      "name": "getTransaction",
      "outputs": [
        {
          "internalType": "address",
          "name": "from",
          "type": "address"
        },
        {
          "internalType": "address",
          "name": "to",
          "type": "address"
        },
        {
          "internalType": "uint256",
          "name": "amount",
          "type": "uint256"
        },
        {
          "internalType": "uint256",
          "name": "timestamp",
          "type": "uint256"
        }
      ],
      "stateMutability": "view",
      "type": "function",
      "constant": true
    },
    {
      "inputs": [],
      "name": "consumerData",
      "outputs": [
        {
          "internalType": "string",
          "name": "",
          "type": "string"
        }
      ],
      "stateMutability": "view",
      "type": "function",
      "constant": true
    },
    {
      "inputs": [],
      "name": "showMicroGridId",
      "outputs": [
        {
          "internalType": "uint256",
          "name": "",
          "type": "uint256"
        }
      ],
      "stateMutability": "view",
      "type": "function",
      "constant": true
    }
  ],
  "bytecode": "0x6080604052662386f26fc10000600055600060015534801561002057600080fd5b50613776806100306000396000f3fe6080604052600436106101815760003560e01c80637e3504e0116100d1578063c86695441161008a578063db0dcf9911610064578063db0dcf99146105a2578063e1cf9a27146105cb578063e7054bcd146105f4578063fe73b27f1461061f57610181565b8063c86695441461050e578063d5f348b01461054e578063d8392f5a1461057957610181565b80637e3504e0146103eb578063865d3ed01461042a5780638d662daf14610453578063929b67f51461047c5780639ace38c2146104a5578063a9905939146104e557610181565b806333ea3dc81161013e5780634eb40676116101185780634eb406761461033d5780634f9ccc0c146103665780635b07ee1b146103a65780636362f054146103cf57610181565b806333ea3dc8146102ab5780634326ee36146102eb57806346cb3afa1461031457610181565b806303ffcbaa14610186578063173017fb146101af57806319f33642146101da5780632e41c1c2146102185780632e7700f01461024357806331d9c4cc1461026e575b600080fd5b34801561019257600080fd5b506101ad60048036038101906101a891906120c9565b610648565b005b3480156101bb57600080fd5b506101c46107c0565b6040516101d1919061213f565b60405180910390f35b3480156101e657600080fd5b5061020160048036038101906101fc919061215a565b6107c6565b60405161020f929190612220565b60405180910390f35b34801561022457600080fd5b5061022d610872565b60405161023a919061213f565b60405180910390f35b34801561024f57600080fd5b5061025861087c565b604051610265919061213f565b60405180910390f35b34801561027a57600080fd5b506102956004803603810190610290919061215a565b610889565b6040516102a29190612340565b60405180910390f35b3480156102b757600080fd5b506102d260048036038101906102cd919061215a565b61092d565b6040516102e29493929190612371565b60405180910390f35b3480156102f757600080fd5b50610312600480360381019061030d919061215a565b610a04565b005b34801561032057600080fd5b5061033b6004803603810190610336919061215a565b610b85565b005b34801561034957600080fd5b50610364600480360381019061035f91906124eb565b610c8e565b005b34801561037257600080fd5b5061038d60048036038101906103889190612573565b610d3f565b60405161039d94939291906125bb565b60405180910390f35b3480156103b257600080fd5b506103cd60048036038101906103c8919061215a565b610e04565b005b6103e960048036038101906103e49190612645565b610f03565b005b3480156103f757600080fd5b50610412600480360381019061040d9190612573565b611106565b60405161042193929190612672565b60405180910390f35b34801561043657600080fd5b50610451600480360381019061044c91906126b0565b6111c5565b005b34801561045f57600080fd5b5061047a60048036038101906104759190612703565b61132a565b005b34801561048857600080fd5b506104a3600480360381019061049e91906127c8565b611416565b005b3480156104b157600080fd5b506104cc60048036038101906104c7919061215a565b6115ee565b6040516104dc9493929190612371565b60405180910390f35b3480156104f157600080fd5b5061050c60048036038101906105079190612855565b61166e565b005b34801561051a57600080fd5b5061053560048036038101906105309190612573565b61181a565b6040516105459493929190612895565b60405180910390f35b34801561055a57600080fd5b5061056361195a565b604051610570919061213f565b60405180910390f35b34801561058557600080fd5b506105a0600480360381019061059b919061215a565b611960565b005b3480156105ae57600080fd5b506105c960048036038101906105c491906128e8565b6119da565b005b3480156105d757600080fd5b506105f260048036038101906105ed919061293b565b611b96565b005b34801561060057600080fd5b50610609611cc1565b6040516106169190612984565b60405180910390f35b34801561062b57600080fd5b50610646600480360381019061064191906129a6565b611e54565b005b60011515600560003373ffffffffffffffffffffffffffffffffffffffff1673ffffffffffffffffffffffffffffffffffffffff16815260200190815260200160002060020160009054906101000a900460ff161515146106de576040517f08c379a00000000000000000000000000000000000000000000000000000000081526004016106d590612a6b565b60405180910390fd5b60006002600086815260200190815260200160002090506000816005018054905090508160050160405180608001604052808381526020018781526020018681526020018581525090806001815401808255809150506001900390600052602060002090600402016000909190919091506000820151816000015560208201518160010155604082015181600201556060820151816003015550507fd69cb5512dc5fe64ac91c72683f3cc6a8e185659af6317f1efddaa6952cc8e2a86828787876040516107b0959493929190612a8b565b60405180910390a1505050505050565b60005481565b60026020528060005260406000206000915090508060000180546107e990612b0d565b80601f016020809104026020016040519081016040528092919081815260200182805461081590612b0d565b80156108625780601f1061083757610100808354040283529160200191610862565b820191906000526020600020905b81548152906001019060200180831161084557829003601f168201915b5050505050908060010154905082565b6000600154905090565b6000600680549050905090565b60606002600083815260200190815260200160002060080180548060200260200160405190810160405280929190818152602001828054801561092157602002820191906000526020600020905b8160009054906101000a900473ffffffffffffffffffffffffffffffffffffffff1673ffffffffffffffffffffffffffffffffffffffff16815260200190600101908083116108d7575b50505050509050919050565b600080600080600680549050851061097a576040517f08c379a000000000000000000000000000000000000000000000000000000000815260040161097190612b8b565b60405180910390fd5b6000600686815481106109905761098f612bab565b5b906000526020600020906004020190508060000160009054906101000a900473ffffffffffffffffffffffffffffffffffffffff168160010160009054906101000a900473ffffffffffffffffffffffffffffffffffffffff16826002015483600301549450945094509450509193509193565b80600360003373ffffffffffffffffffffffffffffffffffffffff1673ffffffffffffffffffffffffffffffffffffffff168152602001908152602001600020600201541015610a89576040517f08c379a0000000000000000000000000000000000000000000000000000000008152600401610a8090612c26565b60405180910390fd5b6000600360003373ffffffffffffffffffffffffffffffffffffffff1673ffffffffffffffffffffffffffffffffffffffff168152602001908152602001600020905081816002016000828254610ae09190612c75565b9250508190555060005482610af59190612ca9565b816001016000828254610b089190612d03565b925050819055503073ffffffffffffffffffffffffffffffffffffffff163373ffffffffffffffffffffffffffffffffffffffff167f314d9d54f4824ae491ddf2a96075427b4aa537d03004255d1ebaf12ffd29f3d860005485610b6c9190612ca9565b604051610b79919061213f565b60405180910390a35050565b600560003373ffffffffffffffffffffffffffffffffffffffff1673ffffffffffffffffffffffffffffffffffffffff16815260200190815260200160002060020160009054906101000a900460ff16610c14576040517f08c379a0000000000000000000000000000000000000000000000000000000008152600401610c0b90612da5565b60405180910390fd5b60026000828152602001908152602001600020600801339080600181540180825580915050600190039060005260206000200160009091909190916101000a81548173ffffffffffffffffffffffffffffffffffffffff021916908373ffffffffffffffffffffffffffffffffffffffff16021790555050565b6000604051806060016040528084815260200183815260200160011515815250905080600560003373ffffffffffffffffffffffffffffffffffffffff1673ffffffffffffffffffffffffffffffffffffffff1681526020019081526020016000206000820151816000019080519060200190610d0c929190611fdc565b506020820151816001015560408201518160020160006101000a81548160ff021916908315150217905550905050505050565b6003602052806000526040600020600091509050806000018054610d6290612b0d565b80601f0160208091040260200160405190810160405280929190818152602001828054610d8e90612b0d565b8015610ddb5780601f10610db057610100808354040283529160200191610ddb565b820191906000526020600020905b815481529060010190602001808311610dbe57829003601f168201915b5050505050908060010154908060020154908060030160009054906101000a900460ff16905084565b60011515600560003373ffffffffffffffffffffffffffffffffffffffff1673ffffffffffffffffffffffffffffffffffffffff16815260200190815260200160002060020160009054906101000a900460ff16151514610e9a576040517f08c379a0000000000000000000000000000000000000000000000000000000008152600401610e9190612a6b565b60405180910390fd5b60006002600083815260200190815260200160002090507fae63e8166b83be443c3e56e05113576ee313afdbe440d1512f735853051362108160000182600201836003018460040185600501604051610ef7959493929190613403565b60405180910390a15050565b600560008273ffffffffffffffffffffffffffffffffffffffff1673ffffffffffffffffffffffffffffffffffffffff16815260200190815260200160002060020160009054906101000a900460ff16610f92576040517f08c379a0000000000000000000000000000000000000000000000000000000008152600401610f89906134c5565b60405180910390fd5b3373ffffffffffffffffffffffffffffffffffffffff1631341115610fec576040517f08c379a0000000000000000000000000000000000000000000000000000000008152600401610fe390613531565b60405180910390fd5b6000805434610ffb9190613580565b90508173ffffffffffffffffffffffffffffffffffffffff166108fc349081150290604051600060405180830381858888f19350505050158015611043573d6000803e3d6000fd5b5080600460003373ffffffffffffffffffffffffffffffffffffffff1673ffffffffffffffffffffffffffffffffffffffff16815260200190815260200160002060020160008282546110969190612d03565b925050819055508173ffffffffffffffffffffffffffffffffffffffff163373ffffffffffffffffffffffffffffffffffffffff167f314d9d54f4824ae491ddf2a96075427b4aa537d03004255d1ebaf12ffd29f3d8836040516110fa919061213f565b60405180910390a35050565b600560205280600052604060002060009150905080600001805461112990612b0d565b80601f016020809104026020016040519081016040528092919081815260200182805461115590612b0d565b80156111a25780601f10611177576101008083540402835291602001916111a2565b820191906000526020600020905b81548152906001019060200180831161118557829003601f168201915b5050505050908060010154908060020160009054906101000a900460ff16905083565b60011515600560003373ffffffffffffffffffffffffffffffffffffffff1673ffffffffffffffffffffffffffffffffffffffff16815260200190815260200160002060020160009054906101000a900460ff1615151461125b576040517f08c379a000000000000000000000000000000000000000000000000000000000815260040161125290612a6b565b60405180910390fd5b600060026000858152602001908152602001600020905060008160040180549050905081600401604051806060016040528083815260200186815260200185815250908060018154018082558091505060019003906000526020600020906003020160009091909190915060008201518160000155602082015181600101556040820151816002015550507f96f0b5d12777e770770aa7f046001ea09c3ec76a27e6332239c3540b568ef7708582868660405161131b94939291906135b1565b60405180910390a15050505050565b6000670de0b6b3a76400003373ffffffffffffffffffffffffffffffffffffffff16316113579190613580565b90506000604051806080016040528086815260200185815260200184815260200183815250905080600460003373ffffffffffffffffffffffffffffffffffffffff1673ffffffffffffffffffffffffffffffffffffffff16815260200190815260200160002060008201518160000190805190602001906113da929190611fdc565b5060208201518160010190805190602001906113f7929190611fdc565b5060408201518160020155606082015181600301559050505050505050565b60011515600560003373ffffffffffffffffffffffffffffffffffffffff1673ffffffffffffffffffffffffffffffffffffffff16815260200190815260200160002060020160009054906101000a900460ff161515146114ac576040517f08c379a00000000000000000000000000000000000000000000000000000000081526004016114a390612a6b565b60405180910390fd5b6000600260008881526020019081526020016000209050600081600201805490509050816002016040518060c001604052808381526020018981526020018881526020018781526020018661ffff1681526020018561ffff1681525090806001815401808255809150506001900390600052602060002090600502016000909190919091506000820151816000015560208201518160010155604082015181600201556060820151816003015560808201518160040160006101000a81548161ffff021916908361ffff16021790555060a08201518160040160026101000a81548161ffff021916908361ffff16021790555050507f7a996c70a429d049c375510397afdd445f2d8df80e1275624b60232bfda9590a888289898989896040516115dc9796959493929190613605565b60405180910390a15050505050505050565b600681815481106115fe57600080fd5b90600052602060002090600402016000915090508060000160009054906101000a900473ffffffffffffffffffffffffffffffffffffffff16908060010160009054906101000a900473ffffffffffffffffffffffffffffffffffffffff16908060020154908060030154905084565b80600360003373ffffffffffffffffffffffffffffffffffffffff1673ffffffffffffffffffffffffffffffffffffffff1681526020019081526020016000206002015410156116f3576040517f08c379a00000000000000000000000000000000000000000000000000000000081526004016116ea906136c0565b60405180910390fd5b6000600360003373ffffffffffffffffffffffffffffffffffffffff1673ffffffffffffffffffffffffffffffffffffffff16815260200190815260200160002090506000600360008573ffffffffffffffffffffffffffffffffffffffff1673ffffffffffffffffffffffffffffffffffffffff16815260200190815260200160002090508282600201600082825461178d9190612c75565b92505081905550828160020160008282546117a89190612d03565b925050819055508373ffffffffffffffffffffffffffffffffffffffff163373ffffffffffffffffffffffffffffffffffffffff167f314d9d54f4824ae491ddf2a96075427b4aa537d03004255d1ebaf12ffd29f3d88560405161180c919061213f565b60405180910390a350505050565b600460205280600052604060002060009150905080600001805461183d90612b0d565b80601f016020809104026020016040519081016040528092919081815260200182805461186990612b0d565b80156118b65780601f1061188b576101008083540402835291602001916118b6565b820191906000526020600020905b81548152906001019060200180831161189957829003601f168201915b5050505050908060010180546118cb90612b0d565b80601f01602080910402602001604051908101604052809291908181526020018280546118f790612b0d565b80156119445780601f1061191957610100808354040283529160200191611944565b820191906000526020600020905b81548152906001019060200180831161192757829003601f168201915b5050505050908060020154908060030154905084565b60015481565b60026000828152602001908152602001600020600701339080600181540180825580915050600190039060005260206000200160009091909190916101000a81548173ffffffffffffffffffffffffffffffffffffffff021916908373ffffffffffffffffffffffffffffffffffffffff16021790555050565b60011515600560003373ffffffffffffffffffffffffffffffffffffffff1673ffffffffffffffffffffffffffffffffffffffff16815260200190815260200160002060020160009054906101000a900460ff16151514611a70576040517f08c379a0000000000000000000000000000000000000000000000000000000008152600401611a6790612a6b565b60405180910390fd5b6000600260008381526020019081526020016000209050600081600301805490509050600060405180606001604052808381526020018773ffffffffffffffffffffffffffffffffffffffff168152602001868152509050826003018190806001815401808255809150506001900390600052602060002090600302016000909190919091506000820151816000015560208201518160010160006101000a81548173ffffffffffffffffffffffffffffffffffffffff021916908373ffffffffffffffffffffffffffffffffffffffff1602179055506040820151816002015550507fefed7b98763026eeab78219b0816974fb4f56818ab8546317f0a2473fe850e27848387604051611b86939291906136e0565b60405180910390a1505050505050565b60011515600560003373ffffffffffffffffffffffffffffffffffffffff1673ffffffffffffffffffffffffffffffffffffffff16815260200190815260200160002060020160009054906101000a900460ff16151514611c2c576040517f08c379a0000000000000000000000000000000000000000000000000000000008152600401611c2390612a6b565b60405180910390fd5b6000600260006001548152602001908152602001600020905081816000019080519060200190611c5d929190611fdc565b5060015481600101819055506001806000828254611c7b9190612d03565b925050819055507f8a0a41db407a6cb0066cbae19d90b07c19f10e171e35200eb9aff273654effab8160010154604051611cb5919061213f565b60405180910390a15050565b60606000600460003373ffffffffffffffffffffffffffffffffffffffff1673ffffffffffffffffffffffffffffffffffffffff168152602001908152602001600020604051806080016040529081600082018054611d1f90612b0d565b80601f0160208091040260200160405190810160405280929190818152602001828054611d4b90612b0d565b8015611d985780601f10611d6d57610100808354040283529160200191611d98565b820191906000526020600020905b815481529060010190602001808311611d7b57829003601f168201915b50505050508152602001600182018054611db190612b0d565b80601f0160208091040260200160405190810160405280929190818152602001828054611ddd90612b0d565b8015611e2a5780601f10611dff57610100808354040283529160200191611e2a565b820191906000526020600020905b815481529060010190602001808311611e0d57829003601f168201915b50505050508152602001600282015481526020016003820154815250509050806000015191505090565b600660405180608001604052808573ffffffffffffffffffffffffffffffffffffffff1681526020018473ffffffffffffffffffffffffffffffffffffffff16815260200183815260200142815250908060018154018082558091505060019003906000526020600020906004020160009091909190915060008201518160000160006101000a81548173ffffffffffffffffffffffffffffffffffffffff021916908373ffffffffffffffffffffffffffffffffffffffff16021790555060208201518160010160006101000a81548173ffffffffffffffffffffffffffffffffffffffff021916908373ffffffffffffffffffffffffffffffffffffffff160217905550604082015181600201556060820151816003015550508173ffffffffffffffffffffffffffffffffffffffff168373ffffffffffffffffffffffffffffffffffffffff167fccfcbe7d87150baa95519e68f762fa01b73a0b0f1f1f2c649cea60f79053115f8342604051611fcf929190613717565b60405180910390a3505050565b828054611fe890612b0d565b90600052602060002090601f01602090048101928261200a5760008555612051565b82601f1061202357805160ff1916838001178555612051565b82800160010185558215612051579182015b82811115612050578251825591602001919060010190612035565b5b50905061205e9190612062565b5090565b5b8082111561207b576000816000905550600101612063565b5090565b6000604051905090565b600080fd5b600080fd5b6000819050919050565b6120a681612093565b81146120b157600080fd5b50565b6000813590506120c38161209d565b92915050565b600080600080608085870312156120e3576120e2612089565b5b60006120f1878288016120b4565b9450506020612102878288016120b4565b9350506040612113878288016120b4565b9250506060612124878288016120b4565b91505092959194509250565b61213981612093565b82525050565b60006020820190506121546000830184612130565b92915050565b6000602082840312156121705761216f612089565b5b600061217e848285016120b4565b91505092915050565b600081519050919050565b600082825260208201905092915050565b60005b838110156121c15780820151818401526020810190506121a6565b838111156121d0576000848401525b50505050565b6000601f19601f8301169050919050565b60006121f282612187565b6121fc8185612192565b935061220c8185602086016121a3565b612215816121d6565b840191505092915050565b6000604082019050818103600083015261223a81856121e7565b90506122496020830184612130565b9392505050565b600081519050919050565b600082825260208201905092915050565b6000819050602082019050919050565b600073ffffffffffffffffffffffffffffffffffffffff82169050919050565b60006122a78261227c565b9050919050565b6122b78161229c565b82525050565b60006122c983836122ae565b60208301905092915050565b6000602082019050919050565b60006122ed82612250565b6122f7818561225b565b93506123028361226c565b8060005b8381101561233357815161231a88826122bd565b9750612325836122d5565b925050600181019050612306565b5085935050505092915050565b6000602082019050818103600083015261235a81846122e2565b905092915050565b61236b8161229c565b82525050565b60006080820190506123866000830187612362565b6123936020830186612362565b6123a06040830185612130565b6123ad6060830184612130565b95945050505050565b600080fd5b600080fd5b7f4e487b7100000000000000000000000000000000000000000000000000000000600052604160045260246000fd5b6123f8826121d6565b810181811067ffffffffffffffff82111715612417576124166123c0565b5b80604052505050565b600061242a61207f565b905061243682826123ef565b919050565b600067ffffffffffffffff821115612456576124556123c0565b5b61245f826121d6565b9050602081019050919050565b82818337600083830152505050565b600061248e6124898461243b565b612420565b9050828152602081018484840111156124aa576124a96123bb565b5b6124b584828561246c565b509392505050565b600082601f8301126124d2576124d16123b6565b5b81356124e284826020860161247b565b91505092915050565b6000806040838503121561250257612501612089565b5b600083013567ffffffffffffffff8111156125205761251f61208e565b5b61252c858286016124bd565b925050602061253d858286016120b4565b9150509250929050565b6125508161229c565b811461255b57600080fd5b50565b60008135905061256d81612547565b92915050565b60006020828403121561258957612588612089565b5b60006125978482850161255e565b91505092915050565b60008115159050919050565b6125b5816125a0565b82525050565b600060808201905081810360008301526125d581876121e7565b90506125e46020830186612130565b6125f16040830185612130565b6125fe60608301846125ac565b95945050505050565b60006126128261227c565b9050919050565b61262281612607565b811461262d57600080fd5b50565b60008135905061263f81612619565b92915050565b60006020828403121561265b5761265a612089565b5b600061266984828501612630565b91505092915050565b6000606082019050818103600083015261268c81866121e7565b905061269b6020830185612130565b6126a860408301846125ac565b949350505050565b6000806000606084860312156126c9576126c8612089565b5b60006126d7868287016120b4565b93505060206126e8868287016120b4565b92505060406126f9868287016120b4565b9150509250925092565b60008060006060848603121561271c5761271b612089565b5b600084013567ffffffffffffffff81111561273a5761273961208e565b5b612746868287016124bd565b935050602084013567ffffffffffffffff8111156127675761276661208e565b5b612773868287016124bd565b9250506040612784868287016120b4565b9150509250925092565b600061ffff82169050919050565b6127a58161278e565b81146127b057600080fd5b50565b6000813590506127c28161279c565b92915050565b60008060008060008060c087890312156127e5576127e4612089565b5b60006127f389828a016120b4565b965050602061280489828a016120b4565b955050604061281589828a016120b4565b945050606061282689828a016120b4565b935050608061283789828a016127b3565b92505060a061284889828a016127b3565b9150509295509295509295565b6000806040838503121561286c5761286b612089565b5b600061287a8582860161255e565b925050602061288b858286016120b4565b9150509250929050565b600060808201905081810360008301526128af81876121e7565b905081810360208301526128c381866121e7565b90506128d26040830185612130565b6128df6060830184612130565b95945050505050565b60008060006060848603121561290157612900612089565b5b600061290f8682870161255e565b9350506020612920868287016120b4565b9250506040612931868287016120b4565b9150509250925092565b60006020828403121561295157612950612089565b5b600082013567ffffffffffffffff81111561296f5761296e61208e565b5b61297b848285016124bd565b91505092915050565b6000602082019050818103600083015261299e81846121e7565b905092915050565b6000806000606084860312156129bf576129be612089565b5b60006129cd8682870161255e565b93505060206129de8682870161255e565b92505060406129ef868287016120b4565b9150509250925092565b7f4f6e6c792050726f6475636572732063616e206163636573732074686973206660008201527f6561747572652e00000000000000000000000000000000000000000000000000602082015250565b6000612a55602783612192565b9150612a60826129f9565b604082019050919050565b60006020820190508181036000830152612a8481612a48565b9050919050565b600060a082019050612aa06000830188612130565b612aad6020830187612130565b612aba6040830186612130565b612ac76060830185612130565b612ad46080830184612130565b9695505050505050565b7f4e487b7100000000000000000000000000000000000000000000000000000000600052602260045260246000fd5b60006002820490506001821680612b2557607f821691505b60208210811415612b3957612b38612ade565b5b50919050565b7f5472616e73616374696f6e20696e646578206f7574206f6620626f756e647300600082015250565b6000612b75601f83612192565b9150612b8082612b3f565b602082019050919050565b60006020820190508181036000830152612ba481612b68565b9050919050565b7f4e487b7100000000000000000000000000000000000000000000000000000000600052603260045260246000fd5b7f496e73756666696369656e7420656e657267792062616c616e63650000000000600082015250565b6000612c10601b83612192565b9150612c1b82612bda565b602082019050919050565b60006020820190508181036000830152612c3f81612c03565b9050919050565b7f4e487b7100000000000000000000000000000000000000000000000000000000600052601160045260246000fd5b6000612c8082612093565b9150612c8b83612093565b925082821015612c9e57612c9d612c46565b5b828203905092915050565b6000612cb482612093565b9150612cbf83612093565b9250817fffffffffffffffffffffffffffffffffffffffffffffffffffffffffffffffff0483118215151615612cf857612cf7612c46565b5b828202905092915050565b6000612d0e82612093565b9150612d1983612093565b9250827fffffffffffffffffffffffffffffffffffffffffffffffffffffffffffffffff03821115612d4e57612d4d612c46565b5b828201905092915050565b7f796f7520617265206e6f7420612070726f647563657200000000000000000000600082015250565b6000612d8f601683612192565b9150612d9a82612d59565b602082019050919050565b60006020820190508181036000830152612dbe81612d82565b9050919050565b60008190508160005260206000209050919050565b60008154612de781612b0d565b612df18186612192565b94506001821660008114612e0c5760018114612e1e57612e51565b60ff1983168652602086019350612e51565b612e2785612dc5565b60005b83811015612e4957815481890152600182019150602081019050612e2a565b808801955050505b50505092915050565b600081549050919050565b600082825260208201905092915050565b60008190508160005260206000209050919050565b60008160001c9050919050565b6000819050919050565b6000612eb5612eb083612e8b565b612e98565b9050919050565b612ec581612093565b82525050565b600061ffff82169050919050565b6000612eec612ee783612e8b565b612ecb565b9050919050565b612efc8161278e565b82525050565b60008160101c9050919050565b6000612f22612f1d83612f02565b612ecb565b9050919050565b60c082016000808301549050612f3e81612ea2565b612f4b6000860182612ebc565b5060018301549050612f5c81612ea2565b612f696020860182612ebc565b5060028301549050612f7a81612ea2565b612f876040860182612ebc565b5060038301549050612f9881612ea2565b612fa56060860182612ebc565b5060048301549050612fb681612ed9565b612fc36080860182612ef3565b50612fcd81612f0f565b612fda60a0860182612ef3565b5050505050565b6000612fed8383612f29565b60c08301905092915050565b6000600582019050919050565b600061301182612e5a565b61301b8185612e65565b935061302683612e76565b8060005b83811015613056578161303d8882612fe1565b975061304883612ff9565b92505060018101905061302a565b5085935050505092915050565b600081549050919050565b600082825260208201905092915050565b60008190508160005260206000209050919050565b600073ffffffffffffffffffffffffffffffffffffffff82169050919050565b60006130c76130c283612e8b565b613094565b9050919050565b6060820160008083015490506130e381612ea2565b6130f06000860182612ebc565b5060018301549050613101816130b4565b61310e60208601826122ae565b506002830154905061311f81612ea2565b61312c6040860182612ebc565b5050505050565b600061313f83836130ce565b60608301905092915050565b6000600382019050919050565b600061316382613063565b61316d818561306e565b93506131788361307f565b8060005b838110156131a8578161318f8882613133565b975061319a8361314b565b92505060018101905061317c565b5085935050505092915050565b600081549050919050565b600082825260208201905092915050565b60008190508160005260206000209050919050565b6060820160008083015490506131fb81612ea2565b6132086000860182612ebc565b506001830154905061321981612ea2565b6132266020860182612ebc565b506002830154905061323781612ea2565b6132446040860182612ebc565b5050505050565b600061325783836131e6565b60608301905092915050565b6000600382019050919050565b600061327b826131b5565b61328581856131c0565b9350613290836131d1565b8060005b838110156132c057816132a7888261324b565b97506132b283613263565b925050600181019050613294565b5085935050505092915050565b600081549050919050565b600082825260208201905092915050565b60008190508160005260206000209050919050565b60808201600080830154905061331381612ea2565b6133206000860182612ebc565b506001830154905061333181612ea2565b61333e6020860182612ebc565b506002830154905061334f81612ea2565b61335c6040860182612ebc565b506003830154905061336d81612ea2565b61337a6060860182612ebc565b5050505050565b600061338d83836132fe565b60808301905092915050565b6000600482019050919050565b60006133b1826132cd565b6133bb81856132d8565b93506133c6836132e9565b8060005b838110156133f657816133dd8882613381565b97506133e883613399565b9250506001810190506133ca565b5085935050505092915050565b600060a082019050818103600083015261341d8188612dda565b905081810360208301526134318187613006565b905081810360408301526134458186613158565b905081810360608301526134598185613270565b9050818103608083015261346d81846133a6565b90509695505050505050565b7f496e76616c69642070726f647563657220616464726573730000000000000000600082015250565b60006134af601883612192565b91506134ba82613479565b602082019050919050565b600060208201905081810360008301526134de816134a2565b9050919050565b7f496e636f72726563742045746865722076616c75652070726f76696465640000600082015250565b600061351b601e83612192565b9150613526826134e5565b602082019050919050565b6000602082019050818103600083015261354a8161350e565b9050919050565b7f4e487b7100000000000000000000000000000000000000000000000000000000600052601260045260246000fd5b600061358b82612093565b915061359683612093565b9250826135a6576135a5613551565b5b828204905092915050565b60006080820190506135c66000830187612130565b6135d36020830186612130565b6135e06040830185612130565b6135ed6060830184612130565b95945050505050565b6135ff8161278e565b82525050565b600060e08201905061361a600083018a612130565b6136276020830189612130565b6136346040830188612130565b6136416060830187612130565b61364e6080830186612130565b61365b60a08301856135f6565b61366860c08301846135f6565b98975050505050505050565b7f4e6f7420656e6f75676820656e6572677920746f207472616e73666572000000600082015250565b60006136aa601d83612192565b91506136b582613674565b602082019050919050565b600060208201905081810360008301526136d98161369d565b9050919050565b60006060820190506136f56000830186612130565b6137026020830185612130565b61370f6040830184612130565b949350505050565b600060408201905061372c6000830185612130565b6137396020830184612130565b939250505056fea26469706673582212203cf50e20313b85393a821bdc862abac2deef9397068e3236a5a7d767efea9cc264736f6c634300080b0033",
  "immutableReferences": {},
  "source": "// SPDX-License-Identifier: MIT\r\npragma solidity ^0.8.0;\r\n\r\ncontract Microgrid {\r\n    uint256 public perUnit = 10000000000000000;\r\n    uint public microGridId = 0;\r\n\r\n    struct Prosumer {\r\n        string name;\r\n        uint wallet1;\r\n        uint energyBalance;\r\n        bool isProducer;\r\n    }\r\n\r\n    struct Consumer{\r\n        string name;\r\n        string micrometerid;\r\n        uint energyBalance;\r\n        uint wallet;\r\n\r\n    }\r\n\r\n    struct Producer{\r\n        string name;\r\n        uint uniqueID;\r\n        bool isProducer;\r\n    }\r\n\r\n    struct Battery {\r\n        uint uniqueID;\r\n        uint minCapacity;\r\n        uint maxCapacity;\r\n        uint Charge;\r\n        uint16 maxEfficiency;\r\n        uint16 initSoc;\r\n    }\r\n\r\n    struct Load {\r\n        uint loadId;\r\n        address userAddress;\r\n        uint energyRequired;\r\n    }\r\n\r\n    struct GreenEnergy {\r\n        uint uniqueID;\r\n        uint charge;\r\n        uint energyProduction;\r\n    }\r\n\r\n    struct Grid {\r\n        uint uniqueID;\r\n        uint charge;\r\n        uint maxImport;\r\n        uint maxExport;\r\n    }\r\n    struct Transaction {\r\n        address from;\r\n        address to;\r\n        uint256 amount;\r\n        uint256 timestamp;\r\n    }\r\n\r\n\r\n    struct MicroGrid {\r\n        string microGridName;\r\n        uint uniqueId;\r\n        Battery[] batteryUsing;\r\n        Load[] loads;\r\n        GreenEnergy[] greenEnergies;\r\n        Grid[] powerGrid;\r\n        address[] Prosumers;\r\n        address[] Consumers;\r\n        address[] Producers;\r\n    }\r\n\r\n    mapping(uint => MicroGrid) public microGrids;\r\n    mapping(address => Prosumer) public address_Prosumer;\r\n    mapping(address => Consumer) public address_Consumer;\r\n    mapping(address => Producer) public address_Producer;\r\n\r\n    event microgridDetails(string name, Battery[] batteryUsing, Load[] loads, GreenEnergy[] greenEnergies, Grid[] powerGrid);\r\n    event EnergyTransferred(address indexed from, address indexed to, uint256 transferAmount);\r\n    event microGridAdded(uint uniqueId);\r\n    event addLoadData(uint microGridUniqueId,uint loadId,uint energyRequired);\r\n    event addBatteryData(uint microGridUniqueId,uint batteryIndex,uint minCapacity,uint maxCapacity,uint Charge,uint16 maxEfficiency,uint16 initSoc);\r\n    event addGreenEnergyData(uint microGridUniqueId,uint GEId,uint charge,uint energyProduction);\r\n    event addGridData(uint microGridUniqueId,uint gridIndex,uint charge,uint maxImport,uint maxExport);\r\n\r\n\r\n\r\n    function createMicroGrid(string memory name) public {\r\n        require (address_Producer[msg.sender].isProducer == true, \"Only Producers can access this feature.\");\r\n        MicroGrid storage tempMicroGrid = microGrids[microGridId];\r\n        tempMicroGrid.microGridName = name;\r\n        tempMicroGrid.uniqueId = microGridId;\r\n        microGridId += 1;\r\n        emit microGridAdded(tempMicroGrid.uniqueId);\r\n    }\r\n\r\n    function viewMicrogridDetails(uint id) public {\r\n        require (address_Producer[msg.sender].isProducer == true, \"Only Producers can access this feature.\");\r\n        MicroGrid storage temp = microGrids[id];\r\n        emit microgridDetails(temp.microGridName, temp.batteryUsing, temp.loads, temp.greenEnergies, temp.powerGrid);\r\n    }\r\n\r\n    function addBattery(\r\n        uint uniqueId,\r\n        uint minCapacity,\r\n        uint maxCapacity,\r\n        uint Charge,\r\n        uint16 maxEfficiency,\r\n        uint16 initSoc\r\n    ) public {\r\n        require (address_Producer[msg.sender].isProducer == true, \"Only Producers can access this feature.\");\r\n        MicroGrid storage tempMicroGrid = microGrids[uniqueId];\r\n        uint batteryId = tempMicroGrid.batteryUsing.length;\r\n        tempMicroGrid.batteryUsing.push(Battery(batteryId,minCapacity, maxCapacity, Charge, maxEfficiency, initSoc));\r\n        emit addBatteryData(uniqueId, batteryId, minCapacity,maxCapacity, Charge, maxEfficiency, initSoc);\r\n}\r\n\r\n    function addLoad(address userAddress, uint energyRequired, uint uniqueId) public {\r\n        require (address_Producer[msg.sender].isProducer == true, \"Only Producers can access this feature.\");\r\n        MicroGrid storage tempMicroGrid = microGrids[uniqueId];\r\n        uint loadId = tempMicroGrid.loads.length;\r\n        Load memory loadItem = Load(loadId, userAddress, energyRequired);\r\n        tempMicroGrid.loads.push(loadItem);\r\n        emit addLoadData(uniqueId,loadId,energyRequired);\r\n    }\r\n\r\n    function addGreenEnergy(uint uniqueId,uint charge,uint energyProduction) public {\r\n        require (address_Producer[msg.sender].isProducer == true, \"Only Producers can access this feature.\");\r\n        MicroGrid storage tempMicroGrid = microGrids[uniqueId];\r\n        uint greenEnergyId = tempMicroGrid.greenEnergies.length;\r\n        tempMicroGrid.greenEnergies.push(GreenEnergy(greenEnergyId,charge,energyProduction));\r\n        emit addGreenEnergyData(uniqueId,greenEnergyId,charge, energyProduction);\r\n    }\r\n\r\n    function addPowerGrid( uint uniqueId,uint charge,uint maxImport, uint maxExport) public {\r\n        require (address_Producer[msg.sender].isProducer == true, \"Only Producers can access this feature.\");\r\n        MicroGrid storage tempMicroGrid = microGrids[uniqueId];\r\n        uint gridId = tempMicroGrid.powerGrid.length;\r\n        tempMicroGrid.powerGrid.push(Grid(gridId, charge,maxImport, maxExport));\r\n        emit addGridData(uniqueId,gridId,charge,maxImport,maxExport);\r\n    }\r\n\r\n    function addProducer(string memory name, uint uniqueID) public {\r\n        Producer memory producer = Producer(name, uniqueID, true);\r\n        address_Producer[msg.sender] = producer;\r\n    }\r\n    function addProducerToMicroGrid( uint uniqueId)public {\r\n        require(address_Producer[msg.sender].isProducer,\"you are not a producer\");\r\n        microGrids[uniqueId].Producers.push(msg.sender);\r\n    }\r\n    function addConsumerToMicroGrid( uint uniqueId)public {\r\n        // require(address_Producer[msg.sender].isProducer,\"you are not a producer\");\r\n        microGrids[uniqueId].Consumers.push(msg.sender);\r\n    }\r\n    function showAllProducers(uint uniqueId) public view returns (address[] memory) {\r\n        return microGrids[uniqueId].Producers;\r\n    }\r\n    function addConsumer(string memory name,string memory micrometerid, uint energyBalance) public {\r\n        uint wallet=msg.sender.balance/1 ether;\r\n        Consumer memory consumer = Consumer(name,micrometerid, energyBalance,wallet);\r\n        address_Consumer[msg.sender] = consumer;\r\n    }\r\n\r\n    // Function to purchase energy  consumer -> prosumer\r\n\r\n\r\n\r\n    function purchaseEnergy(address payable producer) public payable  {\r\n        require(address_Producer[producer].isProducer, \"Invalid producer address\");\r\n        require(msg.value <=msg.sender.balance, \"Incorrect Ether value provided\");\r\n\r\n        uint energyUnits = msg.value/perUnit;\r\n        producer.transfer(msg.value);\r\n        address_Consumer[msg.sender].energyBalance += energyUnits;\r\n        emit EnergyTransferred(msg.sender, producer, energyUnits);\r\n\r\n    }\r\n\r\n\r\n    // Function to sell excess energy,  prosumer -> consumer\r\n    function sellEnergy(uint transferAmount) public {\r\n        require(address_Prosumer[msg.sender].energyBalance >= transferAmount, \"Insufficient energy balance\");\r\n        Prosumer storage prosumer = address_Prosumer[msg.sender];\r\n        prosumer.energyBalance -= transferAmount;\r\n        prosumer.wallet1 += transferAmount * perUnit;\r\n\r\n        // Emit an event to record the energy sale\r\n        emit EnergyTransferred(msg.sender, address(this), transferAmount * perUnit);\r\n    }\r\n\r\n    // Function to transfer energy from one user to another\r\n    function transferEnergy(address to, uint transferAmount) public {\r\n        require(address_Prosumer[msg.sender].energyBalance >= transferAmount, \"Not enough energy to transfer\");\r\n\r\n        Prosumer storage senderDetails = address_Prosumer[msg.sender];\r\n        Prosumer storage receiverDetails = address_Prosumer[to];\r\n\r\n        senderDetails.energyBalance -= transferAmount;\r\n        receiverDetails.energyBalance += transferAmount;\r\n\r\n        // Emit an event to record the energy transfer\r\n        emit EnergyTransferred(msg.sender, to, transferAmount);\r\n    }\r\n\r\n \r\n    Transaction[] public transactions;\r\n\r\n    event TransactionAdded(address indexed from, address indexed to, uint256 amount, uint256 timestamp);\r\n\r\n    function addTransaction(address _from, address _to, uint256 _amount) public {\r\n        transactions.push(Transaction({\r\n            from: _from,\r\n            to: _to,\r\n            amount: _amount,\r\n            timestamp: block.timestamp\r\n        }));\r\n\r\n        emit TransactionAdded(_from, _to, _amount, block.timestamp);\r\n    }\r\n\r\n    function getTransactionCount() public view returns (uint256) {\r\n        return transactions.length;\r\n    }\r\n\r\n    function getTransaction(uint256 index) public view returns (address from, address to, uint256 amount, uint256 timestamp) {\r\n        require(index < transactions.length, \"Transaction index out of bounds\");\r\n        Transaction storage transaction = transactions[index];\r\n        return (transaction.from, transaction.to, transaction.amount, transaction.timestamp);\r\n    }\r\n\r\n// function batteryData() public view returns (uint) {\r\n//     MicroGrid storage tempMicroGrid = microGrids[0];\r\n    \r\n//     require(tempMicroGrid.batteryUsing.length > 0, \"No batteries in Microgrid 0\");\r\n//     require(tempMicroGrid.batteryUsing.length > 0, \"No battery found at index 0\");\r\n\r\n//     Battery storage battery = tempMicroGrid.batteryUsing[0];\r\n//     return battery.Charge;\r\n// }\r\nfunction consumerData()public view returns (string memory){\r\n    Consumer memory data = address_Consumer[msg.sender];\r\n    return data.name;\r\n}\r\n\r\nfunction showMicroGridId() public view returns(uint){\r\n    return microGridId ;\r\n}\r\n\r\n\r\n\r\n}",
  "sourcePath": "D:\\PS\\NethajiCLone\\project1\\blockChain\\contracts\\Microgrid.sol",
  "compiler": {
    "name": "solc",
    "version": "0.8.11+commit.d7f03943.Emscripten.clang"
  },
  "schemaVersion": "3.4.4",
  "updatedAt": "2024-01-03T09:11:36.967Z",
  "networkType": "ethereum",
  "devdoc": {
    "kind": "dev",
    "methods": {},
    "version": 1
  },
  "userdoc": {
    "kind": "user",
    "methods": {},
    "version": 1
  }
}